{
  "_format": "hh-sol-artifact-1",
  "contractName": "NFT_Marketplace",
  "sourceName": "src/backend/contracts/NFT_Marketplace.sol",
  "abi": [
    {
      "inputs": [],
      "stateMutability": "nonpayable",
      "type": "constructor"
    },
    {
      "inputs": [
        {
          "internalType": "address",
          "name": "sender",
          "type": "address"
        },
        {
          "internalType": "uint256",
          "name": "tokenId",
          "type": "uint256"
        },
        {
          "internalType": "address",
          "name": "owner",
          "type": "address"
        }
      ],
      "name": "ERC721IncorrectOwner",
      "type": "error"
    },
    {
      "inputs": [
        {
          "internalType": "address",
          "name": "operator",
          "type": "address"
        },
        {
          "internalType": "uint256",
          "name": "tokenId",
          "type": "uint256"
        }
      ],
      "name": "ERC721InsufficientApproval",
      "type": "error"
    },
    {
      "inputs": [
        {
          "internalType": "address",
          "name": "approver",
          "type": "address"
        }
      ],
      "name": "ERC721InvalidApprover",
      "type": "error"
    },
    {
      "inputs": [
        {
          "internalType": "address",
          "name": "operator",
          "type": "address"
        }
      ],
      "name": "ERC721InvalidOperator",
      "type": "error"
    },
    {
      "inputs": [
        {
          "internalType": "address",
          "name": "owner",
          "type": "address"
        }
      ],
      "name": "ERC721InvalidOwner",
      "type": "error"
    },
    {
      "inputs": [
        {
          "internalType": "address",
          "name": "receiver",
          "type": "address"
        }
      ],
      "name": "ERC721InvalidReceiver",
      "type": "error"
    },
    {
      "inputs": [
        {
          "internalType": "address",
          "name": "sender",
          "type": "address"
        }
      ],
      "name": "ERC721InvalidSender",
      "type": "error"
    },
    {
      "inputs": [
        {
          "internalType": "uint256",
          "name": "tokenId",
          "type": "uint256"
        }
      ],
      "name": "ERC721NonexistentToken",
      "type": "error"
    },
    {
      "inputs": [
        {
          "internalType": "address",
          "name": "owner",
          "type": "address"
        }
      ],
      "name": "OwnableInvalidOwner",
      "type": "error"
    },
    {
      "inputs": [
        {
          "internalType": "address",
          "name": "account",
          "type": "address"
        }
      ],
      "name": "OwnableUnauthorizedAccount",
      "type": "error"
    },
    {
      "anonymous": false,
      "inputs": [
        {
          "indexed": true,
          "internalType": "address",
          "name": "owner",
          "type": "address"
        },
        {
          "indexed": true,
          "internalType": "address",
          "name": "approved",
          "type": "address"
        },
        {
          "indexed": true,
          "internalType": "uint256",
          "name": "tokenId",
          "type": "uint256"
        }
      ],
      "name": "Approval",
      "type": "event"
    },
    {
      "anonymous": false,
      "inputs": [
        {
          "indexed": true,
          "internalType": "address",
          "name": "owner",
          "type": "address"
        },
        {
          "indexed": true,
          "internalType": "address",
          "name": "operator",
          "type": "address"
        },
        {
          "indexed": false,
          "internalType": "bool",
          "name": "approved",
          "type": "bool"
        }
      ],
      "name": "ApprovalForAll",
      "type": "event"
    },
    {
      "anonymous": false,
      "inputs": [
        {
          "indexed": false,
          "internalType": "uint256",
          "name": "_fromTokenId",
          "type": "uint256"
        },
        {
          "indexed": false,
          "internalType": "uint256",
          "name": "_toTokenId",
          "type": "uint256"
        }
      ],
      "name": "BatchMetadataUpdate",
      "type": "event"
    },
    {
      "anonymous": false,
      "inputs": [
        {
          "indexed": false,
          "internalType": "uint256",
          "name": "tokenID",
          "type": "uint256"
        },
        {
          "indexed": false,
          "internalType": "uint256",
          "name": "offer",
          "type": "uint256"
        },
        {
          "indexed": false,
          "internalType": "address",
          "name": "bidder",
          "type": "address"
        }
      ],
      "name": "Bid",
      "type": "event"
    },
    {
      "anonymous": false,
      "inputs": [
        {
          "indexed": false,
          "internalType": "string",
          "name": "name",
          "type": "string"
        },
        {
          "indexed": false,
          "internalType": "uint256",
          "name": "collectionID",
          "type": "uint256"
        },
        {
          "indexed": false,
          "internalType": "uint256",
          "name": "price",
          "type": "uint256"
        },
        {
          "indexed": false,
          "internalType": "address",
          "name": "buyer",
          "type": "address"
        }
      ],
      "name": "BuyCollection",
      "type": "event"
    },
    {
      "anonymous": false,
      "inputs": [
        {
          "indexed": false,
          "internalType": "uint256",
          "name": "tokenID",
          "type": "uint256"
        },
        {
          "indexed": false,
          "internalType": "address",
          "name": "owner",
          "type": "address"
        }
      ],
      "name": "CancelAuction",
      "type": "event"
    },
    {
      "anonymous": false,
      "inputs": [
        {
          "indexed": false,
          "internalType": "string",
          "name": "name",
          "type": "string"
        },
        {
          "indexed": false,
          "internalType": "uint256",
          "name": "tokenID",
          "type": "uint256"
        },
        {
          "indexed": false,
          "internalType": "uint256",
          "name": "collectionID",
          "type": "uint256"
        }
      ],
      "name": "ChangeCollectionOfNFT",
      "type": "event"
    },
    {
      "anonymous": false,
      "inputs": [
        {
          "indexed": false,
          "internalType": "string",
          "name": "name",
          "type": "string"
        },
        {
          "indexed": false,
          "internalType": "uint256",
          "name": "collectionID",
          "type": "uint256"
        },
        {
          "indexed": false,
          "internalType": "uint256",
          "name": "price",
          "type": "uint256"
        },
        {
          "indexed": false,
          "internalType": "address",
          "name": "owner",
          "type": "address"
        }
      ],
      "name": "CollectionSale",
      "type": "event"
    },
    {
      "anonymous": false,
      "inputs": [
        {
          "indexed": false,
          "internalType": "string",
          "name": "name",
          "type": "string"
        },
        {
          "indexed": false,
          "internalType": "string",
          "name": "description",
          "type": "string"
        },
        {
          "indexed": false,
          "internalType": "address",
          "name": "owner",
          "type": "address"
        }
      ],
      "name": "CreateCollection",
      "type": "event"
    },
    {
      "anonymous": false,
      "inputs": [
        {
          "indexed": false,
          "internalType": "string",
          "name": "name",
          "type": "string"
        },
        {
          "indexed": false,
          "internalType": "string",
          "name": "description",
          "type": "string"
        },
        {
          "indexed": false,
          "internalType": "uint256",
          "name": "collectionID",
          "type": "uint256"
        },
        {
          "indexed": false,
          "internalType": "address",
          "name": "owner",
          "type": "address"
        },
        {
          "indexed": false,
          "internalType": "string",
          "name": "tokenURI",
          "type": "string"
        }
      ],
      "name": "CreateNFT",
      "type": "event"
    },
    {
      "anonymous": false,
      "inputs": [
        {
          "indexed": false,
          "internalType": "uint256",
          "name": "tokenID",
          "type": "uint256"
        },
        {
          "indexed": false,
          "internalType": "uint256",
          "name": "price",
          "type": "uint256"
        },
        {
          "indexed": false,
          "internalType": "address",
          "name": "buyer",
          "type": "address"
        }
      ],
      "name": "FinishAuction",
      "type": "event"
    },
    {
      "anonymous": false,
      "inputs": [
        {
          "indexed": false,
          "internalType": "string",
          "name": "name",
          "type": "string"
        },
        {
          "indexed": false,
          "internalType": "uint256",
          "name": "collectionID",
          "type": "uint256"
        },
        {
          "indexed": false,
          "internalType": "uint256",
          "name": "price",
          "type": "uint256"
        },
        {
          "indexed": false,
          "internalType": "address",
          "name": "owner",
          "type": "address"
        }
      ],
      "name": "ListNFT",
      "type": "event"
    },
    {
      "anonymous": false,
      "inputs": [
        {
          "indexed": false,
          "internalType": "uint256",
          "name": "_tokenId",
          "type": "uint256"
        }
      ],
      "name": "MetadataUpdate",
      "type": "event"
    },
    {
      "anonymous": false,
      "inputs": [
        {
          "indexed": true,
          "internalType": "address",
          "name": "previousOwner",
          "type": "address"
        },
        {
          "indexed": true,
          "internalType": "address",
          "name": "newOwner",
          "type": "address"
        }
      ],
      "name": "OwnershipTransferred",
      "type": "event"
    },
    {
      "anonymous": false,
      "inputs": [
        {
          "indexed": true,
          "internalType": "address",
          "name": "from",
          "type": "address"
        },
        {
          "indexed": true,
          "internalType": "address",
          "name": "to",
          "type": "address"
        },
        {
          "indexed": true,
          "internalType": "uint256",
          "name": "tokenId",
          "type": "uint256"
        }
      ],
      "name": "Transfer",
      "type": "event"
    },
    {
      "inputs": [
        {
          "internalType": "uint256",
          "name": "",
          "type": "uint256"
        }
      ],
      "name": "Collections",
      "outputs": [
        {
          "internalType": "uint256",
          "name": "collectionId",
          "type": "uint256"
        },
        {
          "internalType": "uint256",
          "name": "bundle_price",
          "type": "uint256"
        },
        {
          "internalType": "string",
          "name": "name",
          "type": "string"
        },
        {
          "internalType": "string",
          "name": "description",
          "type": "string"
        },
        {
          "internalType": "address payable",
          "name": "owner",
          "type": "address"
        },
        {
          "internalType": "bool",
          "name": "isListed",
          "type": "bool"
        }
      ],
      "stateMutability": "view",
      "type": "function"
    },
    {
      "inputs": [
        {
          "internalType": "uint256",
          "name": "",
          "type": "uint256"
        }
      ],
      "name": "NFTs",
      "outputs": [
        {
          "internalType": "string",
          "name": "name",
          "type": "string"
        },
        {
          "internalType": "string",
          "name": "description",
          "type": "string"
        },
        {
          "internalType": "uint256",
          "name": "collectionID",
          "type": "uint256"
        },
        {
          "internalType": "bool",
          "name": "isListed",
          "type": "bool"
        },
        {
          "internalType": "address payable",
          "name": "owner",
          "type": "address"
        },
        {
          "internalType": "address payable",
          "name": "highestBidder",
          "type": "address"
        },
        {
          "internalType": "uint256",
          "name": "highestBid",
          "type": "uint256"
        },
        {
          "internalType": "uint256",
          "name": "startingPrice",
          "type": "uint256"
        },
        {
          "internalType": "uint256",
          "name": "deadline",
          "type": "uint256"
        }
      ],
      "stateMutability": "view",
      "type": "function"
    },
    {
      "inputs": [
        {
          "internalType": "address",
          "name": "to",
          "type": "address"
        },
        {
          "internalType": "uint256",
          "name": "tokenId",
          "type": "uint256"
        }
      ],
      "name": "approve",
      "outputs": [],
      "stateMutability": "nonpayable",
      "type": "function"
    },
    {
      "inputs": [
        {
          "internalType": "address",
          "name": "owner",
          "type": "address"
        }
      ],
      "name": "balanceOf",
      "outputs": [
        {
          "internalType": "uint256",
          "name": "",
          "type": "uint256"
        }
      ],
      "stateMutability": "view",
      "type": "function"
    },
    {
      "inputs": [
        {
          "internalType": "uint256",
          "name": "_tokenID",
          "type": "uint256"
        }
      ],
      "name": "bid",
      "outputs": [],
      "stateMutability": "payable",
      "type": "function"
    },
    {
      "inputs": [
        {
          "internalType": "uint256",
          "name": "_collectionID",
          "type": "uint256"
        }
      ],
      "name": "buyCollection",
      "outputs": [],
      "stateMutability": "payable",
      "type": "function"
    },
    {
      "inputs": [
        {
          "internalType": "uint256",
          "name": "_tokenID",
          "type": "uint256"
        }
      ],
      "name": "cancelAuction",
      "outputs": [],
      "stateMutability": "nonpayable",
      "type": "function"
    },
    {
      "inputs": [
        {
          "internalType": "string",
          "name": "_name",
          "type": "string"
        },
        {
          "internalType": "string",
          "name": "_description",
          "type": "string"
        }
      ],
      "name": "createCollection",
      "outputs": [],
      "stateMutability": "nonpayable",
      "type": "function"
    },
    {
      "inputs": [
        {
          "internalType": "string",
          "name": "_tokenURI",
          "type": "string"
        },
        {
          "internalType": "string",
          "name": "_name",
          "type": "string"
        },
        {
          "internalType": "string",
          "name": "_description",
          "type": "string"
        },
        {
          "internalType": "uint256",
          "name": "_collectionID",
          "type": "uint256"
        }
      ],
      "name": "createNFT",
      "outputs": [],
      "stateMutability": "nonpayable",
      "type": "function"
    },
    {
      "inputs": [
        {
          "internalType": "uint256",
          "name": "_tokenID",
          "type": "uint256"
        }
      ],
      "name": "finishAuction",
      "outputs": [],
      "stateMutability": "nonpayable",
      "type": "function"
    },
    {
      "inputs": [
        {
          "internalType": "uint256",
          "name": "tokenId",
          "type": "uint256"
        }
      ],
      "name": "getApproved",
      "outputs": [
        {
          "internalType": "address",
          "name": "",
          "type": "address"
        }
      ],
      "stateMutability": "view",
      "type": "function"
    },
    {
      "inputs": [],
      "name": "getCollectionCounter",
      "outputs": [
        {
          "internalType": "uint256",
          "name": "",
          "type": "uint256"
        }
      ],
      "stateMutability": "view",
      "type": "function"
    },
    {
      "inputs": [],
      "name": "getNFTCounter",
      "outputs": [
        {
          "internalType": "uint256",
          "name": "",
          "type": "uint256"
        }
      ],
      "stateMutability": "view",
      "type": "function"
    },
    {
      "inputs": [
        {
          "internalType": "address",
          "name": "owner",
          "type": "address"
        },
        {
          "internalType": "address",
          "name": "operator",
          "type": "address"
        }
      ],
      "name": "isApprovedForAll",
      "outputs": [
        {
          "internalType": "bool",
          "name": "",
          "type": "bool"
        }
      ],
      "stateMutability": "view",
      "type": "function"
    },
    {
      "inputs": [],
      "name": "name",
      "outputs": [
        {
          "internalType": "string",
          "name": "",
          "type": "string"
        }
      ],
      "stateMutability": "view",
      "type": "function"
    },
    {
      "inputs": [],
      "name": "owner",
      "outputs": [
        {
          "internalType": "address",
          "name": "",
          "type": "address"
        }
      ],
      "stateMutability": "view",
      "type": "function"
    },
    {
      "inputs": [
        {
          "internalType": "uint256",
          "name": "tokenId",
          "type": "uint256"
        }
      ],
      "name": "ownerOf",
      "outputs": [
        {
          "internalType": "address",
          "name": "",
          "type": "address"
        }
      ],
      "stateMutability": "view",
      "type": "function"
    },
    {
      "inputs": [],
      "name": "renounceOwnership",
      "outputs": [],
      "stateMutability": "nonpayable",
      "type": "function"
    },
    {
      "inputs": [
        {
          "internalType": "address",
          "name": "from",
          "type": "address"
        },
        {
          "internalType": "address",
          "name": "to",
          "type": "address"
        },
        {
          "internalType": "uint256",
          "name": "tokenId",
          "type": "uint256"
        }
      ],
      "name": "safeTransferFrom",
      "outputs": [],
      "stateMutability": "nonpayable",
      "type": "function"
    },
    {
      "inputs": [
        {
          "internalType": "address",
          "name": "from",
          "type": "address"
        },
        {
          "internalType": "address",
          "name": "to",
          "type": "address"
        },
        {
          "internalType": "uint256",
          "name": "tokenId",
          "type": "uint256"
        },
        {
          "internalType": "bytes",
          "name": "data",
          "type": "bytes"
        }
      ],
      "name": "safeTransferFrom",
      "outputs": [],
      "stateMutability": "nonpayable",
      "type": "function"
    },
    {
      "inputs": [
        {
          "internalType": "uint256",
          "name": "_tokenID",
          "type": "uint256"
        },
        {
          "internalType": "uint256",
          "name": "_startingPrice",
          "type": "uint256"
        },
        {
          "internalType": "uint256",
          "name": "_deadline",
          "type": "uint256"
        }
      ],
      "name": "sellNFT",
      "outputs": [],
      "stateMutability": "nonpayable",
      "type": "function"
    },
    {
      "inputs": [
        {
          "internalType": "address",
          "name": "operator",
          "type": "address"
        },
        {
          "internalType": "bool",
          "name": "approved",
          "type": "bool"
        }
      ],
      "name": "setApprovalForAll",
      "outputs": [],
      "stateMutability": "nonpayable",
      "type": "function"
    },
    {
      "inputs": [
        {
          "internalType": "uint256",
          "name": "_collectionID",
          "type": "uint256"
        },
        {
          "internalType": "uint256",
          "name": "_tokenID",
          "type": "uint256"
        }
      ],
      "name": "setCollection",
      "outputs": [],
      "stateMutability": "nonpayable",
      "type": "function"
    },
    {
      "inputs": [
        {
          "internalType": "uint256",
          "name": "_collectionID",
          "type": "uint256"
        },
        {
          "internalType": "uint256",
          "name": "_price",
          "type": "uint256"
        }
      ],
      "name": "setCollectionPrice",
      "outputs": [],
      "stateMutability": "nonpayable",
      "type": "function"
    },
    {
      "inputs": [
        {
          "internalType": "uint256",
          "name": "_feePercent",
          "type": "uint256"
        }
      ],
      "name": "setFeePercent",
      "outputs": [],
      "stateMutability": "nonpayable",
      "type": "function"
    },
    {
      "inputs": [
        {
          "internalType": "bytes4",
          "name": "interfaceId",
          "type": "bytes4"
        }
      ],
      "name": "supportsInterface",
      "outputs": [
        {
          "internalType": "bool",
          "name": "",
          "type": "bool"
        }
      ],
      "stateMutability": "view",
      "type": "function"
    },
    {
      "inputs": [],
      "name": "symbol",
      "outputs": [
        {
          "internalType": "string",
          "name": "",
          "type": "string"
        }
      ],
      "stateMutability": "view",
      "type": "function"
    },
    {
      "inputs": [
        {
          "internalType": "uint256",
          "name": "tokenId",
          "type": "uint256"
        }
      ],
      "name": "tokenURI",
      "outputs": [
        {
          "internalType": "string",
          "name": "",
          "type": "string"
        }
      ],
      "stateMutability": "view",
      "type": "function"
    },
    {
      "inputs": [
        {
          "internalType": "address",
          "name": "from",
          "type": "address"
        },
        {
          "internalType": "address",
          "name": "to",
          "type": "address"
        },
        {
          "internalType": "uint256",
          "name": "tokenId",
          "type": "uint256"
        }
      ],
      "name": "transferFrom",
      "outputs": [],
      "stateMutability": "nonpayable",
      "type": "function"
    },
    {
      "inputs": [
        {
          "internalType": "address",
          "name": "newOwner",
          "type": "address"
        }
      ],
      "name": "transferOwnership",
      "outputs": [],
      "stateMutability": "nonpayable",
      "type": "function"
    }
  ],
  "bytecode": "0x6080604052600160085560016009556005600a553480156200002057600080fd5b50336040518060400160405280600781526020017f4245455f4e4654000000000000000000000000000000000000000000000000008152506040518060400160405280600681526020017f4245454e4654000000000000000000000000000000000000000000000000000081525081600090816200009f919062000481565b508060019081620000b1919062000481565b505050600073ffffffffffffffffffffffffffffffffffffffff168173ffffffffffffffffffffffffffffffffffffffff1603620001295760006040517f1e4fbdf7000000000000000000000000000000000000000000000000000000008152600401620001209190620005ad565b60405180910390fd5b6200013a816200014160201b60201c565b50620005ca565b6000600760009054906101000a900473ffffffffffffffffffffffffffffffffffffffff16905081600760006101000a81548173ffffffffffffffffffffffffffffffffffffffff021916908373ffffffffffffffffffffffffffffffffffffffff1602179055508173ffffffffffffffffffffffffffffffffffffffff168173ffffffffffffffffffffffffffffffffffffffff167f8be0079c531659141344cd1fd0a4f28419497f9722a3daafe3b4186f6b6457e060405160405180910390a35050565b600081519050919050565b7f4e487b7100000000000000000000000000000000000000000000000000000000600052604160045260246000fd5b7f4e487b7100000000000000000000000000000000000000000000000000000000600052602260045260246000fd5b600060028204905060018216806200028957607f821691505b6020821081036200029f576200029e62000241565b5b50919050565b60008190508160005260206000209050919050565b60006020601f8301049050919050565b600082821b905092915050565b600060088302620003097fffffffffffffffffffffffffffffffffffffffffffffffffffffffffffffffff82620002ca565b620003158683620002ca565b95508019841693508086168417925050509392505050565b6000819050919050565b6000819050919050565b6000620003626200035c62000356846200032d565b62000337565b6200032d565b9050919050565b6000819050919050565b6200037e8362000341565b620003966200038d8262000369565b848454620002d7565b825550505050565b600090565b620003ad6200039e565b620003ba81848462000373565b505050565b5b81811015620003e257620003d6600082620003a3565b600181019050620003c0565b5050565b601f8211156200043157620003fb81620002a5565b6200040684620002ba565b8101602085101562000416578190505b6200042e6200042585620002ba565b830182620003bf565b50505b505050565b600082821c905092915050565b6000620004566000198460080262000436565b1980831691505092915050565b600062000471838362000443565b9150826002028217905092915050565b6200048c8262000207565b67ffffffffffffffff811115620004a857620004a762000212565b5b620004b4825462000270565b620004c1828285620003e6565b600060209050601f831160018114620004f95760008415620004e4578287015190505b620004f0858262000463565b86555062000560565b601f1984166200050986620002a5565b60005b8281101562000533578489015182556001820191506020850194506020810190506200050c565b868310156200055357848901516200054f601f89168262000443565b8355505b6001600288020188555050505b505050505050565b600073ffffffffffffffffffffffffffffffffffffffff82169050919050565b6000620005958262000568565b9050919050565b620005a78162000588565b82525050565b6000602082019050620005c460008301846200059c565b92915050565b61574a80620005da6000396000f3fe6080604052600436106101cd5760003560e01c80638da5cb5b116100f7578063b3d84ae811610095578063ca1e217f11610064578063ca1e217f14610673578063cf266ed01461069c578063e985e9c5146106c5578063f2fde38b14610702576101cd565b8063b3d84ae8146105bb578063b88d4fde146105e4578063c7d31b301461060d578063c87b56dd14610636576101cd565b806397819609116100d157806397819609146104e0578063a22cb46514610522578063a3c0b95b1461054b578063aaee80e214610590576101cd565b80638da5cb5b1461046157806395d89b411461048c57806396b5a755146104b7576101cd565b806323b872dd1161016f57806370a082311161013e57806370a08231146103b9578063715018a6146103f65780637ce3489b1461040d578063835b83aa14610436576101cd565b806323b872dd1461030e57806342842e0e14610337578063454a2ab3146103605780636352211e1461037c576101cd565b8063095ea7b3116101ab578063095ea7b31461027757806311024300146102a0578063176b9b75146102bc578063214eac4f146102e5576101cd565b806301ffc9a7146101d257806306fdde031461020f578063081812fc1461023a575b600080fd5b3480156101de57600080fd5b506101f960048036038101906101f49190613d88565b61072b565b6040516102069190613dd0565b60405180910390f35b34801561021b57600080fd5b5061022461073d565b6040516102319190613e7b565b60405180910390f35b34801561024657600080fd5b50610261600480360381019061025c9190613ed3565b6107cf565b60405161026e9190613f41565b60405180910390f35b34801561028357600080fd5b5061029e60048036038101906102999190613f88565b6107eb565b005b6102ba60048036038101906102b59190613ed3565b610801565b005b3480156102c857600080fd5b506102e360048036038101906102de91906140fd565b610cbf565b005b3480156102f157600080fd5b5061030c60048036038101906103079190614175565b610e48565b005b34801561031a57600080fd5b50610335600480360381019061033091906141c8565b611076565b005b34801561034357600080fd5b5061035e600480360381019061035991906141c8565b611178565b005b61037a60048036038101906103759190613ed3565b611198565b005b34801561038857600080fd5b506103a3600480360381019061039e9190613ed3565b611593565b6040516103b09190613f41565b60405180910390f35b3480156103c557600080fd5b506103e060048036038101906103db919061421b565b6115a5565b6040516103ed9190614257565b60405180910390f35b34801561040257600080fd5b5061040b61165f565b005b34801561041957600080fd5b50610434600480360381019061042f9190613ed3565b611673565b005b34801561044257600080fd5b5061044b611685565b6040516104589190614257565b60405180910390f35b34801561046d57600080fd5b5061047661168f565b6040516104839190613f41565b60405180910390f35b34801561049857600080fd5b506104a16116b9565b6040516104ae9190613e7b565b60405180910390f35b3480156104c357600080fd5b506104de60048036038101906104d99190613ed3565b61174b565b005b3480156104ec57600080fd5b5061050760048036038101906105029190613ed3565b611ace565b60405161051996959493929190614293565b60405180910390f35b34801561052e57600080fd5b506105496004803603810190610544919061432e565b611c47565b005b34801561055757600080fd5b50610572600480360381019061056d9190613ed3565b611c5d565b6040516105879998979695949392919061436e565b60405180910390f35b34801561059c57600080fd5b506105a5611e08565b6040516105b29190614257565b60405180910390f35b3480156105c757600080fd5b506105e260048036038101906105dd9190614409565b611e12565b005b3480156105f057600080fd5b5061060b600480360381019061060691906144ea565b611fc9565b005b34801561061957600080fd5b50610634600480360381019061062f9190614409565b611fe6565b005b34801561064257600080fd5b5061065d60048036038101906106589190613ed3565b61212a565b60405161066a9190613e7b565b60405180910390f35b34801561067f57600080fd5b5061069a6004803603810190610695919061456d565b61213c565b005b3480156106a857600080fd5b506106c360048036038101906106be9190613ed3565b6123c2565b005b3480156106d157600080fd5b506106ec60048036038101906106e79190614628565b6129b5565b6040516106f99190613dd0565b60405180910390f35b34801561070e57600080fd5b506107296004803603810190610724919061421b565b612a49565b005b600061073682612acf565b9050919050565b60606000805461074c90614697565b80601f016020809104026020016040519081016040528092919081815260200182805461077890614697565b80156107c55780601f1061079a576101008083540402835291602001916107c5565b820191906000526020600020905b8154815290600101906020018083116107a857829003601f168201915b5050505050905090565b60006107da82612b30565b506107e482612bb8565b9050919050565b6107fd82826107f8612bf5565b612bfd565b5050565b600c6000828152602001908152602001600020600101543414610859576040517f08c379a000000000000000000000000000000000000000000000000000000000815260040161085090614714565b60405180910390fd5b6000600c600083815260200190815260200160002060050180549050116108b5576040517f08c379a00000000000000000000000000000000000000000000000000000000081526004016108ac90614780565b60405180910390fd5b600c600082815260200190815260200160002060040160009054906101000a900473ffffffffffffffffffffffffffffffffffffffff1673ffffffffffffffffffffffffffffffffffffffff163373ffffffffffffffffffffffffffffffffffffffff1603610959576040517f08c379a000000000000000000000000000000000000000000000000000000000815260040161095090614812565b60405180910390fd5b600c600082815260200190815260200160002060060160009054906101000a900460ff166109bc576040517f08c379a00000000000000000000000000000000000000000000000000000000081526004016109b39061487e565b60405180910390fd5b600c600082815260200190815260200160002060040160009054906101000a900473ffffffffffffffffffffffffffffffffffffffff1673ffffffffffffffffffffffffffffffffffffffff166108fc6064600a5434610a1c91906148cd565b610a26919061493e565b34610a31919061496f565b9081150290604051600060405180830381858888f19350505050158015610a5c573d6000803e3d6000fd5b5033600c600083815260200190815260200160002060040160006101000a81548173ffffffffffffffffffffffffffffffffffffffff021916908373ffffffffffffffffffffffffffffffffffffffff1602179055506000600c60008381526020019081526020016000206001018190555060005b600c600083815260200190815260200160002060050180549050811015610c695760003090508073ffffffffffffffffffffffffffffffffffffffff166323b872dd600c600086815260200190815260200160002060040160009054906101000a900473ffffffffffffffffffffffffffffffffffffffff1633600c60008881526020019081526020016000206005018681548110610b7357610b726149a3565b5b90600052602060002001546040518463ffffffff1660e01b8152600401610b9c93929190614a31565b600060405180830381600087803b158015610bb657600080fd5b505af1158015610bca573d6000803e3d6000fd5b5050505033600b6000600c60008781526020019081526020016000206005018581548110610bfb57610bfa6149a3565b5b9060005260206000200154815260200190815260200160002060030160016101000a81548173ffffffffffffffffffffffffffffffffffffffff021916908373ffffffffffffffffffffffffffffffffffffffff160217905550508080610c6190614a68565b915050610ad1565b507f1fd204582798bf40ce10d346fddb40f4a1342e109f2f5f6be0e93233b6d23175600c6000838152602001908152602001600020600201823433604051610cb49493929190614b49565b60405180910390a150565b6000600954905060096000815480929190610cd990614a68565b919050555060606040518060e00160405280838152602001600081526020018581526020018481526020013373ffffffffffffffffffffffffffffffffffffffff16815260200182815260200160001515815250600c600084815260200190815260200160002060008201518160000155602082015181600101556040820151816002019081610d699190614d22565b506060820151816003019081610d7f9190614d22565b5060808201518160040160006101000a81548173ffffffffffffffffffffffffffffffffffffffff021916908373ffffffffffffffffffffffffffffffffffffffff16021790555060a0820151816005019080519060200190610de3929190613cb2565b5060c08201518160060160006101000a81548160ff0219169083151502179055509050507f8d9333398133fd32e9b6c3ae7b7e39995f3b1998ab23f7e08108ad8cd3fb64f7848433604051610e3a93929190614df4565b60405180910390a150505050565b60003090503373ffffffffffffffffffffffffffffffffffffffff168173ffffffffffffffffffffffffffffffffffffffff16636352211e866040518263ffffffff1660e01b8152600401610e9d9190614257565b602060405180830381865afa158015610eba573d6000803e3d6000fd5b505050506040513d601f19601f82011682018060405250810190610ede9190614e4e565b73ffffffffffffffffffffffffffffffffffffffff1614610f34576040517f08c379a0000000000000000000000000000000000000000000000000000000008152600401610f2b90614eed565b60405180910390fd5b8073ffffffffffffffffffffffffffffffffffffffff166323b872dd3330876040518463ffffffff1660e01b8152600401610f7193929190614f0d565b600060405180830381600087803b158015610f8b57600080fd5b505af1158015610f9f573d6000803e3d6000fd5b505050506001600b600086815260200190815260200160002060030160006101000a81548160ff02191690831515021790555082600b60008681526020019081526020016000206006018190555081600b6000868152602001908152602001600020600701819055507f88873a73df71e02b4146afd074e1524b2ff9dfdd4ed01b0cf9d5cc7f457f0bb0600b6000868152602001908152602001600020600001600b60008781526020019081526020016000206002015485336040516110689493929190614b49565b60405180910390a150505050565b600073ffffffffffffffffffffffffffffffffffffffff168273ffffffffffffffffffffffffffffffffffffffff16036110e85760006040517f64a0ae920000000000000000000000000000000000000000000000000000000081526004016110df9190613f41565b60405180910390fd5b60006110fc83836110f7612bf5565b612c0f565b90508373ffffffffffffffffffffffffffffffffffffffff168173ffffffffffffffffffffffffffffffffffffffff1614611172578382826040517f64283d7b00000000000000000000000000000000000000000000000000000000815260040161116993929190614f44565b60405180910390fd5b50505050565b61119383838360405180602001604052806000815250611fc9565b505050565b60011515600b600083815260200190815260200160002060030160009054906101000a900460ff16151514611202576040517f08c379a00000000000000000000000000000000000000000000000000000000081526004016111f990614fc7565b60405180910390fd5b600b600082815260200190815260200160002060030160019054906101000a900473ffffffffffffffffffffffffffffffffffffffff1673ffffffffffffffffffffffffffffffffffffffff163373ffffffffffffffffffffffffffffffffffffffff16036112a6576040517f08c379a000000000000000000000000000000000000000000000000000000000815260040161129d90615033565b60405180910390fd5b600b60008281526020019081526020016000206005015434116112fe576040517f08c379a00000000000000000000000000000000000000000000000000000000081526004016112f5906150c5565b60405180910390fd5b600b6000828152602001908152602001600020600701544210611356576040517f08c379a000000000000000000000000000000000000000000000000000000000815260040161134d90615131565b60405180910390fd5b600b60008281526020019081526020016000206006015434116113ae576040517f08c379a00000000000000000000000000000000000000000000000000000000081526004016113a5906151c3565b60405180910390fd5b600b600082815260200190815260200160002060040160009054906101000a900473ffffffffffffffffffffffffffffffffffffffff1673ffffffffffffffffffffffffffffffffffffffff163373ffffffffffffffffffffffffffffffffffffffff1603611452576040517f08c379a000000000000000000000000000000000000000000000000000000000815260040161144990615255565b60405180910390fd5b600b600082815260200190815260200160002060040160009054906101000a900473ffffffffffffffffffffffffffffffffffffffff1673ffffffffffffffffffffffffffffffffffffffff166108fc600b6000848152602001908152602001600020600501549081150290604051600060405180830381858888f193505050501580156114e4573d6000803e3d6000fd5b5033600b600083815260200190815260200160002060040160006101000a81548173ffffffffffffffffffffffffffffffffffffffff021916908373ffffffffffffffffffffffffffffffffffffffff16021790555034600b6000838152602001908152602001600020600501819055507ffd7cfbd219ff1e7365436fb2930a026fa6704a1e0bb39ad104f0485c8c01124d81343360405161158893929190615275565b60405180910390a150565b600061159e82612b30565b9050919050565b60008073ffffffffffffffffffffffffffffffffffffffff168273ffffffffffffffffffffffffffffffffffffffff16036116185760006040517f89c62b6400000000000000000000000000000000000000000000000000000000815260040161160f9190613f41565b60405180910390fd5b600360008373ffffffffffffffffffffffffffffffffffffffff1673ffffffffffffffffffffffffffffffffffffffff168152602001908152602001600020549050919050565b611667612e29565b6116716000612eb0565b565b61167b612e29565b80600a8190555050565b6000600954905090565b6000600760009054906101000a900473ffffffffffffffffffffffffffffffffffffffff16905090565b6060600180546116c890614697565b80601f01602080910402602001604051908101604052809291908181526020018280546116f490614697565b80156117415780601f1061171657610100808354040283529160200191611741565b820191906000526020600020905b81548152906001019060200180831161172457829003601f168201915b5050505050905090565b60003090503373ffffffffffffffffffffffffffffffffffffffff16600b600084815260200190815260200160002060030160019054906101000a900473ffffffffffffffffffffffffffffffffffffffff1673ffffffffffffffffffffffffffffffffffffffff16146117f4576040517f08c379a00000000000000000000000000000000000000000000000000000000081526004016117eb90614eed565b60405180910390fd5b60011515600b600084815260200190815260200160002060030160009054906101000a900460ff1615151461185e576040517f08c379a000000000000000000000000000000000000000000000000000000000815260040161185590614fc7565b60405180910390fd5b600b60008381526020019081526020016000206007015442106118b6576040517f08c379a00000000000000000000000000000000000000000000000000000000081526004016118ad906152f8565b60405180910390fd5b6000600b600084815260200190815260200160002060030160006101000a81548160ff021916908315150217905550600b600083815260200190815260200160002060040160009054906101000a900473ffffffffffffffffffffffffffffffffffffffff1673ffffffffffffffffffffffffffffffffffffffff166108fc600b6000858152602001908152602001600020600501549081150290604051600060405180830381858888f19350505050158015611977573d6000803e3d6000fd5b506000600b600084815260200190815260200160002060040160006101000a81548173ffffffffffffffffffffffffffffffffffffffff021916908373ffffffffffffffffffffffffffffffffffffffff1602179055506000600b6000848152602001908152602001600020600501819055506000600b6000848152602001908152602001600020600601819055506000600b6000848152602001908152602001600020600701819055508073ffffffffffffffffffffffffffffffffffffffff166323b872dd3033856040518463ffffffff1660e01b8152600401611a5f93929190614f0d565b600060405180830381600087803b158015611a7957600080fd5b505af1158015611a8d573d6000803e3d6000fd5b505050507f2a6445a420b30cbabfffd85287bfa6c0c8f9b5f65d48637922da74abf357e52b8233604051611ac2929190615318565b60405180910390a15050565b600c602052806000526040600020600091509050806000015490806001015490806002018054611afd90614697565b80601f0160208091040260200160405190810160405280929190818152602001828054611b2990614697565b8015611b765780601f10611b4b57610100808354040283529160200191611b76565b820191906000526020600020905b815481529060010190602001808311611b5957829003601f168201915b505050505090806003018054611b8b90614697565b80601f0160208091040260200160405190810160405280929190818152602001828054611bb790614697565b8015611c045780601f10611bd957610100808354040283529160200191611c04565b820191906000526020600020905b815481529060010190602001808311611be757829003601f168201915b5050505050908060040160009054906101000a900473ffffffffffffffffffffffffffffffffffffffff16908060060160009054906101000a900460ff16905086565b611c59611c52612bf5565b8383612f76565b5050565b600b602052806000526040600020600091509050806000018054611c8090614697565b80601f0160208091040260200160405190810160405280929190818152602001828054611cac90614697565b8015611cf95780601f10611cce57610100808354040283529160200191611cf9565b820191906000526020600020905b815481529060010190602001808311611cdc57829003601f168201915b505050505090806001018054611d0e90614697565b80601f0160208091040260200160405190810160405280929190818152602001828054611d3a90614697565b8015611d875780601f10611d5c57610100808354040283529160200191611d87565b820191906000526020600020905b815481529060010190602001808311611d6a57829003601f168201915b5050505050908060020154908060030160009054906101000a900460ff16908060030160019054906101000a900473ffffffffffffffffffffffffffffffffffffffff16908060040160009054906101000a900473ffffffffffffffffffffffffffffffffffffffff16908060050154908060060154908060070154905089565b6000600854905090565b600c600083815260200190815260200160002060040160009054906101000a900473ffffffffffffffffffffffffffffffffffffffff1673ffffffffffffffffffffffffffffffffffffffff163373ffffffffffffffffffffffffffffffffffffffff1614611eb6576040517f08c379a0000000000000000000000000000000000000000000000000000000008152600401611ead906153b3565b60405180910390fd5b600b600082815260200190815260200160002060030160019054906101000a900473ffffffffffffffffffffffffffffffffffffffff1673ffffffffffffffffffffffffffffffffffffffff163373ffffffffffffffffffffffffffffffffffffffff1614611f5a576040517f08c379a0000000000000000000000000000000000000000000000000000000008152600401611f5190614eed565b60405180910390fd5b81600b6000838152602001908152602001600020600201819055507f1ed088d87d8d67ac9591209cde49a77c73b21313744cd7d5e87daa4abb6e016d600b60008381526020019081526020016000206000018284604051611fbd939291906153d3565b60405180910390a15050565b611fd4848484611076565b611fe0848484846130e5565b50505050565b600c600083815260200190815260200160002060040160009054906101000a900473ffffffffffffffffffffffffffffffffffffffff1673ffffffffffffffffffffffffffffffffffffffff163373ffffffffffffffffffffffffffffffffffffffff161461208a576040517f08c379a0000000000000000000000000000000000000000000000000000000008152600401612081906153b3565b60405180910390fd5b6001600c600084815260200190815260200160002060060160006101000a81548160ff02191690831515021790555080600c6000848152602001908152602001600020600101819055507f5ff22f3fb09f6b746c34c230dee663f3985b9ada169b4ee122f0b11b62192317600c600084815260200190815260200160002060020183833360405161211e9493929190614b49565b60405180910390a15050565b60606121358261329c565b9050919050565b6009548110612180576040517f08c379a000000000000000000000000000000000000000000000000000000000815260040161217790615483565b60405180910390fd5b600060085490506008600081548092919061219a90614a68565b91905055506121a933826133af565b6121b381866133cd565b6040518061012001604052808581526020018481526020018381526020016000151581526020013373ffffffffffffffffffffffffffffffffffffffff168152602001600073ffffffffffffffffffffffffffffffffffffffff16815260200160008152602001600081526020016000815250600b6000838152602001908152602001600020600082015181600001908161224e9190614d22565b5060208201518160010190816122649190614d22565b506040820151816002015560608201518160030160006101000a81548160ff02191690831515021790555060808201518160030160016101000a81548173ffffffffffffffffffffffffffffffffffffffff021916908373ffffffffffffffffffffffffffffffffffffffff16021790555060a08201518160040160006101000a81548173ffffffffffffffffffffffffffffffffffffffff021916908373ffffffffffffffffffffffffffffffffffffffff16021790555060c0820151816005015560e082015181600601556101008201518160070155905050600c60008381526020019081526020016000206005018190806001815401808255809150506001900390600052602060002001600090919091909150557fb5832cfe8c236fc0c9d45da4403a07e69d045e29cc6a044440c8b74193c3023984848433896040516123b39594939291906154a3565b60405180910390a15050505050565b600030905060011515600b600084815260200190815260200160002060030160009054906101000a900460ff16151514612431576040517f08c379a000000000000000000000000000000000000000000000000000000000815260040161242890614fc7565b60405180910390fd5b600b6000838152602001908152602001600020600701544210612489576040517f08c379a0000000000000000000000000000000000000000000000000000000008152600401612480906152f8565b60405180910390fd5b8073ffffffffffffffffffffffffffffffffffffffff166323b872dd30600b600086815260200190815260200160002060040160009054906101000a900473ffffffffffffffffffffffffffffffffffffffff16856040518463ffffffff1660e01b81526004016124fc9392919061550b565b600060405180830381600087803b15801561251657600080fd5b505af115801561252a573d6000803e3d6000fd5b50505050600b600083815260200190815260200160002060030160019054906101000a900473ffffffffffffffffffffffffffffffffffffffff1673ffffffffffffffffffffffffffffffffffffffff166108fc6064600a5461258d919061493e565b6001612599919061496f565b600b6000868152602001908152602001600020600501546125ba91906148cd565b9081150290604051600060405180830381858888f193505050501580156125e5573d6000803e3d6000fd5b506000600b600084815260200190815260200160002060030160006101000a81548160ff021916908315150217905550600b600083815260200190815260200160002060040160009054906101000a900473ffffffffffffffffffffffffffffffffffffffff16600b600084815260200190815260200160002060030160016101000a81548173ffffffffffffffffffffffffffffffffffffffff021916908373ffffffffffffffffffffffffffffffffffffffff1602179055506000600b600084815260200190815260200160002060040160006101000a81548173ffffffffffffffffffffffffffffffffffffffff021916908373ffffffffffffffffffffffffffffffffffffffff1602179055506000600b6000848152602001908152602001600020600501819055506000600b6000848152602001908152602001600020600601819055506000600b6000848152602001908152602001600020600701819055506000600b6000848152602001908152602001600020600201819055506000600190505b600c6000600b6000868152602001908152602001600020600201548152602001908152602001600020600501805490508110156129295782600c6000600b600087815260200190815260200160002060020154815260200190815260200160002060050182815481106127e3576127e26149a3565b5b90600052602060002001540361291657600c6000600b60008681526020019081526020016000206002015481526020019081526020016000206005016001600c6000600b60008881526020019081526020016000206002015481526020019081526020016000206005018054905061285b919061496f565b8154811061286c5761286b6149a3565b5b9060005260206000200154600c6000600b600087815260200190815260200160002060020154815260200190815260200160002060050182815481106128b5576128b46149a3565b5b9060005260206000200181905550600c6000600b60008681526020019081526020016000206002015481526020019081526020016000206005018054806128ff576128fe615542565b5b600190038181906000526020600020016000905590555b808061292190614a68565b91505061276d565b507f4ea2fdadd03e0e3510b288d57b8a0447b14722836988ae3762a2cd6d60ec96c282600b600085815260200190815260200160002060050154600b600086815260200190815260200160002060040160009054906101000a900473ffffffffffffffffffffffffffffffffffffffff166040516129a993929190615571565b60405180910390a15050565b6000600560008473ffffffffffffffffffffffffffffffffffffffff1673ffffffffffffffffffffffffffffffffffffffff16815260200190815260200160002060008373ffffffffffffffffffffffffffffffffffffffff1673ffffffffffffffffffffffffffffffffffffffff16815260200190815260200160002060009054906101000a900460ff16905092915050565b612a51612e29565b600073ffffffffffffffffffffffffffffffffffffffff168173ffffffffffffffffffffffffffffffffffffffff1603612ac35760006040517f1e4fbdf7000000000000000000000000000000000000000000000000000000008152600401612aba9190613f41565b60405180910390fd5b612acc81612eb0565b50565b6000634906490660e01b7bffffffffffffffffffffffffffffffffffffffffffffffffffffffff1916827bffffffffffffffffffffffffffffffffffffffffffffffffffffffff19161480612b295750612b2882613429565b5b9050919050565b600080612b3c8361350b565b9050600073ffffffffffffffffffffffffffffffffffffffff168173ffffffffffffffffffffffffffffffffffffffff1603612baf57826040517f7e273289000000000000000000000000000000000000000000000000000000008152600401612ba69190614257565b60405180910390fd5b80915050919050565b60006004600083815260200190815260200160002060009054906101000a900473ffffffffffffffffffffffffffffffffffffffff169050919050565b600033905090565b612c0a8383836001613548565b505050565b600080612c1b8461350b565b9050600073ffffffffffffffffffffffffffffffffffffffff168373ffffffffffffffffffffffffffffffffffffffff1614612c5d57612c5c81848661370d565b5b600073ffffffffffffffffffffffffffffffffffffffff168173ffffffffffffffffffffffffffffffffffffffff1614612cee57612c9f600085600080613548565b6001600360008373ffffffffffffffffffffffffffffffffffffffff1673ffffffffffffffffffffffffffffffffffffffff168152602001908152602001600020600082825403925050819055505b600073ffffffffffffffffffffffffffffffffffffffff168573ffffffffffffffffffffffffffffffffffffffff1614612d71576001600360008773ffffffffffffffffffffffffffffffffffffffff1673ffffffffffffffffffffffffffffffffffffffff168152602001908152602001600020600082825401925050819055505b846002600086815260200190815260200160002060006101000a81548173ffffffffffffffffffffffffffffffffffffffff021916908373ffffffffffffffffffffffffffffffffffffffff160217905550838573ffffffffffffffffffffffffffffffffffffffff168273ffffffffffffffffffffffffffffffffffffffff167fddf252ad1be2c89b69c2b068fc378daa952ba7f163c4a11628f55a4df523b3ef60405160405180910390a4809150509392505050565b612e31612bf5565b73ffffffffffffffffffffffffffffffffffffffff16612e4f61168f565b73ffffffffffffffffffffffffffffffffffffffff1614612eae57612e72612bf5565b6040517f118cdaa7000000000000000000000000000000000000000000000000000000008152600401612ea59190613f41565b60405180910390fd5b565b6000600760009054906101000a900473ffffffffffffffffffffffffffffffffffffffff16905081600760006101000a81548173ffffffffffffffffffffffffffffffffffffffff021916908373ffffffffffffffffffffffffffffffffffffffff1602179055508173ffffffffffffffffffffffffffffffffffffffff168173ffffffffffffffffffffffffffffffffffffffff167f8be0079c531659141344cd1fd0a4f28419497f9722a3daafe3b4186f6b6457e060405160405180910390a35050565b600073ffffffffffffffffffffffffffffffffffffffff168273ffffffffffffffffffffffffffffffffffffffff1603612fe757816040517f5b08ba18000000000000000000000000000000000000000000000000000000008152600401612fde9190613f41565b60405180910390fd5b80600560008573ffffffffffffffffffffffffffffffffffffffff1673ffffffffffffffffffffffffffffffffffffffff16815260200190815260200160002060008473ffffffffffffffffffffffffffffffffffffffff1673ffffffffffffffffffffffffffffffffffffffff16815260200190815260200160002060006101000a81548160ff0219169083151502179055508173ffffffffffffffffffffffffffffffffffffffff168373ffffffffffffffffffffffffffffffffffffffff167f17307eab39ab6107e8899845ad3d59bd9653f200f220920489ca2b5937696c31836040516130d89190613dd0565b60405180910390a3505050565b60008373ffffffffffffffffffffffffffffffffffffffff163b1115613296578273ffffffffffffffffffffffffffffffffffffffff1663150b7a02613129612bf5565b8685856040518563ffffffff1660e01b815260040161314b94939291906155fd565b6020604051808303816000875af192505050801561318757506040513d601f19601f82011682018060405250810190613184919061565e565b60015b61320b573d80600081146131b7576040519150601f19603f3d011682016040523d82523d6000602084013e6131bc565b606091505b50600081510361320357836040517f64a0ae920000000000000000000000000000000000000000000000000000000081526004016131fa9190613f41565b60405180910390fd5b805181602001fd5b63150b7a0260e01b7bffffffffffffffffffffffffffffffffffffffffffffffffffffffff1916817bffffffffffffffffffffffffffffffffffffffffffffffffffffffff19161461329457836040517f64a0ae9200000000000000000000000000000000000000000000000000000000815260040161328b9190613f41565b60405180910390fd5b505b50505050565b60606132a782612b30565b5060006006600084815260200190815260200160002080546132c890614697565b80601f01602080910402602001604051908101604052809291908181526020018280546132f490614697565b80156133415780601f1061331657610100808354040283529160200191613341565b820191906000526020600020905b81548152906001019060200180831161332457829003601f168201915b5050505050905060006133526137d1565b905060008151036133675781925050506133aa565b60008251111561339c5780826040516020016133849291906156c7565b604051602081830303815290604052925050506133aa565b6133a5846137e8565b925050505b919050565b6133c9828260405180602001604052806000815250613851565b5050565b806006600084815260200190815260200160002090816133ed9190614d22565b507ff8e1a15aba9398e019f0b49df1a4fde98ee17ae345cb5f6b5e2c27f5033e8ce78260405161341d9190614257565b60405180910390a15050565b60007f80ac58cd000000000000000000000000000000000000000000000000000000007bffffffffffffffffffffffffffffffffffffffffffffffffffffffff1916827bffffffffffffffffffffffffffffffffffffffffffffffffffffffff191614806134f457507f5b5e139f000000000000000000000000000000000000000000000000000000007bffffffffffffffffffffffffffffffffffffffffffffffffffffffff1916827bffffffffffffffffffffffffffffffffffffffffffffffffffffffff1916145b8061350457506135038261386d565b5b9050919050565b60006002600083815260200190815260200160002060009054906101000a900473ffffffffffffffffffffffffffffffffffffffff169050919050565b80806135815750600073ffffffffffffffffffffffffffffffffffffffff168273ffffffffffffffffffffffffffffffffffffffff1614155b156136b557600061359184612b30565b9050600073ffffffffffffffffffffffffffffffffffffffff168373ffffffffffffffffffffffffffffffffffffffff16141580156135fc57508273ffffffffffffffffffffffffffffffffffffffff168173ffffffffffffffffffffffffffffffffffffffff1614155b801561360f575061360d81846129b5565b155b1561365157826040517fa9fbf51f0000000000000000000000000000000000000000000000000000000081526004016136489190613f41565b60405180910390fd5b81156136b357838573ffffffffffffffffffffffffffffffffffffffff168273ffffffffffffffffffffffffffffffffffffffff167f8c5be1e5ebec7d5bd14f71427d1e84f3dd0314c0f7b2291e5b200ac8c7c3b92560405160405180910390a45b505b836004600085815260200190815260200160002060006101000a81548173ffffffffffffffffffffffffffffffffffffffff021916908373ffffffffffffffffffffffffffffffffffffffff16021790555050505050565b6137188383836138d7565b6137cc57600073ffffffffffffffffffffffffffffffffffffffff168373ffffffffffffffffffffffffffffffffffffffff160361378d57806040517f7e2732890000000000000000000000000000000000000000000000000000000081526004016137849190614257565b60405180910390fd5b81816040517f177e802f0000000000000000000000000000000000000000000000000000000081526004016137c39291906156eb565b60405180910390fd5b505050565b606060405180602001604052806000815250905090565b60606137f382612b30565b5060006137fe6137d1565b9050600081511161381e5760405180602001604052806000815250613849565b8061382884613998565b6040516020016138399291906156c7565b6040516020818303038152906040525b915050919050565b61385b8383613a66565b61386860008484846130e5565b505050565b60007f01ffc9a7000000000000000000000000000000000000000000000000000000007bffffffffffffffffffffffffffffffffffffffffffffffffffffffff1916827bffffffffffffffffffffffffffffffffffffffffffffffffffffffff1916149050919050565b60008073ffffffffffffffffffffffffffffffffffffffff168373ffffffffffffffffffffffffffffffffffffffff161415801561398f57508273ffffffffffffffffffffffffffffffffffffffff168473ffffffffffffffffffffffffffffffffffffffff161480613950575061394f84846129b5565b5b8061398e57508273ffffffffffffffffffffffffffffffffffffffff1661397683612bb8565b73ffffffffffffffffffffffffffffffffffffffff16145b5b90509392505050565b6060600060016139a784613b5f565b01905060008167ffffffffffffffff8111156139c6576139c5613fd2565b5b6040519080825280601f01601f1916602001820160405280156139f85781602001600182028036833780820191505090505b509050600082602001820190505b600115613a5b578080600190039150507f3031323334353637383961626364656600000000000000000000000000000000600a86061a8153600a8581613a4f57613a4e61490f565b5b04945060008503613a06575b819350505050919050565b600073ffffffffffffffffffffffffffffffffffffffff168273ffffffffffffffffffffffffffffffffffffffff1603613ad85760006040517f64a0ae92000000000000000000000000000000000000000000000000000000008152600401613acf9190613f41565b60405180910390fd5b6000613ae683836000612c0f565b9050600073ffffffffffffffffffffffffffffffffffffffff168173ffffffffffffffffffffffffffffffffffffffff1614613b5a5760006040517f73c6ac6e000000000000000000000000000000000000000000000000000000008152600401613b519190613f41565b60405180910390fd5b505050565b600080600090507a184f03e93ff9f4daa797ed6e38ed64bf6a1f0100000000000000008310613bbd577a184f03e93ff9f4daa797ed6e38ed64bf6a1f0100000000000000008381613bb357613bb261490f565b5b0492506040810190505b6d04ee2d6d415b85acef81000000008310613bfa576d04ee2d6d415b85acef81000000008381613bf057613bef61490f565b5b0492506020810190505b662386f26fc100008310613c2957662386f26fc100008381613c1f57613c1e61490f565b5b0492506010810190505b6305f5e1008310613c52576305f5e1008381613c4857613c4761490f565b5b0492506008810190505b6127108310613c77576127108381613c6d57613c6c61490f565b5b0492506004810190505b60648310613c9a5760648381613c9057613c8f61490f565b5b0492506002810190505b600a8310613ca9576001810190505b80915050919050565b828054828255906000526020600020908101928215613cee579160200282015b82811115613ced578251825591602001919060010190613cd2565b5b509050613cfb9190613cff565b5090565b5b80821115613d18576000816000905550600101613d00565b5090565b6000604051905090565b600080fd5b600080fd5b60007fffffffff0000000000000000000000000000000000000000000000000000000082169050919050565b613d6581613d30565b8114613d7057600080fd5b50565b600081359050613d8281613d5c565b92915050565b600060208284031215613d9e57613d9d613d26565b5b6000613dac84828501613d73565b91505092915050565b60008115159050919050565b613dca81613db5565b82525050565b6000602082019050613de56000830184613dc1565b92915050565b600081519050919050565b600082825260208201905092915050565b60005b83811015613e25578082015181840152602081019050613e0a565b60008484015250505050565b6000601f19601f8301169050919050565b6000613e4d82613deb565b613e578185613df6565b9350613e67818560208601613e07565b613e7081613e31565b840191505092915050565b60006020820190508181036000830152613e958184613e42565b905092915050565b6000819050919050565b613eb081613e9d565b8114613ebb57600080fd5b50565b600081359050613ecd81613ea7565b92915050565b600060208284031215613ee957613ee8613d26565b5b6000613ef784828501613ebe565b91505092915050565b600073ffffffffffffffffffffffffffffffffffffffff82169050919050565b6000613f2b82613f00565b9050919050565b613f3b81613f20565b82525050565b6000602082019050613f566000830184613f32565b92915050565b613f6581613f20565b8114613f7057600080fd5b50565b600081359050613f8281613f5c565b92915050565b60008060408385031215613f9f57613f9e613d26565b5b6000613fad85828601613f73565b9250506020613fbe85828601613ebe565b9150509250929050565b600080fd5b600080fd5b7f4e487b7100000000000000000000000000000000000000000000000000000000600052604160045260246000fd5b61400a82613e31565b810181811067ffffffffffffffff8211171561402957614028613fd2565b5b80604052505050565b600061403c613d1c565b90506140488282614001565b919050565b600067ffffffffffffffff82111561406857614067613fd2565b5b61407182613e31565b9050602081019050919050565b82818337600083830152505050565b60006140a061409b8461404d565b614032565b9050828152602081018484840111156140bc576140bb613fcd565b5b6140c784828561407e565b509392505050565b600082601f8301126140e4576140e3613fc8565b5b81356140f484826020860161408d565b91505092915050565b6000806040838503121561411457614113613d26565b5b600083013567ffffffffffffffff81111561413257614131613d2b565b5b61413e858286016140cf565b925050602083013567ffffffffffffffff81111561415f5761415e613d2b565b5b61416b858286016140cf565b9150509250929050565b60008060006060848603121561418e5761418d613d26565b5b600061419c86828701613ebe565b93505060206141ad86828701613ebe565b92505060406141be86828701613ebe565b9150509250925092565b6000806000606084860312156141e1576141e0613d26565b5b60006141ef86828701613f73565b935050602061420086828701613f73565b925050604061421186828701613ebe565b9150509250925092565b60006020828403121561423157614230613d26565b5b600061423f84828501613f73565b91505092915050565b61425181613e9d565b82525050565b600060208201905061426c6000830184614248565b92915050565b600061427d82613f00565b9050919050565b61428d81614272565b82525050565b600060c0820190506142a86000830189614248565b6142b56020830188614248565b81810360408301526142c78187613e42565b905081810360608301526142db8186613e42565b90506142ea6080830185614284565b6142f760a0830184613dc1565b979650505050505050565b61430b81613db5565b811461431657600080fd5b50565b60008135905061432881614302565b92915050565b6000806040838503121561434557614344613d26565b5b600061435385828601613f73565b925050602061436485828601614319565b9150509250929050565b6000610120820190508181036000830152614389818c613e42565b9050818103602083015261439d818b613e42565b90506143ac604083018a614248565b6143b96060830189613dc1565b6143c66080830188614284565b6143d360a0830187614284565b6143e060c0830186614248565b6143ed60e0830185614248565b6143fb610100830184614248565b9a9950505050505050505050565b600080604083850312156144205761441f613d26565b5b600061442e85828601613ebe565b925050602061443f85828601613ebe565b9150509250929050565b600067ffffffffffffffff82111561446457614463613fd2565b5b61446d82613e31565b9050602081019050919050565b600061448d61448884614449565b614032565b9050828152602081018484840111156144a9576144a8613fcd565b5b6144b484828561407e565b509392505050565b600082601f8301126144d1576144d0613fc8565b5b81356144e184826020860161447a565b91505092915050565b6000806000806080858703121561450457614503613d26565b5b600061451287828801613f73565b945050602061452387828801613f73565b935050604061453487828801613ebe565b925050606085013567ffffffffffffffff81111561455557614554613d2b565b5b614561878288016144bc565b91505092959194509250565b6000806000806080858703121561458757614586613d26565b5b600085013567ffffffffffffffff8111156145a5576145a4613d2b565b5b6145b1878288016140cf565b945050602085013567ffffffffffffffff8111156145d2576145d1613d2b565b5b6145de878288016140cf565b935050604085013567ffffffffffffffff8111156145ff576145fe613d2b565b5b61460b878288016140cf565b925050606061461c87828801613ebe565b91505092959194509250565b6000806040838503121561463f5761463e613d26565b5b600061464d85828601613f73565b925050602061465e85828601613f73565b9150509250929050565b7f4e487b7100000000000000000000000000000000000000000000000000000000600052602260045260246000fd5b600060028204905060018216806146af57607f821691505b6020821081036146c2576146c1614668565b5b50919050565b7f546865207072696365206973206e6f7420636f72726563740000000000000000600082015250565b60006146fe601883613df6565b9150614709826146c8565b602082019050919050565b6000602082019050818103600083015261472d816146f1565b9050919050565b7f54686520636f6c6c656374696f6e20697320656d707479000000000000000000600082015250565b600061476a601783613df6565b915061477582614734565b602082019050919050565b600060208201905081810360008301526147998161475d565b9050919050565b7f596f752061726520746865206f776e6572206f66207468697320636f6c6c656360008201527f74696f6e00000000000000000000000000000000000000000000000000000000602082015250565b60006147fc602483613df6565b9150614807826147a0565b604082019050919050565b6000602082019050818103600083015261482b816147ef565b9050919050565b7f54686520636f6c6c656374696f6e206973206e6f74206c697374656400000000600082015250565b6000614868601c83613df6565b915061487382614832565b602082019050919050565b600060208201905081810360008301526148978161485b565b9050919050565b7f4e487b7100000000000000000000000000000000000000000000000000000000600052601160045260246000fd5b60006148d882613e9d565b91506148e383613e9d565b92508282026148f181613e9d565b915082820484148315176149085761490761489e565b5b5092915050565b7f4e487b7100000000000000000000000000000000000000000000000000000000600052601260045260246000fd5b600061494982613e9d565b915061495483613e9d565b9250826149645761496361490f565b5b828204905092915050565b600061497a82613e9d565b915061498583613e9d565b925082820390508181111561499d5761499c61489e565b5b92915050565b7f4e487b7100000000000000000000000000000000000000000000000000000000600052603260045260246000fd5b6000819050919050565b60006149f76149f26149ed84613f00565b6149d2565b613f00565b9050919050565b6000614a09826149dc565b9050919050565b6000614a1b826149fe565b9050919050565b614a2b81614a10565b82525050565b6000606082019050614a466000830186614a22565b614a536020830185613f32565b614a606040830184614248565b949350505050565b6000614a7382613e9d565b91507fffffffffffffffffffffffffffffffffffffffffffffffffffffffffffffffff8203614aa557614aa461489e565b5b600182019050919050565b60008190508160005260206000209050919050565b60008154614ad281614697565b614adc8186613df6565b94506001821660008114614af75760018114614b0d57614b40565b60ff198316865281151560200286019350614b40565b614b1685614ab0565b60005b83811015614b3857815481890152600182019150602081019050614b19565b808801955050505b50505092915050565b60006080820190508181036000830152614b638187614ac5565b9050614b726020830186614248565b614b7f6040830185614248565b614b8c6060830184613f32565b95945050505050565b60006020601f8301049050919050565b600082821b905092915050565b600060088302614be27fffffffffffffffffffffffffffffffffffffffffffffffffffffffffffffffff82614ba5565b614bec8683614ba5565b95508019841693508086168417925050509392505050565b6000614c1f614c1a614c1584613e9d565b6149d2565b613e9d565b9050919050565b6000819050919050565b614c3983614c04565b614c4d614c4582614c26565b848454614bb2565b825550505050565b600090565b614c62614c55565b614c6d818484614c30565b505050565b5b81811015614c9157614c86600082614c5a565b600181019050614c73565b5050565b601f821115614cd657614ca781614ab0565b614cb084614b95565b81016020851015614cbf578190505b614cd3614ccb85614b95565b830182614c72565b50505b505050565b600082821c905092915050565b6000614cf960001984600802614cdb565b1980831691505092915050565b6000614d128383614ce8565b9150826002028217905092915050565b614d2b82613deb565b67ffffffffffffffff811115614d4457614d43613fd2565b5b614d4e8254614697565b614d59828285614c95565b600060209050601f831160018114614d8c5760008415614d7a578287015190505b614d848582614d06565b865550614dec565b601f198416614d9a86614ab0565b60005b82811015614dc257848901518255600182019150602085019450602081019050614d9d565b86831015614ddf5784890151614ddb601f891682614ce8565b8355505b6001600288020188555050505b505050505050565b60006060820190508181036000830152614e0e8186613e42565b90508181036020830152614e228185613e42565b9050614e316040830184613f32565b949350505050565b600081519050614e4881613f5c565b92915050565b600060208284031215614e6457614e63613d26565b5b6000614e7284828501614e39565b91505092915050565b7f596f7520617265206e6f7420746865206f776e6572206f662074686973204e4660008201527f5400000000000000000000000000000000000000000000000000000000000000602082015250565b6000614ed7602183613df6565b9150614ee282614e7b565b604082019050919050565b60006020820190508181036000830152614f0681614eca565b9050919050565b6000606082019050614f226000830186613f32565b614f2f6020830185613f32565b614f3c6040830184614248565b949350505050565b6000606082019050614f596000830186613f32565b614f666020830185614248565b614f736040830184613f32565b949350505050565b7f54686973204e4654206973206e6f74206c697374656400000000000000000000600082015250565b6000614fb1601683613df6565b9150614fbc82614f7b565b602082019050919050565b60006020820190508181036000830152614fe081614fa4565b9050919050565b7f596f752063616e6e6f7420626964206f6e20796f7572206f776e204e46540000600082015250565b600061501d601e83613df6565b915061502882614fe7565b602082019050919050565b6000602082019050818103600083015261504c81615010565b9050919050565b7f596f757220626964206973206c6f776572207468616e2074686520686967686560008201527f7374206269640000000000000000000000000000000000000000000000000000602082015250565b60006150af602683613df6565b91506150ba82615053565b604082019050919050565b600060208201905081810360008301526150de816150a2565b9050919050565b7f5468652061756374696f6e2068617320656e6465640000000000000000000000600082015250565b600061511b601583613df6565b9150615126826150e5565b602082019050919050565b6000602082019050818103600083015261514a8161510e565b9050919050565b7f596f757220626964206973206c6f776572207468616e2074686520737461727460008201527f696e672070726963650000000000000000000000000000000000000000000000602082015250565b60006151ad602983613df6565b91506151b882615151565b604082019050919050565b600060208201905081810360008301526151dc816151a0565b9050919050565b7f596f752061726520616c7265616479207468652068696768657374206269646460008201527f6572000000000000000000000000000000000000000000000000000000000000602082015250565b600061523f602283613df6565b915061524a826151e3565b604082019050919050565b6000602082019050818103600083015261526e81615232565b9050919050565b600060608201905061528a6000830186614248565b6152976020830185614248565b6152a46040830184613f32565b949350505050565b7f5468652061756374696f6e20616c72656164792066696e697368656400000000600082015250565b60006152e2601c83613df6565b91506152ed826152ac565b602082019050919050565b60006020820190508181036000830152615311816152d5565b9050919050565b600060408201905061532d6000830185614248565b61533a6020830184613f32565b9392505050565b7f596f7520617265206e6f7420746865206f776e6572206f66207468697320636f60008201527f6c6c656374696f6e000000000000000000000000000000000000000000000000602082015250565b600061539d602883613df6565b91506153a882615341565b604082019050919050565b600060208201905081810360008301526153cc81615390565b9050919050565b600060608201905081810360008301526153ed8186614ac5565b90506153fc6020830185614248565b6154096040830184614248565b949350505050565b7f5468657265206973206e6f20636f6c6c656374696f6e20796f752073656c656360008201527f7400000000000000000000000000000000000000000000000000000000000000602082015250565b600061546d602183613df6565b915061547882615411565b604082019050919050565b6000602082019050818103600083015261549c81615460565b9050919050565b600060a08201905081810360008301526154bd8188613e42565b905081810360208301526154d18187613e42565b90506154e06040830186614248565b6154ed6060830185613f32565b81810360808301526154ff8184613e42565b90509695505050505050565b60006060820190506155206000830186613f32565b61552d6020830185614a22565b61553a6040830184614248565b949350505050565b7f4e487b7100000000000000000000000000000000000000000000000000000000600052603160045260246000fd5b60006060820190506155866000830186614248565b6155936020830185614248565b6155a06040830184614a22565b949350505050565b600081519050919050565b600082825260208201905092915050565b60006155cf826155a8565b6155d981856155b3565b93506155e9818560208601613e07565b6155f281613e31565b840191505092915050565b60006080820190506156126000830187613f32565b61561f6020830186613f32565b61562c6040830185614248565b818103606083015261563e81846155c4565b905095945050505050565b60008151905061565881613d5c565b92915050565b60006020828403121561567457615673613d26565b5b600061568284828501615649565b91505092915050565b600081905092915050565b60006156a182613deb565b6156ab818561568b565b93506156bb818560208601613e07565b80840191505092915050565b60006156d38285615696565b91506156df8284615696565b91508190509392505050565b60006040820190506157006000830185613f32565b61570d6020830184614248565b939250505056fea2646970667358221220662ffb88739c2aa276b8e69c710909f7d758ba4e2ae3daf98cf76c17d420ee6d64736f6c63430008140033",
  "linkReferences": {},
  "deployedLinkReferences": {}
}