{
  "_format": "hh-sol-artifact-1",
  "contractName": "NFT_Marketplace",
  "sourceName": "src/backend/contracts/NFT_Marketplace.sol",
  "abi": [
    {
      "inputs": [],
      "stateMutability": "nonpayable",
      "type": "constructor"
    },
    {
      "inputs": [
        {
          "internalType": "address",
          "name": "sender",
          "type": "address"
        },
        {
          "internalType": "uint256",
          "name": "tokenId",
          "type": "uint256"
        },
        {
          "internalType": "address",
          "name": "owner",
          "type": "address"
        }
      ],
      "name": "ERC721IncorrectOwner",
      "type": "error"
    },
    {
      "inputs": [
        {
          "internalType": "address",
          "name": "operator",
          "type": "address"
        },
        {
          "internalType": "uint256",
          "name": "tokenId",
          "type": "uint256"
        }
      ],
      "name": "ERC721InsufficientApproval",
      "type": "error"
    },
    {
      "inputs": [
        {
          "internalType": "address",
          "name": "approver",
          "type": "address"
        }
      ],
      "name": "ERC721InvalidApprover",
      "type": "error"
    },
    {
      "inputs": [
        {
          "internalType": "address",
          "name": "operator",
          "type": "address"
        }
      ],
      "name": "ERC721InvalidOperator",
      "type": "error"
    },
    {
      "inputs": [
        {
          "internalType": "address",
          "name": "owner",
          "type": "address"
        }
      ],
      "name": "ERC721InvalidOwner",
      "type": "error"
    },
    {
      "inputs": [
        {
          "internalType": "address",
          "name": "receiver",
          "type": "address"
        }
      ],
      "name": "ERC721InvalidReceiver",
      "type": "error"
    },
    {
      "inputs": [
        {
          "internalType": "address",
          "name": "sender",
          "type": "address"
        }
      ],
      "name": "ERC721InvalidSender",
      "type": "error"
    },
    {
      "inputs": [
        {
          "internalType": "uint256",
          "name": "tokenId",
          "type": "uint256"
        }
      ],
      "name": "ERC721NonexistentToken",
      "type": "error"
    },
    {
      "inputs": [
        {
          "internalType": "address",
          "name": "owner",
          "type": "address"
        }
      ],
      "name": "OwnableInvalidOwner",
      "type": "error"
    },
    {
      "inputs": [
        {
          "internalType": "address",
          "name": "account",
          "type": "address"
        }
      ],
      "name": "OwnableUnauthorizedAccount",
      "type": "error"
    },
    {
      "anonymous": false,
      "inputs": [
        {
          "indexed": true,
          "internalType": "address",
          "name": "owner",
          "type": "address"
        },
        {
          "indexed": true,
          "internalType": "address",
          "name": "approved",
          "type": "address"
        },
        {
          "indexed": true,
          "internalType": "uint256",
          "name": "tokenId",
          "type": "uint256"
        }
      ],
      "name": "Approval",
      "type": "event"
    },
    {
      "anonymous": false,
      "inputs": [
        {
          "indexed": true,
          "internalType": "address",
          "name": "owner",
          "type": "address"
        },
        {
          "indexed": true,
          "internalType": "address",
          "name": "operator",
          "type": "address"
        },
        {
          "indexed": false,
          "internalType": "bool",
          "name": "approved",
          "type": "bool"
        }
      ],
      "name": "ApprovalForAll",
      "type": "event"
    },
    {
      "anonymous": false,
      "inputs": [
        {
          "indexed": false,
          "internalType": "uint256",
          "name": "_fromTokenId",
          "type": "uint256"
        },
        {
          "indexed": false,
          "internalType": "uint256",
          "name": "_toTokenId",
          "type": "uint256"
        }
      ],
      "name": "BatchMetadataUpdate",
      "type": "event"
    },
    {
      "anonymous": false,
      "inputs": [
        {
          "indexed": false,
          "internalType": "uint256",
          "name": "tokenID",
          "type": "uint256"
        },
        {
          "indexed": false,
          "internalType": "uint256",
          "name": "offer",
          "type": "uint256"
        },
        {
          "indexed": false,
          "internalType": "address",
          "name": "bidder",
          "type": "address"
        }
      ],
      "name": "Bid",
      "type": "event"
    },
    {
      "anonymous": false,
      "inputs": [
        {
          "indexed": false,
          "internalType": "string",
          "name": "name",
          "type": "string"
        },
        {
          "indexed": false,
          "internalType": "uint256",
          "name": "collectionID",
          "type": "uint256"
        },
        {
          "indexed": false,
          "internalType": "uint256",
          "name": "price",
          "type": "uint256"
        },
        {
          "indexed": false,
          "internalType": "address",
          "name": "buyer",
          "type": "address"
        }
      ],
      "name": "BuyCollection",
      "type": "event"
    },
    {
      "anonymous": false,
      "inputs": [
        {
          "indexed": false,
          "internalType": "uint256",
          "name": "tokenID",
          "type": "uint256"
        },
        {
          "indexed": false,
          "internalType": "address",
          "name": "owner",
          "type": "address"
        }
      ],
      "name": "CancelAuction",
      "type": "event"
    },
    {
      "anonymous": false,
      "inputs": [
        {
          "indexed": false,
          "internalType": "string",
          "name": "name",
          "type": "string"
        },
        {
          "indexed": false,
          "internalType": "uint256",
          "name": "tokenID",
          "type": "uint256"
        },
        {
          "indexed": false,
          "internalType": "uint256",
          "name": "collectionID",
          "type": "uint256"
        }
      ],
      "name": "ChangeCollectionOfNFT",
      "type": "event"
    },
    {
      "anonymous": false,
      "inputs": [
        {
          "indexed": false,
          "internalType": "string",
          "name": "name",
          "type": "string"
        },
        {
          "indexed": false,
          "internalType": "uint256",
          "name": "collectionID",
          "type": "uint256"
        },
        {
          "indexed": false,
          "internalType": "uint256",
          "name": "price",
          "type": "uint256"
        },
        {
          "indexed": false,
          "internalType": "address",
          "name": "owner",
          "type": "address"
        }
      ],
      "name": "CollectionSale",
      "type": "event"
    },
    {
      "anonymous": false,
      "inputs": [
        {
          "indexed": false,
          "internalType": "string",
          "name": "name",
          "type": "string"
        },
        {
          "indexed": false,
          "internalType": "string",
          "name": "description",
          "type": "string"
        },
        {
          "indexed": false,
          "internalType": "address",
          "name": "owner",
          "type": "address"
        }
      ],
      "name": "CreateCollection",
      "type": "event"
    },
    {
      "anonymous": false,
      "inputs": [
        {
          "indexed": false,
          "internalType": "string",
          "name": "name",
          "type": "string"
        },
        {
          "indexed": false,
          "internalType": "string",
          "name": "description",
          "type": "string"
        },
        {
          "indexed": false,
          "internalType": "uint256",
          "name": "collectionID",
          "type": "uint256"
        },
        {
          "indexed": false,
          "internalType": "address",
          "name": "owner",
          "type": "address"
        },
        {
          "indexed": false,
          "internalType": "string",
          "name": "tokenURI",
          "type": "string"
        }
      ],
      "name": "CreateNFT",
      "type": "event"
    },
    {
      "anonymous": false,
      "inputs": [
        {
          "indexed": false,
          "internalType": "uint256",
          "name": "tokenID",
          "type": "uint256"
        },
        {
          "indexed": false,
          "internalType": "uint256",
          "name": "price",
          "type": "uint256"
        },
        {
          "indexed": false,
          "internalType": "address",
          "name": "buyer",
          "type": "address"
        }
      ],
      "name": "FinishAuction",
      "type": "event"
    },
    {
      "anonymous": false,
      "inputs": [
        {
          "indexed": false,
          "internalType": "string",
          "name": "name",
          "type": "string"
        },
        {
          "indexed": false,
          "internalType": "uint256",
          "name": "collectionID",
          "type": "uint256"
        },
        {
          "indexed": false,
          "internalType": "uint256",
          "name": "price",
          "type": "uint256"
        },
        {
          "indexed": false,
          "internalType": "address",
          "name": "owner",
          "type": "address"
        }
      ],
      "name": "ListNFT",
      "type": "event"
    },
    {
      "anonymous": false,
      "inputs": [
        {
          "indexed": false,
          "internalType": "uint256",
          "name": "_tokenId",
          "type": "uint256"
        }
      ],
      "name": "MetadataUpdate",
      "type": "event"
    },
    {
      "anonymous": false,
      "inputs": [
        {
          "indexed": true,
          "internalType": "address",
          "name": "previousOwner",
          "type": "address"
        },
        {
          "indexed": true,
          "internalType": "address",
          "name": "newOwner",
          "type": "address"
        }
      ],
      "name": "OwnershipTransferred",
      "type": "event"
    },
    {
      "anonymous": false,
      "inputs": [
        {
          "indexed": true,
          "internalType": "address",
          "name": "from",
          "type": "address"
        },
        {
          "indexed": true,
          "internalType": "address",
          "name": "to",
          "type": "address"
        },
        {
          "indexed": true,
          "internalType": "uint256",
          "name": "tokenId",
          "type": "uint256"
        }
      ],
      "name": "Transfer",
      "type": "event"
    },
    {
      "inputs": [
        {
          "internalType": "uint256",
          "name": "",
          "type": "uint256"
        }
      ],
      "name": "Collections",
      "outputs": [
        {
          "internalType": "uint256",
          "name": "collectionId",
          "type": "uint256"
        },
        {
          "internalType": "uint256",
          "name": "bundle_price",
          "type": "uint256"
        },
        {
          "internalType": "string",
          "name": "name",
          "type": "string"
        },
        {
          "internalType": "string",
          "name": "description",
          "type": "string"
        },
        {
          "internalType": "address payable",
          "name": "owner",
          "type": "address"
        },
        {
          "internalType": "bool",
          "name": "isListed",
          "type": "bool"
        }
      ],
      "stateMutability": "view",
      "type": "function"
    },
    {
      "inputs": [
        {
          "internalType": "uint256",
          "name": "",
          "type": "uint256"
        }
      ],
      "name": "NFTs",
      "outputs": [
        {
          "internalType": "string",
          "name": "name",
          "type": "string"
        },
        {
          "internalType": "string",
          "name": "description",
          "type": "string"
        },
        {
          "internalType": "uint256",
          "name": "collectionID",
          "type": "uint256"
        },
        {
          "internalType": "bool",
          "name": "isListed",
          "type": "bool"
        },
        {
          "internalType": "address payable",
          "name": "owner",
          "type": "address"
        },
        {
          "internalType": "address payable",
          "name": "highestBidder",
          "type": "address"
        },
        {
          "internalType": "uint256",
          "name": "highestBid",
          "type": "uint256"
        },
        {
          "internalType": "uint256",
          "name": "startingPrice",
          "type": "uint256"
        },
        {
          "internalType": "uint256",
          "name": "deadline",
          "type": "uint256"
        }
      ],
      "stateMutability": "view",
      "type": "function"
    },
    {
      "inputs": [
        {
          "internalType": "address",
          "name": "to",
          "type": "address"
        },
        {
          "internalType": "uint256",
          "name": "tokenId",
          "type": "uint256"
        }
      ],
      "name": "approve",
      "outputs": [],
      "stateMutability": "nonpayable",
      "type": "function"
    },
    {
      "inputs": [
        {
          "internalType": "address",
          "name": "owner",
          "type": "address"
        }
      ],
      "name": "balanceOf",
      "outputs": [
        {
          "internalType": "uint256",
          "name": "",
          "type": "uint256"
        }
      ],
      "stateMutability": "view",
      "type": "function"
    },
    {
      "inputs": [
        {
          "internalType": "uint256",
          "name": "_tokenID",
          "type": "uint256"
        }
      ],
      "name": "bid",
      "outputs": [],
      "stateMutability": "payable",
      "type": "function"
    },
    {
      "inputs": [
        {
          "internalType": "uint256",
          "name": "_collectionID",
          "type": "uint256"
        }
      ],
      "name": "buyCollection",
      "outputs": [],
      "stateMutability": "payable",
      "type": "function"
    },
    {
      "inputs": [
        {
          "internalType": "uint256",
          "name": "_tokenID",
          "type": "uint256"
        }
      ],
      "name": "cancelAuction",
      "outputs": [],
      "stateMutability": "nonpayable",
      "type": "function"
    },
    {
      "inputs": [
        {
          "internalType": "string",
          "name": "_name",
          "type": "string"
        },
        {
          "internalType": "string",
          "name": "_description",
          "type": "string"
        }
      ],
      "name": "createCollection",
      "outputs": [],
      "stateMutability": "nonpayable",
      "type": "function"
    },
    {
      "inputs": [
        {
          "internalType": "string",
          "name": "_tokenURI",
          "type": "string"
        },
        {
          "internalType": "string",
          "name": "_name",
          "type": "string"
        },
        {
          "internalType": "string",
          "name": "_description",
          "type": "string"
        },
        {
          "internalType": "uint256",
          "name": "_collectionID",
          "type": "uint256"
        }
      ],
      "name": "createNFT",
      "outputs": [],
      "stateMutability": "nonpayable",
      "type": "function"
    },
    {
      "inputs": [
        {
          "internalType": "uint256",
          "name": "_tokenID",
          "type": "uint256"
        }
      ],
      "name": "finishAuction",
      "outputs": [],
      "stateMutability": "nonpayable",
      "type": "function"
    },
    {
      "inputs": [
        {
          "internalType": "uint256",
          "name": "tokenId",
          "type": "uint256"
        }
      ],
      "name": "getApproved",
      "outputs": [
        {
          "internalType": "address",
          "name": "",
          "type": "address"
        }
      ],
      "stateMutability": "view",
      "type": "function"
    },
    {
      "inputs": [
        {
          "internalType": "address",
          "name": "owner",
          "type": "address"
        },
        {
          "internalType": "address",
          "name": "operator",
          "type": "address"
        }
      ],
      "name": "isApprovedForAll",
      "outputs": [
        {
          "internalType": "bool",
          "name": "",
          "type": "bool"
        }
      ],
      "stateMutability": "view",
      "type": "function"
    },
    {
      "inputs": [],
      "name": "name",
      "outputs": [
        {
          "internalType": "string",
          "name": "",
          "type": "string"
        }
      ],
      "stateMutability": "view",
      "type": "function"
    },
    {
      "inputs": [],
      "name": "owner",
      "outputs": [
        {
          "internalType": "address",
          "name": "",
          "type": "address"
        }
      ],
      "stateMutability": "view",
      "type": "function"
    },
    {
      "inputs": [
        {
          "internalType": "uint256",
          "name": "tokenId",
          "type": "uint256"
        }
      ],
      "name": "ownerOf",
      "outputs": [
        {
          "internalType": "address",
          "name": "",
          "type": "address"
        }
      ],
      "stateMutability": "view",
      "type": "function"
    },
    {
      "inputs": [],
      "name": "renounceOwnership",
      "outputs": [],
      "stateMutability": "nonpayable",
      "type": "function"
    },
    {
      "inputs": [
        {
          "internalType": "address",
          "name": "from",
          "type": "address"
        },
        {
          "internalType": "address",
          "name": "to",
          "type": "address"
        },
        {
          "internalType": "uint256",
          "name": "tokenId",
          "type": "uint256"
        }
      ],
      "name": "safeTransferFrom",
      "outputs": [],
      "stateMutability": "nonpayable",
      "type": "function"
    },
    {
      "inputs": [
        {
          "internalType": "address",
          "name": "from",
          "type": "address"
        },
        {
          "internalType": "address",
          "name": "to",
          "type": "address"
        },
        {
          "internalType": "uint256",
          "name": "tokenId",
          "type": "uint256"
        },
        {
          "internalType": "bytes",
          "name": "data",
          "type": "bytes"
        }
      ],
      "name": "safeTransferFrom",
      "outputs": [],
      "stateMutability": "nonpayable",
      "type": "function"
    },
    {
      "inputs": [
        {
          "internalType": "uint256",
          "name": "_tokenID",
          "type": "uint256"
        },
        {
          "internalType": "uint256",
          "name": "_startingPrice",
          "type": "uint256"
        },
        {
          "internalType": "uint256",
          "name": "_deadline",
          "type": "uint256"
        }
      ],
      "name": "sellNFT",
      "outputs": [],
      "stateMutability": "nonpayable",
      "type": "function"
    },
    {
      "inputs": [
        {
          "internalType": "address",
          "name": "operator",
          "type": "address"
        },
        {
          "internalType": "bool",
          "name": "approved",
          "type": "bool"
        }
      ],
      "name": "setApprovalForAll",
      "outputs": [],
      "stateMutability": "nonpayable",
      "type": "function"
    },
    {
      "inputs": [
        {
          "internalType": "uint256",
          "name": "_collectionID",
          "type": "uint256"
        },
        {
          "internalType": "uint256",
          "name": "_tokenID",
          "type": "uint256"
        }
      ],
      "name": "setCollection",
      "outputs": [],
      "stateMutability": "nonpayable",
      "type": "function"
    },
    {
      "inputs": [
        {
          "internalType": "uint256",
          "name": "_collectionID",
          "type": "uint256"
        },
        {
          "internalType": "uint256",
          "name": "_price",
          "type": "uint256"
        }
      ],
      "name": "setCollectionPrice",
      "outputs": [],
      "stateMutability": "nonpayable",
      "type": "function"
    },
    {
      "inputs": [
        {
          "internalType": "uint256",
          "name": "_feePercent",
          "type": "uint256"
        }
      ],
      "name": "setFeePercent",
      "outputs": [],
      "stateMutability": "nonpayable",
      "type": "function"
    },
    {
      "inputs": [
        {
          "internalType": "bytes4",
          "name": "interfaceId",
          "type": "bytes4"
        }
      ],
      "name": "supportsInterface",
      "outputs": [
        {
          "internalType": "bool",
          "name": "",
          "type": "bool"
        }
      ],
      "stateMutability": "view",
      "type": "function"
    },
    {
      "inputs": [],
      "name": "symbol",
      "outputs": [
        {
          "internalType": "string",
          "name": "",
          "type": "string"
        }
      ],
      "stateMutability": "view",
      "type": "function"
    },
    {
      "inputs": [
        {
          "internalType": "uint256",
          "name": "tokenId",
          "type": "uint256"
        }
      ],
      "name": "tokenURI",
      "outputs": [
        {
          "internalType": "string",
          "name": "",
          "type": "string"
        }
      ],
      "stateMutability": "view",
      "type": "function"
    },
    {
      "inputs": [
        {
          "internalType": "address",
          "name": "from",
          "type": "address"
        },
        {
          "internalType": "address",
          "name": "to",
          "type": "address"
        },
        {
          "internalType": "uint256",
          "name": "tokenId",
          "type": "uint256"
        }
      ],
      "name": "transferFrom",
      "outputs": [],
      "stateMutability": "nonpayable",
      "type": "function"
    },
    {
      "inputs": [
        {
          "internalType": "address",
          "name": "newOwner",
          "type": "address"
        }
      ],
      "name": "transferOwnership",
      "outputs": [],
      "stateMutability": "nonpayable",
      "type": "function"
    }
  ],
  "bytecode": "0x6080604052600160085560016009556005600a553480156200002057600080fd5b50336040518060400160405280600781526020017f4245455f4e4654000000000000000000000000000000000000000000000000008152506040518060400160405280600681526020017f4245454e4654000000000000000000000000000000000000000000000000000081525081600090816200009f919062000481565b508060019081620000b1919062000481565b505050600073ffffffffffffffffffffffffffffffffffffffff168173ffffffffffffffffffffffffffffffffffffffff1603620001295760006040517f1e4fbdf7000000000000000000000000000000000000000000000000000000008152600401620001209190620005ad565b60405180910390fd5b6200013a816200014160201b60201c565b50620005ca565b6000600760009054906101000a900473ffffffffffffffffffffffffffffffffffffffff16905081600760006101000a81548173ffffffffffffffffffffffffffffffffffffffff021916908373ffffffffffffffffffffffffffffffffffffffff1602179055508173ffffffffffffffffffffffffffffffffffffffff168173ffffffffffffffffffffffffffffffffffffffff167f8be0079c531659141344cd1fd0a4f28419497f9722a3daafe3b4186f6b6457e060405160405180910390a35050565b600081519050919050565b7f4e487b7100000000000000000000000000000000000000000000000000000000600052604160045260246000fd5b7f4e487b7100000000000000000000000000000000000000000000000000000000600052602260045260246000fd5b600060028204905060018216806200028957607f821691505b6020821081036200029f576200029e62000241565b5b50919050565b60008190508160005260206000209050919050565b60006020601f8301049050919050565b600082821b905092915050565b600060088302620003097fffffffffffffffffffffffffffffffffffffffffffffffffffffffffffffffff82620002ca565b620003158683620002ca565b95508019841693508086168417925050509392505050565b6000819050919050565b6000819050919050565b6000620003626200035c62000356846200032d565b62000337565b6200032d565b9050919050565b6000819050919050565b6200037e8362000341565b620003966200038d8262000369565b848454620002d7565b825550505050565b600090565b620003ad6200039e565b620003ba81848462000373565b505050565b5b81811015620003e257620003d6600082620003a3565b600181019050620003c0565b5050565b601f8211156200043157620003fb81620002a5565b6200040684620002ba565b8101602085101562000416578190505b6200042e6200042585620002ba565b830182620003bf565b50505b505050565b600082821c905092915050565b6000620004566000198460080262000436565b1980831691505092915050565b600062000471838362000443565b9150826002028217905092915050565b6200048c8262000207565b67ffffffffffffffff811115620004a857620004a762000212565b5b620004b4825462000270565b620004c1828285620003e6565b600060209050601f831160018114620004f95760008415620004e4578287015190505b620004f0858262000463565b86555062000560565b601f1984166200050986620002a5565b60005b8281101562000533578489015182556001820191506020850194506020810190506200050c565b868310156200055357848901516200054f601f89168262000443565b8355505b6001600288020188555050505b505050505050565b600073ffffffffffffffffffffffffffffffffffffffff82169050919050565b6000620005958262000568565b9050919050565b620005a78162000588565b82525050565b6000602082019050620005c460008301846200059c565b92915050565b6156ca80620005da6000396000f3fe6080604052600436106101b75760003560e01c80638da5cb5b116100ec578063b88d4fde1161008a578063ca1e217f11610064578063ca1e217f14610607578063cf266ed014610630578063e985e9c514610659578063f2fde38b14610696576101b7565b8063b88d4fde14610578578063c7d31b30146105a1578063c87b56dd146105ca576101b7565b806397819609116100c6578063978196091461049f578063a22cb465146104e1578063a3c0b95b1461050a578063b3d84ae81461054f576101b7565b80638da5cb5b1461042057806395d89b411461044b57806396b5a75514610476576101b7565b806323b872dd116101595780636352211e116101335780636352211e1461036657806370a08231146103a3578063715018a6146103e05780637ce3489b146103f7576101b7565b806323b872dd146102f857806342842e0e14610321578063454a2ab31461034a576101b7565b8063095ea7b311610195578063095ea7b314610261578063110243001461028a578063176b9b75146102a6578063214eac4f146102cf576101b7565b806301ffc9a7146101bc57806306fdde03146101f9578063081812fc14610224575b600080fd5b3480156101c857600080fd5b506101e360048036038101906101de9190613d08565b6106bf565b6040516101f09190613d50565b60405180910390f35b34801561020557600080fd5b5061020e6106d1565b60405161021b9190613dfb565b60405180910390f35b34801561023057600080fd5b5061024b60048036038101906102469190613e53565b610763565b6040516102589190613ec1565b60405180910390f35b34801561026d57600080fd5b5061028860048036038101906102839190613f08565b61077f565b005b6102a4600480360381019061029f9190613e53565b610795565b005b3480156102b257600080fd5b506102cd60048036038101906102c8919061407d565b610c53565b005b3480156102db57600080fd5b506102f660048036038101906102f191906140f5565b610ddc565b005b34801561030457600080fd5b5061031f600480360381019061031a9190614148565b61100a565b005b34801561032d57600080fd5b5061034860048036038101906103439190614148565b61110c565b005b610364600480360381019061035f9190613e53565b61112c565b005b34801561037257600080fd5b5061038d60048036038101906103889190613e53565b611527565b60405161039a9190613ec1565b60405180910390f35b3480156103af57600080fd5b506103ca60048036038101906103c5919061419b565b611539565b6040516103d791906141d7565b60405180910390f35b3480156103ec57600080fd5b506103f56115f3565b005b34801561040357600080fd5b5061041e60048036038101906104199190613e53565b611607565b005b34801561042c57600080fd5b50610435611619565b6040516104429190613ec1565b60405180910390f35b34801561045757600080fd5b50610460611643565b60405161046d9190613dfb565b60405180910390f35b34801561048257600080fd5b5061049d60048036038101906104989190613e53565b6116d5565b005b3480156104ab57600080fd5b506104c660048036038101906104c19190613e53565b611a58565b6040516104d896959493929190614213565b60405180910390f35b3480156104ed57600080fd5b50610508600480360381019061050391906142ae565b611bd1565b005b34801561051657600080fd5b50610531600480360381019061052c9190613e53565b611be7565b604051610546999897969594939291906142ee565b60405180910390f35b34801561055b57600080fd5b5061057660048036038101906105719190614389565b611d92565b005b34801561058457600080fd5b5061059f600480360381019061059a919061446a565b611f49565b005b3480156105ad57600080fd5b506105c860048036038101906105c39190614389565b611f66565b005b3480156105d657600080fd5b506105f160048036038101906105ec9190613e53565b6120aa565b6040516105fe9190613dfb565b60405180910390f35b34801561061357600080fd5b5061062e600480360381019061062991906144ed565b6120bc565b005b34801561063c57600080fd5b5061065760048036038101906106529190613e53565b612342565b005b34801561066557600080fd5b50610680600480360381019061067b91906145a8565b612935565b60405161068d9190613d50565b60405180910390f35b3480156106a257600080fd5b506106bd60048036038101906106b8919061419b565b6129c9565b005b60006106ca82612a4f565b9050919050565b6060600080546106e090614617565b80601f016020809104026020016040519081016040528092919081815260200182805461070c90614617565b80156107595780601f1061072e57610100808354040283529160200191610759565b820191906000526020600020905b81548152906001019060200180831161073c57829003601f168201915b5050505050905090565b600061076e82612ab0565b5061077882612b38565b9050919050565b610791828261078c612b75565b612b7d565b5050565b600c60008281526020019081526020016000206001015434146107ed576040517f08c379a00000000000000000000000000000000000000000000000000000000081526004016107e490614694565b60405180910390fd5b6000600c60008381526020019081526020016000206005018054905011610849576040517f08c379a000000000000000000000000000000000000000000000000000000000815260040161084090614700565b60405180910390fd5b600c600082815260200190815260200160002060040160009054906101000a900473ffffffffffffffffffffffffffffffffffffffff1673ffffffffffffffffffffffffffffffffffffffff163373ffffffffffffffffffffffffffffffffffffffff16036108ed576040517f08c379a00000000000000000000000000000000000000000000000000000000081526004016108e490614792565b60405180910390fd5b600c600082815260200190815260200160002060060160009054906101000a900460ff16610950576040517f08c379a0000000000000000000000000000000000000000000000000000000008152600401610947906147fe565b60405180910390fd5b600c600082815260200190815260200160002060040160009054906101000a900473ffffffffffffffffffffffffffffffffffffffff1673ffffffffffffffffffffffffffffffffffffffff166108fc6064600a54346109b0919061484d565b6109ba91906148be565b346109c591906148ef565b9081150290604051600060405180830381858888f193505050501580156109f0573d6000803e3d6000fd5b5033600c600083815260200190815260200160002060040160006101000a81548173ffffffffffffffffffffffffffffffffffffffff021916908373ffffffffffffffffffffffffffffffffffffffff1602179055506000600c60008381526020019081526020016000206001018190555060005b600c600083815260200190815260200160002060050180549050811015610bfd5760003090508073ffffffffffffffffffffffffffffffffffffffff166323b872dd600c600086815260200190815260200160002060040160009054906101000a900473ffffffffffffffffffffffffffffffffffffffff1633600c60008881526020019081526020016000206005018681548110610b0757610b06614923565b5b90600052602060002001546040518463ffffffff1660e01b8152600401610b30939291906149b1565b600060405180830381600087803b158015610b4a57600080fd5b505af1158015610b5e573d6000803e3d6000fd5b5050505033600b6000600c60008781526020019081526020016000206005018581548110610b8f57610b8e614923565b5b9060005260206000200154815260200190815260200160002060030160016101000a81548173ffffffffffffffffffffffffffffffffffffffff021916908373ffffffffffffffffffffffffffffffffffffffff160217905550508080610bf5906149e8565b915050610a65565b507f1fd204582798bf40ce10d346fddb40f4a1342e109f2f5f6be0e93233b6d23175600c6000838152602001908152602001600020600201823433604051610c489493929190614ac9565b60405180910390a150565b6000600954905060096000815480929190610c6d906149e8565b919050555060606040518060e00160405280838152602001600081526020018581526020018481526020013373ffffffffffffffffffffffffffffffffffffffff16815260200182815260200160001515815250600c600084815260200190815260200160002060008201518160000155602082015181600101556040820151816002019081610cfd9190614ca2565b506060820151816003019081610d139190614ca2565b5060808201518160040160006101000a81548173ffffffffffffffffffffffffffffffffffffffff021916908373ffffffffffffffffffffffffffffffffffffffff16021790555060a0820151816005019080519060200190610d77929190613c32565b5060c08201518160060160006101000a81548160ff0219169083151502179055509050507f8d9333398133fd32e9b6c3ae7b7e39995f3b1998ab23f7e08108ad8cd3fb64f7848433604051610dce93929190614d74565b60405180910390a150505050565b60003090503373ffffffffffffffffffffffffffffffffffffffff168173ffffffffffffffffffffffffffffffffffffffff16636352211e866040518263ffffffff1660e01b8152600401610e3191906141d7565b602060405180830381865afa158015610e4e573d6000803e3d6000fd5b505050506040513d601f19601f82011682018060405250810190610e729190614dce565b73ffffffffffffffffffffffffffffffffffffffff1614610ec8576040517f08c379a0000000000000000000000000000000000000000000000000000000008152600401610ebf90614e6d565b60405180910390fd5b8073ffffffffffffffffffffffffffffffffffffffff166323b872dd3330876040518463ffffffff1660e01b8152600401610f0593929190614e8d565b600060405180830381600087803b158015610f1f57600080fd5b505af1158015610f33573d6000803e3d6000fd5b505050506001600b600086815260200190815260200160002060030160006101000a81548160ff02191690831515021790555082600b60008681526020019081526020016000206006018190555081600b6000868152602001908152602001600020600701819055507f88873a73df71e02b4146afd074e1524b2ff9dfdd4ed01b0cf9d5cc7f457f0bb0600b6000868152602001908152602001600020600001600b6000878152602001908152602001600020600201548533604051610ffc9493929190614ac9565b60405180910390a150505050565b600073ffffffffffffffffffffffffffffffffffffffff168273ffffffffffffffffffffffffffffffffffffffff160361107c5760006040517f64a0ae920000000000000000000000000000000000000000000000000000000081526004016110739190613ec1565b60405180910390fd5b6000611090838361108b612b75565b612b8f565b90508373ffffffffffffffffffffffffffffffffffffffff168173ffffffffffffffffffffffffffffffffffffffff1614611106578382826040517f64283d7b0000000000000000000000000000000000000000000000000000000081526004016110fd93929190614ec4565b60405180910390fd5b50505050565b61112783838360405180602001604052806000815250611f49565b505050565b60011515600b600083815260200190815260200160002060030160009054906101000a900460ff16151514611196576040517f08c379a000000000000000000000000000000000000000000000000000000000815260040161118d90614f47565b60405180910390fd5b600b600082815260200190815260200160002060030160019054906101000a900473ffffffffffffffffffffffffffffffffffffffff1673ffffffffffffffffffffffffffffffffffffffff163373ffffffffffffffffffffffffffffffffffffffff160361123a576040517f08c379a000000000000000000000000000000000000000000000000000000000815260040161123190614fb3565b60405180910390fd5b600b6000828152602001908152602001600020600501543411611292576040517f08c379a000000000000000000000000000000000000000000000000000000000815260040161128990615045565b60405180910390fd5b600b60008281526020019081526020016000206007015442106112ea576040517f08c379a00000000000000000000000000000000000000000000000000000000081526004016112e1906150b1565b60405180910390fd5b600b6000828152602001908152602001600020600601543411611342576040517f08c379a000000000000000000000000000000000000000000000000000000000815260040161133990615143565b60405180910390fd5b600b600082815260200190815260200160002060040160009054906101000a900473ffffffffffffffffffffffffffffffffffffffff1673ffffffffffffffffffffffffffffffffffffffff163373ffffffffffffffffffffffffffffffffffffffff16036113e6576040517f08c379a00000000000000000000000000000000000000000000000000000000081526004016113dd906151d5565b60405180910390fd5b600b600082815260200190815260200160002060040160009054906101000a900473ffffffffffffffffffffffffffffffffffffffff1673ffffffffffffffffffffffffffffffffffffffff166108fc600b6000848152602001908152602001600020600501549081150290604051600060405180830381858888f19350505050158015611478573d6000803e3d6000fd5b5033600b600083815260200190815260200160002060040160006101000a81548173ffffffffffffffffffffffffffffffffffffffff021916908373ffffffffffffffffffffffffffffffffffffffff16021790555034600b6000838152602001908152602001600020600501819055507ffd7cfbd219ff1e7365436fb2930a026fa6704a1e0bb39ad104f0485c8c01124d81343360405161151c939291906151f5565b60405180910390a150565b600061153282612ab0565b9050919050565b60008073ffffffffffffffffffffffffffffffffffffffff168273ffffffffffffffffffffffffffffffffffffffff16036115ac5760006040517f89c62b640000000000000000000000000000000000000000000000000000000081526004016115a39190613ec1565b60405180910390fd5b600360008373ffffffffffffffffffffffffffffffffffffffff1673ffffffffffffffffffffffffffffffffffffffff168152602001908152602001600020549050919050565b6115fb612da9565b6116056000612e30565b565b61160f612da9565b80600a8190555050565b6000600760009054906101000a900473ffffffffffffffffffffffffffffffffffffffff16905090565b60606001805461165290614617565b80601f016020809104026020016040519081016040528092919081815260200182805461167e90614617565b80156116cb5780601f106116a0576101008083540402835291602001916116cb565b820191906000526020600020905b8154815290600101906020018083116116ae57829003601f168201915b5050505050905090565b60003090503373ffffffffffffffffffffffffffffffffffffffff16600b600084815260200190815260200160002060030160019054906101000a900473ffffffffffffffffffffffffffffffffffffffff1673ffffffffffffffffffffffffffffffffffffffff161461177e576040517f08c379a000000000000000000000000000000000000000000000000000000000815260040161177590614e6d565b60405180910390fd5b60011515600b600084815260200190815260200160002060030160009054906101000a900460ff161515146117e8576040517f08c379a00000000000000000000000000000000000000000000000000000000081526004016117df90614f47565b60405180910390fd5b600b6000838152602001908152602001600020600701544210611840576040517f08c379a000000000000000000000000000000000000000000000000000000000815260040161183790615278565b60405180910390fd5b6000600b600084815260200190815260200160002060030160006101000a81548160ff021916908315150217905550600b600083815260200190815260200160002060040160009054906101000a900473ffffffffffffffffffffffffffffffffffffffff1673ffffffffffffffffffffffffffffffffffffffff166108fc600b6000858152602001908152602001600020600501549081150290604051600060405180830381858888f19350505050158015611901573d6000803e3d6000fd5b506000600b600084815260200190815260200160002060040160006101000a81548173ffffffffffffffffffffffffffffffffffffffff021916908373ffffffffffffffffffffffffffffffffffffffff1602179055506000600b6000848152602001908152602001600020600501819055506000600b6000848152602001908152602001600020600601819055506000600b6000848152602001908152602001600020600701819055508073ffffffffffffffffffffffffffffffffffffffff166323b872dd3033856040518463ffffffff1660e01b81526004016119e993929190614e8d565b600060405180830381600087803b158015611a0357600080fd5b505af1158015611a17573d6000803e3d6000fd5b505050507f2a6445a420b30cbabfffd85287bfa6c0c8f9b5f65d48637922da74abf357e52b8233604051611a4c929190615298565b60405180910390a15050565b600c602052806000526040600020600091509050806000015490806001015490806002018054611a8790614617565b80601f0160208091040260200160405190810160405280929190818152602001828054611ab390614617565b8015611b005780601f10611ad557610100808354040283529160200191611b00565b820191906000526020600020905b815481529060010190602001808311611ae357829003601f168201915b505050505090806003018054611b1590614617565b80601f0160208091040260200160405190810160405280929190818152602001828054611b4190614617565b8015611b8e5780601f10611b6357610100808354040283529160200191611b8e565b820191906000526020600020905b815481529060010190602001808311611b7157829003601f168201915b5050505050908060040160009054906101000a900473ffffffffffffffffffffffffffffffffffffffff16908060060160009054906101000a900460ff16905086565b611be3611bdc612b75565b8383612ef6565b5050565b600b602052806000526040600020600091509050806000018054611c0a90614617565b80601f0160208091040260200160405190810160405280929190818152602001828054611c3690614617565b8015611c835780601f10611c5857610100808354040283529160200191611c83565b820191906000526020600020905b815481529060010190602001808311611c6657829003601f168201915b505050505090806001018054611c9890614617565b80601f0160208091040260200160405190810160405280929190818152602001828054611cc490614617565b8015611d115780601f10611ce657610100808354040283529160200191611d11565b820191906000526020600020905b815481529060010190602001808311611cf457829003601f168201915b5050505050908060020154908060030160009054906101000a900460ff16908060030160019054906101000a900473ffffffffffffffffffffffffffffffffffffffff16908060040160009054906101000a900473ffffffffffffffffffffffffffffffffffffffff16908060050154908060060154908060070154905089565b600c600083815260200190815260200160002060040160009054906101000a900473ffffffffffffffffffffffffffffffffffffffff1673ffffffffffffffffffffffffffffffffffffffff163373ffffffffffffffffffffffffffffffffffffffff1614611e36576040517f08c379a0000000000000000000000000000000000000000000000000000000008152600401611e2d90615333565b60405180910390fd5b600b600082815260200190815260200160002060030160019054906101000a900473ffffffffffffffffffffffffffffffffffffffff1673ffffffffffffffffffffffffffffffffffffffff163373ffffffffffffffffffffffffffffffffffffffff1614611eda576040517f08c379a0000000000000000000000000000000000000000000000000000000008152600401611ed190614e6d565b60405180910390fd5b81600b6000838152602001908152602001600020600201819055507f1ed088d87d8d67ac9591209cde49a77c73b21313744cd7d5e87daa4abb6e016d600b60008381526020019081526020016000206000018284604051611f3d93929190615353565b60405180910390a15050565b611f5484848461100a565b611f6084848484613065565b50505050565b600c600083815260200190815260200160002060040160009054906101000a900473ffffffffffffffffffffffffffffffffffffffff1673ffffffffffffffffffffffffffffffffffffffff163373ffffffffffffffffffffffffffffffffffffffff161461200a576040517f08c379a000000000000000000000000000000000000000000000000000000000815260040161200190615333565b60405180910390fd5b6001600c600084815260200190815260200160002060060160006101000a81548160ff02191690831515021790555080600c6000848152602001908152602001600020600101819055507f5ff22f3fb09f6b746c34c230dee663f3985b9ada169b4ee122f0b11b62192317600c600084815260200190815260200160002060020183833360405161209e9493929190614ac9565b60405180910390a15050565b60606120b58261321c565b9050919050565b6009548110612100576040517f08c379a00000000000000000000000000000000000000000000000000000000081526004016120f790615403565b60405180910390fd5b600060085490506008600081548092919061211a906149e8565b9190505550612129338261332f565b612133818661334d565b6040518061012001604052808581526020018481526020018381526020016000151581526020013373ffffffffffffffffffffffffffffffffffffffff168152602001600073ffffffffffffffffffffffffffffffffffffffff16815260200160008152602001600081526020016000815250600b600083815260200190815260200160002060008201518160000190816121ce9190614ca2565b5060208201518160010190816121e49190614ca2565b506040820151816002015560608201518160030160006101000a81548160ff02191690831515021790555060808201518160030160016101000a81548173ffffffffffffffffffffffffffffffffffffffff021916908373ffffffffffffffffffffffffffffffffffffffff16021790555060a08201518160040160006101000a81548173ffffffffffffffffffffffffffffffffffffffff021916908373ffffffffffffffffffffffffffffffffffffffff16021790555060c0820151816005015560e082015181600601556101008201518160070155905050600c60008381526020019081526020016000206005018190806001815401808255809150506001900390600052602060002001600090919091909150557fb5832cfe8c236fc0c9d45da4403a07e69d045e29cc6a044440c8b74193c302398484843389604051612333959493929190615423565b60405180910390a15050505050565b600030905060011515600b600084815260200190815260200160002060030160009054906101000a900460ff161515146123b1576040517f08c379a00000000000000000000000000000000000000000000000000000000081526004016123a890614f47565b60405180910390fd5b600b6000838152602001908152602001600020600701544210612409576040517f08c379a000000000000000000000000000000000000000000000000000000000815260040161240090615278565b60405180910390fd5b8073ffffffffffffffffffffffffffffffffffffffff166323b872dd30600b600086815260200190815260200160002060040160009054906101000a900473ffffffffffffffffffffffffffffffffffffffff16856040518463ffffffff1660e01b815260040161247c9392919061548b565b600060405180830381600087803b15801561249657600080fd5b505af11580156124aa573d6000803e3d6000fd5b50505050600b600083815260200190815260200160002060030160019054906101000a900473ffffffffffffffffffffffffffffffffffffffff1673ffffffffffffffffffffffffffffffffffffffff166108fc6064600a5461250d91906148be565b600161251991906148ef565b600b60008681526020019081526020016000206005015461253a919061484d565b9081150290604051600060405180830381858888f19350505050158015612565573d6000803e3d6000fd5b506000600b600084815260200190815260200160002060030160006101000a81548160ff021916908315150217905550600b600083815260200190815260200160002060040160009054906101000a900473ffffffffffffffffffffffffffffffffffffffff16600b600084815260200190815260200160002060030160016101000a81548173ffffffffffffffffffffffffffffffffffffffff021916908373ffffffffffffffffffffffffffffffffffffffff1602179055506000600b600084815260200190815260200160002060040160006101000a81548173ffffffffffffffffffffffffffffffffffffffff021916908373ffffffffffffffffffffffffffffffffffffffff1602179055506000600b6000848152602001908152602001600020600501819055506000600b6000848152602001908152602001600020600601819055506000600b6000848152602001908152602001600020600701819055506000600b6000848152602001908152602001600020600201819055506000600190505b600c6000600b6000868152602001908152602001600020600201548152602001908152602001600020600501805490508110156128a95782600c6000600b6000878152602001908152602001600020600201548152602001908152602001600020600501828154811061276357612762614923565b5b90600052602060002001540361289657600c6000600b60008681526020019081526020016000206002015481526020019081526020016000206005016001600c6000600b6000888152602001908152602001600020600201548152602001908152602001600020600501805490506127db91906148ef565b815481106127ec576127eb614923565b5b9060005260206000200154600c6000600b6000878152602001908152602001600020600201548152602001908152602001600020600501828154811061283557612834614923565b5b9060005260206000200181905550600c6000600b600086815260200190815260200160002060020154815260200190815260200160002060050180548061287f5761287e6154c2565b5b600190038181906000526020600020016000905590555b80806128a1906149e8565b9150506126ed565b507f4ea2fdadd03e0e3510b288d57b8a0447b14722836988ae3762a2cd6d60ec96c282600b600085815260200190815260200160002060050154600b600086815260200190815260200160002060040160009054906101000a900473ffffffffffffffffffffffffffffffffffffffff16604051612929939291906154f1565b60405180910390a15050565b6000600560008473ffffffffffffffffffffffffffffffffffffffff1673ffffffffffffffffffffffffffffffffffffffff16815260200190815260200160002060008373ffffffffffffffffffffffffffffffffffffffff1673ffffffffffffffffffffffffffffffffffffffff16815260200190815260200160002060009054906101000a900460ff16905092915050565b6129d1612da9565b600073ffffffffffffffffffffffffffffffffffffffff168173ffffffffffffffffffffffffffffffffffffffff1603612a435760006040517f1e4fbdf7000000000000000000000000000000000000000000000000000000008152600401612a3a9190613ec1565b60405180910390fd5b612a4c81612e30565b50565b6000634906490660e01b7bffffffffffffffffffffffffffffffffffffffffffffffffffffffff1916827bffffffffffffffffffffffffffffffffffffffffffffffffffffffff19161480612aa95750612aa8826133a9565b5b9050919050565b600080612abc8361348b565b9050600073ffffffffffffffffffffffffffffffffffffffff168173ffffffffffffffffffffffffffffffffffffffff1603612b2f57826040517f7e273289000000000000000000000000000000000000000000000000000000008152600401612b2691906141d7565b60405180910390fd5b80915050919050565b60006004600083815260200190815260200160002060009054906101000a900473ffffffffffffffffffffffffffffffffffffffff169050919050565b600033905090565b612b8a83838360016134c8565b505050565b600080612b9b8461348b565b9050600073ffffffffffffffffffffffffffffffffffffffff168373ffffffffffffffffffffffffffffffffffffffff1614612bdd57612bdc81848661368d565b5b600073ffffffffffffffffffffffffffffffffffffffff168173ffffffffffffffffffffffffffffffffffffffff1614612c6e57612c1f6000856000806134c8565b6001600360008373ffffffffffffffffffffffffffffffffffffffff1673ffffffffffffffffffffffffffffffffffffffff168152602001908152602001600020600082825403925050819055505b600073ffffffffffffffffffffffffffffffffffffffff168573ffffffffffffffffffffffffffffffffffffffff1614612cf1576001600360008773ffffffffffffffffffffffffffffffffffffffff1673ffffffffffffffffffffffffffffffffffffffff168152602001908152602001600020600082825401925050819055505b846002600086815260200190815260200160002060006101000a81548173ffffffffffffffffffffffffffffffffffffffff021916908373ffffffffffffffffffffffffffffffffffffffff160217905550838573ffffffffffffffffffffffffffffffffffffffff168273ffffffffffffffffffffffffffffffffffffffff167fddf252ad1be2c89b69c2b068fc378daa952ba7f163c4a11628f55a4df523b3ef60405160405180910390a4809150509392505050565b612db1612b75565b73ffffffffffffffffffffffffffffffffffffffff16612dcf611619565b73ffffffffffffffffffffffffffffffffffffffff1614612e2e57612df2612b75565b6040517f118cdaa7000000000000000000000000000000000000000000000000000000008152600401612e259190613ec1565b60405180910390fd5b565b6000600760009054906101000a900473ffffffffffffffffffffffffffffffffffffffff16905081600760006101000a81548173ffffffffffffffffffffffffffffffffffffffff021916908373ffffffffffffffffffffffffffffffffffffffff1602179055508173ffffffffffffffffffffffffffffffffffffffff168173ffffffffffffffffffffffffffffffffffffffff167f8be0079c531659141344cd1fd0a4f28419497f9722a3daafe3b4186f6b6457e060405160405180910390a35050565b600073ffffffffffffffffffffffffffffffffffffffff168273ffffffffffffffffffffffffffffffffffffffff1603612f6757816040517f5b08ba18000000000000000000000000000000000000000000000000000000008152600401612f5e9190613ec1565b60405180910390fd5b80600560008573ffffffffffffffffffffffffffffffffffffffff1673ffffffffffffffffffffffffffffffffffffffff16815260200190815260200160002060008473ffffffffffffffffffffffffffffffffffffffff1673ffffffffffffffffffffffffffffffffffffffff16815260200190815260200160002060006101000a81548160ff0219169083151502179055508173ffffffffffffffffffffffffffffffffffffffff168373ffffffffffffffffffffffffffffffffffffffff167f17307eab39ab6107e8899845ad3d59bd9653f200f220920489ca2b5937696c31836040516130589190613d50565b60405180910390a3505050565b60008373ffffffffffffffffffffffffffffffffffffffff163b1115613216578273ffffffffffffffffffffffffffffffffffffffff1663150b7a026130a9612b75565b8685856040518563ffffffff1660e01b81526004016130cb949392919061557d565b6020604051808303816000875af192505050801561310757506040513d601f19601f8201168201806040525081019061310491906155de565b60015b61318b573d8060008114613137576040519150601f19603f3d011682016040523d82523d6000602084013e61313c565b606091505b50600081510361318357836040517f64a0ae9200000000000000000000000000000000000000000000000000000000815260040161317a9190613ec1565b60405180910390fd5b805181602001fd5b63150b7a0260e01b7bffffffffffffffffffffffffffffffffffffffffffffffffffffffff1916817bffffffffffffffffffffffffffffffffffffffffffffffffffffffff19161461321457836040517f64a0ae9200000000000000000000000000000000000000000000000000000000815260040161320b9190613ec1565b60405180910390fd5b505b50505050565b606061322782612ab0565b50600060066000848152602001908152602001600020805461324890614617565b80601f016020809104026020016040519081016040528092919081815260200182805461327490614617565b80156132c15780601f10613296576101008083540402835291602001916132c1565b820191906000526020600020905b8154815290600101906020018083116132a457829003601f168201915b5050505050905060006132d2613751565b905060008151036132e757819250505061332a565b60008251111561331c578082604051602001613304929190615647565b6040516020818303038152906040529250505061332a565b61332584613768565b925050505b919050565b6133498282604051806020016040528060008152506137d1565b5050565b8060066000848152602001908152602001600020908161336d9190614ca2565b507ff8e1a15aba9398e019f0b49df1a4fde98ee17ae345cb5f6b5e2c27f5033e8ce78260405161339d91906141d7565b60405180910390a15050565b60007f80ac58cd000000000000000000000000000000000000000000000000000000007bffffffffffffffffffffffffffffffffffffffffffffffffffffffff1916827bffffffffffffffffffffffffffffffffffffffffffffffffffffffff1916148061347457507f5b5e139f000000000000000000000000000000000000000000000000000000007bffffffffffffffffffffffffffffffffffffffffffffffffffffffff1916827bffffffffffffffffffffffffffffffffffffffffffffffffffffffff1916145b806134845750613483826137ed565b5b9050919050565b60006002600083815260200190815260200160002060009054906101000a900473ffffffffffffffffffffffffffffffffffffffff169050919050565b80806135015750600073ffffffffffffffffffffffffffffffffffffffff168273ffffffffffffffffffffffffffffffffffffffff1614155b1561363557600061351184612ab0565b9050600073ffffffffffffffffffffffffffffffffffffffff168373ffffffffffffffffffffffffffffffffffffffff161415801561357c57508273ffffffffffffffffffffffffffffffffffffffff168173ffffffffffffffffffffffffffffffffffffffff1614155b801561358f575061358d8184612935565b155b156135d157826040517fa9fbf51f0000000000000000000000000000000000000000000000000000000081526004016135c89190613ec1565b60405180910390fd5b811561363357838573ffffffffffffffffffffffffffffffffffffffff168273ffffffffffffffffffffffffffffffffffffffff167f8c5be1e5ebec7d5bd14f71427d1e84f3dd0314c0f7b2291e5b200ac8c7c3b92560405160405180910390a45b505b836004600085815260200190815260200160002060006101000a81548173ffffffffffffffffffffffffffffffffffffffff021916908373ffffffffffffffffffffffffffffffffffffffff16021790555050505050565b613698838383613857565b61374c57600073ffffffffffffffffffffffffffffffffffffffff168373ffffffffffffffffffffffffffffffffffffffff160361370d57806040517f7e27328900000000000000000000000000000000000000000000000000000000815260040161370491906141d7565b60405180910390fd5b81816040517f177e802f00000000000000000000000000000000000000000000000000000000815260040161374392919061566b565b60405180910390fd5b505050565b606060405180602001604052806000815250905090565b606061377382612ab0565b50600061377e613751565b9050600081511161379e57604051806020016040528060008152506137c9565b806137a884613918565b6040516020016137b9929190615647565b6040516020818303038152906040525b915050919050565b6137db83836139e6565b6137e86000848484613065565b505050565b60007f01ffc9a7000000000000000000000000000000000000000000000000000000007bffffffffffffffffffffffffffffffffffffffffffffffffffffffff1916827bffffffffffffffffffffffffffffffffffffffffffffffffffffffff1916149050919050565b60008073ffffffffffffffffffffffffffffffffffffffff168373ffffffffffffffffffffffffffffffffffffffff161415801561390f57508273ffffffffffffffffffffffffffffffffffffffff168473ffffffffffffffffffffffffffffffffffffffff1614806138d057506138cf8484612935565b5b8061390e57508273ffffffffffffffffffffffffffffffffffffffff166138f683612b38565b73ffffffffffffffffffffffffffffffffffffffff16145b5b90509392505050565b60606000600161392784613adf565b01905060008167ffffffffffffffff81111561394657613945613f52565b5b6040519080825280601f01601f1916602001820160405280156139785781602001600182028036833780820191505090505b509050600082602001820190505b6001156139db578080600190039150507f3031323334353637383961626364656600000000000000000000000000000000600a86061a8153600a85816139cf576139ce61488f565b5b04945060008503613986575b819350505050919050565b600073ffffffffffffffffffffffffffffffffffffffff168273ffffffffffffffffffffffffffffffffffffffff1603613a585760006040517f64a0ae92000000000000000000000000000000000000000000000000000000008152600401613a4f9190613ec1565b60405180910390fd5b6000613a6683836000612b8f565b9050600073ffffffffffffffffffffffffffffffffffffffff168173ffffffffffffffffffffffffffffffffffffffff1614613ada5760006040517f73c6ac6e000000000000000000000000000000000000000000000000000000008152600401613ad19190613ec1565b60405180910390fd5b505050565b600080600090507a184f03e93ff9f4daa797ed6e38ed64bf6a1f0100000000000000008310613b3d577a184f03e93ff9f4daa797ed6e38ed64bf6a1f0100000000000000008381613b3357613b3261488f565b5b0492506040810190505b6d04ee2d6d415b85acef81000000008310613b7a576d04ee2d6d415b85acef81000000008381613b7057613b6f61488f565b5b0492506020810190505b662386f26fc100008310613ba957662386f26fc100008381613b9f57613b9e61488f565b5b0492506010810190505b6305f5e1008310613bd2576305f5e1008381613bc857613bc761488f565b5b0492506008810190505b6127108310613bf7576127108381613bed57613bec61488f565b5b0492506004810190505b60648310613c1a5760648381613c1057613c0f61488f565b5b0492506002810190505b600a8310613c29576001810190505b80915050919050565b828054828255906000526020600020908101928215613c6e579160200282015b82811115613c6d578251825591602001919060010190613c52565b5b509050613c7b9190613c7f565b5090565b5b80821115613c98576000816000905550600101613c80565b5090565b6000604051905090565b600080fd5b600080fd5b60007fffffffff0000000000000000000000000000000000000000000000000000000082169050919050565b613ce581613cb0565b8114613cf057600080fd5b50565b600081359050613d0281613cdc565b92915050565b600060208284031215613d1e57613d1d613ca6565b5b6000613d2c84828501613cf3565b91505092915050565b60008115159050919050565b613d4a81613d35565b82525050565b6000602082019050613d656000830184613d41565b92915050565b600081519050919050565b600082825260208201905092915050565b60005b83811015613da5578082015181840152602081019050613d8a565b60008484015250505050565b6000601f19601f8301169050919050565b6000613dcd82613d6b565b613dd78185613d76565b9350613de7818560208601613d87565b613df081613db1565b840191505092915050565b60006020820190508181036000830152613e158184613dc2565b905092915050565b6000819050919050565b613e3081613e1d565b8114613e3b57600080fd5b50565b600081359050613e4d81613e27565b92915050565b600060208284031215613e6957613e68613ca6565b5b6000613e7784828501613e3e565b91505092915050565b600073ffffffffffffffffffffffffffffffffffffffff82169050919050565b6000613eab82613e80565b9050919050565b613ebb81613ea0565b82525050565b6000602082019050613ed66000830184613eb2565b92915050565b613ee581613ea0565b8114613ef057600080fd5b50565b600081359050613f0281613edc565b92915050565b60008060408385031215613f1f57613f1e613ca6565b5b6000613f2d85828601613ef3565b9250506020613f3e85828601613e3e565b9150509250929050565b600080fd5b600080fd5b7f4e487b7100000000000000000000000000000000000000000000000000000000600052604160045260246000fd5b613f8a82613db1565b810181811067ffffffffffffffff82111715613fa957613fa8613f52565b5b80604052505050565b6000613fbc613c9c565b9050613fc88282613f81565b919050565b600067ffffffffffffffff821115613fe857613fe7613f52565b5b613ff182613db1565b9050602081019050919050565b82818337600083830152505050565b600061402061401b84613fcd565b613fb2565b90508281526020810184848401111561403c5761403b613f4d565b5b614047848285613ffe565b509392505050565b600082601f83011261406457614063613f48565b5b813561407484826020860161400d565b91505092915050565b6000806040838503121561409457614093613ca6565b5b600083013567ffffffffffffffff8111156140b2576140b1613cab565b5b6140be8582860161404f565b925050602083013567ffffffffffffffff8111156140df576140de613cab565b5b6140eb8582860161404f565b9150509250929050565b60008060006060848603121561410e5761410d613ca6565b5b600061411c86828701613e3e565b935050602061412d86828701613e3e565b925050604061413e86828701613e3e565b9150509250925092565b60008060006060848603121561416157614160613ca6565b5b600061416f86828701613ef3565b935050602061418086828701613ef3565b925050604061419186828701613e3e565b9150509250925092565b6000602082840312156141b1576141b0613ca6565b5b60006141bf84828501613ef3565b91505092915050565b6141d181613e1d565b82525050565b60006020820190506141ec60008301846141c8565b92915050565b60006141fd82613e80565b9050919050565b61420d816141f2565b82525050565b600060c08201905061422860008301896141c8565b61423560208301886141c8565b81810360408301526142478187613dc2565b9050818103606083015261425b8186613dc2565b905061426a6080830185614204565b61427760a0830184613d41565b979650505050505050565b61428b81613d35565b811461429657600080fd5b50565b6000813590506142a881614282565b92915050565b600080604083850312156142c5576142c4613ca6565b5b60006142d385828601613ef3565b92505060206142e485828601614299565b9150509250929050565b6000610120820190508181036000830152614309818c613dc2565b9050818103602083015261431d818b613dc2565b905061432c604083018a6141c8565b6143396060830189613d41565b6143466080830188614204565b61435360a0830187614204565b61436060c08301866141c8565b61436d60e08301856141c8565b61437b6101008301846141c8565b9a9950505050505050505050565b600080604083850312156143a05761439f613ca6565b5b60006143ae85828601613e3e565b92505060206143bf85828601613e3e565b9150509250929050565b600067ffffffffffffffff8211156143e4576143e3613f52565b5b6143ed82613db1565b9050602081019050919050565b600061440d614408846143c9565b613fb2565b90508281526020810184848401111561442957614428613f4d565b5b614434848285613ffe565b509392505050565b600082601f83011261445157614450613f48565b5b81356144618482602086016143fa565b91505092915050565b6000806000806080858703121561448457614483613ca6565b5b600061449287828801613ef3565b94505060206144a387828801613ef3565b93505060406144b487828801613e3e565b925050606085013567ffffffffffffffff8111156144d5576144d4613cab565b5b6144e18782880161443c565b91505092959194509250565b6000806000806080858703121561450757614506613ca6565b5b600085013567ffffffffffffffff81111561452557614524613cab565b5b6145318782880161404f565b945050602085013567ffffffffffffffff81111561455257614551613cab565b5b61455e8782880161404f565b935050604085013567ffffffffffffffff81111561457f5761457e613cab565b5b61458b8782880161404f565b925050606061459c87828801613e3e565b91505092959194509250565b600080604083850312156145bf576145be613ca6565b5b60006145cd85828601613ef3565b92505060206145de85828601613ef3565b9150509250929050565b7f4e487b7100000000000000000000000000000000000000000000000000000000600052602260045260246000fd5b6000600282049050600182168061462f57607f821691505b602082108103614642576146416145e8565b5b50919050565b7f546865207072696365206973206e6f7420636f72726563740000000000000000600082015250565b600061467e601883613d76565b915061468982614648565b602082019050919050565b600060208201905081810360008301526146ad81614671565b9050919050565b7f54686520636f6c6c656374696f6e20697320656d707479000000000000000000600082015250565b60006146ea601783613d76565b91506146f5826146b4565b602082019050919050565b60006020820190508181036000830152614719816146dd565b9050919050565b7f596f752061726520746865206f776e6572206f66207468697320636f6c6c656360008201527f74696f6e00000000000000000000000000000000000000000000000000000000602082015250565b600061477c602483613d76565b915061478782614720565b604082019050919050565b600060208201905081810360008301526147ab8161476f565b9050919050565b7f54686520636f6c6c656374696f6e206973206e6f74206c697374656400000000600082015250565b60006147e8601c83613d76565b91506147f3826147b2565b602082019050919050565b60006020820190508181036000830152614817816147db565b9050919050565b7f4e487b7100000000000000000000000000000000000000000000000000000000600052601160045260246000fd5b600061485882613e1d565b915061486383613e1d565b925082820261487181613e1d565b915082820484148315176148885761488761481e565b5b5092915050565b7f4e487b7100000000000000000000000000000000000000000000000000000000600052601260045260246000fd5b60006148c982613e1d565b91506148d483613e1d565b9250826148e4576148e361488f565b5b828204905092915050565b60006148fa82613e1d565b915061490583613e1d565b925082820390508181111561491d5761491c61481e565b5b92915050565b7f4e487b7100000000000000000000000000000000000000000000000000000000600052603260045260246000fd5b6000819050919050565b600061497761497261496d84613e80565b614952565b613e80565b9050919050565b60006149898261495c565b9050919050565b600061499b8261497e565b9050919050565b6149ab81614990565b82525050565b60006060820190506149c660008301866149a2565b6149d36020830185613eb2565b6149e060408301846141c8565b949350505050565b60006149f382613e1d565b91507fffffffffffffffffffffffffffffffffffffffffffffffffffffffffffffffff8203614a2557614a2461481e565b5b600182019050919050565b60008190508160005260206000209050919050565b60008154614a5281614617565b614a5c8186613d76565b94506001821660008114614a775760018114614a8d57614ac0565b60ff198316865281151560200286019350614ac0565b614a9685614a30565b60005b83811015614ab857815481890152600182019150602081019050614a99565b808801955050505b50505092915050565b60006080820190508181036000830152614ae38187614a45565b9050614af260208301866141c8565b614aff60408301856141c8565b614b0c6060830184613eb2565b95945050505050565b60006020601f8301049050919050565b600082821b905092915050565b600060088302614b627fffffffffffffffffffffffffffffffffffffffffffffffffffffffffffffffff82614b25565b614b6c8683614b25565b95508019841693508086168417925050509392505050565b6000614b9f614b9a614b9584613e1d565b614952565b613e1d565b9050919050565b6000819050919050565b614bb983614b84565b614bcd614bc582614ba6565b848454614b32565b825550505050565b600090565b614be2614bd5565b614bed818484614bb0565b505050565b5b81811015614c1157614c06600082614bda565b600181019050614bf3565b5050565b601f821115614c5657614c2781614a30565b614c3084614b15565b81016020851015614c3f578190505b614c53614c4b85614b15565b830182614bf2565b50505b505050565b600082821c905092915050565b6000614c7960001984600802614c5b565b1980831691505092915050565b6000614c928383614c68565b9150826002028217905092915050565b614cab82613d6b565b67ffffffffffffffff811115614cc457614cc3613f52565b5b614cce8254614617565b614cd9828285614c15565b600060209050601f831160018114614d0c5760008415614cfa578287015190505b614d048582614c86565b865550614d6c565b601f198416614d1a86614a30565b60005b82811015614d4257848901518255600182019150602085019450602081019050614d1d565b86831015614d5f5784890151614d5b601f891682614c68565b8355505b6001600288020188555050505b505050505050565b60006060820190508181036000830152614d8e8186613dc2565b90508181036020830152614da28185613dc2565b9050614db16040830184613eb2565b949350505050565b600081519050614dc881613edc565b92915050565b600060208284031215614de457614de3613ca6565b5b6000614df284828501614db9565b91505092915050565b7f596f7520617265206e6f7420746865206f776e6572206f662074686973204e4660008201527f5400000000000000000000000000000000000000000000000000000000000000602082015250565b6000614e57602183613d76565b9150614e6282614dfb565b604082019050919050565b60006020820190508181036000830152614e8681614e4a565b9050919050565b6000606082019050614ea26000830186613eb2565b614eaf6020830185613eb2565b614ebc60408301846141c8565b949350505050565b6000606082019050614ed96000830186613eb2565b614ee660208301856141c8565b614ef36040830184613eb2565b949350505050565b7f54686973204e4654206973206e6f74206c697374656400000000000000000000600082015250565b6000614f31601683613d76565b9150614f3c82614efb565b602082019050919050565b60006020820190508181036000830152614f6081614f24565b9050919050565b7f596f752063616e6e6f7420626964206f6e20796f7572206f776e204e46540000600082015250565b6000614f9d601e83613d76565b9150614fa882614f67565b602082019050919050565b60006020820190508181036000830152614fcc81614f90565b9050919050565b7f596f757220626964206973206c6f776572207468616e2074686520686967686560008201527f7374206269640000000000000000000000000000000000000000000000000000602082015250565b600061502f602683613d76565b915061503a82614fd3565b604082019050919050565b6000602082019050818103600083015261505e81615022565b9050919050565b7f5468652061756374696f6e2068617320656e6465640000000000000000000000600082015250565b600061509b601583613d76565b91506150a682615065565b602082019050919050565b600060208201905081810360008301526150ca8161508e565b9050919050565b7f596f757220626964206973206c6f776572207468616e2074686520737461727460008201527f696e672070726963650000000000000000000000000000000000000000000000602082015250565b600061512d602983613d76565b9150615138826150d1565b604082019050919050565b6000602082019050818103600083015261515c81615120565b9050919050565b7f596f752061726520616c7265616479207468652068696768657374206269646460008201527f6572000000000000000000000000000000000000000000000000000000000000602082015250565b60006151bf602283613d76565b91506151ca82615163565b604082019050919050565b600060208201905081810360008301526151ee816151b2565b9050919050565b600060608201905061520a60008301866141c8565b61521760208301856141c8565b6152246040830184613eb2565b949350505050565b7f5468652061756374696f6e20616c72656164792066696e697368656400000000600082015250565b6000615262601c83613d76565b915061526d8261522c565b602082019050919050565b6000602082019050818103600083015261529181615255565b9050919050565b60006040820190506152ad60008301856141c8565b6152ba6020830184613eb2565b9392505050565b7f596f7520617265206e6f7420746865206f776e6572206f66207468697320636f60008201527f6c6c656374696f6e000000000000000000000000000000000000000000000000602082015250565b600061531d602883613d76565b9150615328826152c1565b604082019050919050565b6000602082019050818103600083015261534c81615310565b9050919050565b6000606082019050818103600083015261536d8186614a45565b905061537c60208301856141c8565b61538960408301846141c8565b949350505050565b7f5468657265206973206e6f20636f6c6c656374696f6e20796f752073656c656360008201527f7400000000000000000000000000000000000000000000000000000000000000602082015250565b60006153ed602183613d76565b91506153f882615391565b604082019050919050565b6000602082019050818103600083015261541c816153e0565b9050919050565b600060a082019050818103600083015261543d8188613dc2565b905081810360208301526154518187613dc2565b905061546060408301866141c8565b61546d6060830185613eb2565b818103608083015261547f8184613dc2565b90509695505050505050565b60006060820190506154a06000830186613eb2565b6154ad60208301856149a2565b6154ba60408301846141c8565b949350505050565b7f4e487b7100000000000000000000000000000000000000000000000000000000600052603160045260246000fd5b600060608201905061550660008301866141c8565b61551360208301856141c8565b61552060408301846149a2565b949350505050565b600081519050919050565b600082825260208201905092915050565b600061554f82615528565b6155598185615533565b9350615569818560208601613d87565b61557281613db1565b840191505092915050565b60006080820190506155926000830187613eb2565b61559f6020830186613eb2565b6155ac60408301856141c8565b81810360608301526155be8184615544565b905095945050505050565b6000815190506155d881613cdc565b92915050565b6000602082840312156155f4576155f3613ca6565b5b6000615602848285016155c9565b91505092915050565b600081905092915050565b600061562182613d6b565b61562b818561560b565b935061563b818560208601613d87565b80840191505092915050565b60006156538285615616565b915061565f8284615616565b91508190509392505050565b60006040820190506156806000830185613eb2565b61568d60208301846141c8565b939250505056fea264697066735822122059bae59d488872c8d653820f3f787a0bb9e170ebaca87d361e5f30ed9d04cbd964736f6c63430008140033",
  "linkReferences": {},
  "deployedLinkReferences": {}
}