{
  "_format": "hh-sol-artifact-1",
  "contractName": "NFT_Marketplace",
  "sourceName": "src/backend/contracts/NFT_Marketplace.sol",
  "abi": [
    {
      "inputs": [],
      "stateMutability": "nonpayable",
      "type": "constructor"
    },
    {
      "inputs": [
        {
          "internalType": "address",
          "name": "sender",
          "type": "address"
        },
        {
          "internalType": "uint256",
          "name": "tokenId",
          "type": "uint256"
        },
        {
          "internalType": "address",
          "name": "owner",
          "type": "address"
        }
      ],
      "name": "ERC721IncorrectOwner",
      "type": "error"
    },
    {
      "inputs": [
        {
          "internalType": "address",
          "name": "operator",
          "type": "address"
        },
        {
          "internalType": "uint256",
          "name": "tokenId",
          "type": "uint256"
        }
      ],
      "name": "ERC721InsufficientApproval",
      "type": "error"
    },
    {
      "inputs": [
        {
          "internalType": "address",
          "name": "approver",
          "type": "address"
        }
      ],
      "name": "ERC721InvalidApprover",
      "type": "error"
    },
    {
      "inputs": [
        {
          "internalType": "address",
          "name": "operator",
          "type": "address"
        }
      ],
      "name": "ERC721InvalidOperator",
      "type": "error"
    },
    {
      "inputs": [
        {
          "internalType": "address",
          "name": "owner",
          "type": "address"
        }
      ],
      "name": "ERC721InvalidOwner",
      "type": "error"
    },
    {
      "inputs": [
        {
          "internalType": "address",
          "name": "receiver",
          "type": "address"
        }
      ],
      "name": "ERC721InvalidReceiver",
      "type": "error"
    },
    {
      "inputs": [
        {
          "internalType": "address",
          "name": "sender",
          "type": "address"
        }
      ],
      "name": "ERC721InvalidSender",
      "type": "error"
    },
    {
      "inputs": [
        {
          "internalType": "uint256",
          "name": "tokenId",
          "type": "uint256"
        }
      ],
      "name": "ERC721NonexistentToken",
      "type": "error"
    },
    {
      "inputs": [
        {
          "internalType": "address",
          "name": "owner",
          "type": "address"
        }
      ],
      "name": "OwnableInvalidOwner",
      "type": "error"
    },
    {
      "inputs": [
        {
          "internalType": "address",
          "name": "account",
          "type": "address"
        }
      ],
      "name": "OwnableUnauthorizedAccount",
      "type": "error"
    },
    {
      "anonymous": false,
      "inputs": [
        {
          "indexed": true,
          "internalType": "address",
          "name": "owner",
          "type": "address"
        },
        {
          "indexed": true,
          "internalType": "address",
          "name": "approved",
          "type": "address"
        },
        {
          "indexed": true,
          "internalType": "uint256",
          "name": "tokenId",
          "type": "uint256"
        }
      ],
      "name": "Approval",
      "type": "event"
    },
    {
      "anonymous": false,
      "inputs": [
        {
          "indexed": true,
          "internalType": "address",
          "name": "owner",
          "type": "address"
        },
        {
          "indexed": true,
          "internalType": "address",
          "name": "operator",
          "type": "address"
        },
        {
          "indexed": false,
          "internalType": "bool",
          "name": "approved",
          "type": "bool"
        }
      ],
      "name": "ApprovalForAll",
      "type": "event"
    },
    {
      "anonymous": false,
      "inputs": [
        {
          "indexed": false,
          "internalType": "uint256",
          "name": "_fromTokenId",
          "type": "uint256"
        },
        {
          "indexed": false,
          "internalType": "uint256",
          "name": "_toTokenId",
          "type": "uint256"
        }
      ],
      "name": "BatchMetadataUpdate",
      "type": "event"
    },
    {
      "anonymous": false,
      "inputs": [
        {
          "indexed": false,
          "internalType": "uint256",
          "name": "tokenID",
          "type": "uint256"
        },
        {
          "indexed": false,
          "internalType": "uint256",
          "name": "offer",
          "type": "uint256"
        },
        {
          "indexed": false,
          "internalType": "address",
          "name": "bidder",
          "type": "address"
        }
      ],
      "name": "Bid",
      "type": "event"
    },
    {
      "anonymous": false,
      "inputs": [
        {
          "indexed": false,
          "internalType": "string",
          "name": "name",
          "type": "string"
        },
        {
          "indexed": false,
          "internalType": "uint256",
          "name": "collectionID",
          "type": "uint256"
        },
        {
          "indexed": false,
          "internalType": "uint256",
          "name": "price",
          "type": "uint256"
        },
        {
          "indexed": false,
          "internalType": "address",
          "name": "buyer",
          "type": "address"
        }
      ],
      "name": "BuyCollection",
      "type": "event"
    },
    {
      "anonymous": false,
      "inputs": [
        {
          "indexed": false,
          "internalType": "uint256",
          "name": "tokenID",
          "type": "uint256"
        },
        {
          "indexed": false,
          "internalType": "address",
          "name": "owner",
          "type": "address"
        }
      ],
      "name": "CancelAuction",
      "type": "event"
    },
    {
      "anonymous": false,
      "inputs": [
        {
          "indexed": false,
          "internalType": "string",
          "name": "name",
          "type": "string"
        },
        {
          "indexed": false,
          "internalType": "uint256",
          "name": "tokenID",
          "type": "uint256"
        },
        {
          "indexed": false,
          "internalType": "uint256",
          "name": "collectionID",
          "type": "uint256"
        }
      ],
      "name": "ChangeCollectionOfNFT",
      "type": "event"
    },
    {
      "anonymous": false,
      "inputs": [
        {
          "indexed": false,
          "internalType": "string",
          "name": "name",
          "type": "string"
        },
        {
          "indexed": false,
          "internalType": "uint256",
          "name": "collectionID",
          "type": "uint256"
        },
        {
          "indexed": false,
          "internalType": "uint256",
          "name": "price",
          "type": "uint256"
        },
        {
          "indexed": false,
          "internalType": "address",
          "name": "owner",
          "type": "address"
        }
      ],
      "name": "CollectionSale",
      "type": "event"
    },
    {
      "anonymous": false,
      "inputs": [
        {
          "indexed": false,
          "internalType": "string",
          "name": "name",
          "type": "string"
        },
        {
          "indexed": false,
          "internalType": "string",
          "name": "description",
          "type": "string"
        },
        {
          "indexed": false,
          "internalType": "address",
          "name": "owner",
          "type": "address"
        }
      ],
      "name": "CreateCollection",
      "type": "event"
    },
    {
      "anonymous": false,
      "inputs": [
        {
          "indexed": false,
          "internalType": "string",
          "name": "name",
          "type": "string"
        },
        {
          "indexed": false,
          "internalType": "string",
          "name": "description",
          "type": "string"
        },
        {
          "indexed": false,
          "internalType": "uint256",
          "name": "collectionID",
          "type": "uint256"
        },
        {
          "indexed": false,
          "internalType": "address",
          "name": "owner",
          "type": "address"
        },
        {
          "indexed": false,
          "internalType": "string",
          "name": "tokenURI",
          "type": "string"
        }
      ],
      "name": "CreateNFT",
      "type": "event"
    },
    {
      "anonymous": false,
      "inputs": [
        {
          "indexed": false,
          "internalType": "uint256",
          "name": "tokenID",
          "type": "uint256"
        },
        {
          "indexed": false,
          "internalType": "uint256",
          "name": "price",
          "type": "uint256"
        },
        {
          "indexed": false,
          "internalType": "address",
          "name": "buyer",
          "type": "address"
        }
      ],
      "name": "FinishAuction",
      "type": "event"
    },
    {
      "anonymous": false,
      "inputs": [
        {
          "indexed": false,
          "internalType": "string",
          "name": "name",
          "type": "string"
        },
        {
          "indexed": false,
          "internalType": "uint256",
          "name": "collectionID",
          "type": "uint256"
        },
        {
          "indexed": false,
          "internalType": "uint256",
          "name": "price",
          "type": "uint256"
        },
        {
          "indexed": false,
          "internalType": "address",
          "name": "owner",
          "type": "address"
        }
      ],
      "name": "ListNFT",
      "type": "event"
    },
    {
      "anonymous": false,
      "inputs": [
        {
          "indexed": false,
          "internalType": "uint256",
          "name": "_tokenId",
          "type": "uint256"
        }
      ],
      "name": "MetadataUpdate",
      "type": "event"
    },
    {
      "anonymous": false,
      "inputs": [
        {
          "indexed": true,
          "internalType": "address",
          "name": "previousOwner",
          "type": "address"
        },
        {
          "indexed": true,
          "internalType": "address",
          "name": "newOwner",
          "type": "address"
        }
      ],
      "name": "OwnershipTransferred",
      "type": "event"
    },
    {
      "anonymous": false,
      "inputs": [
        {
          "indexed": true,
          "internalType": "address",
          "name": "from",
          "type": "address"
        },
        {
          "indexed": true,
          "internalType": "address",
          "name": "to",
          "type": "address"
        },
        {
          "indexed": true,
          "internalType": "uint256",
          "name": "tokenId",
          "type": "uint256"
        }
      ],
      "name": "Transfer",
      "type": "event"
    },
    {
      "inputs": [
        {
          "internalType": "uint256",
          "name": "",
          "type": "uint256"
        }
      ],
      "name": "Collections",
      "outputs": [
        {
          "internalType": "uint256",
          "name": "collectionId",
          "type": "uint256"
        },
        {
          "internalType": "uint256",
          "name": "bundle_price",
          "type": "uint256"
        },
        {
          "internalType": "string",
          "name": "name",
          "type": "string"
        },
        {
          "internalType": "string",
          "name": "description",
          "type": "string"
        },
        {
          "internalType": "address payable",
          "name": "owner",
          "type": "address"
        },
        {
          "internalType": "bool",
          "name": "isListed",
          "type": "bool"
        }
      ],
      "stateMutability": "view",
      "type": "function"
    },
    {
      "inputs": [],
      "name": "NFTCounter",
      "outputs": [
        {
          "internalType": "uint256",
          "name": "",
          "type": "uint256"
        }
      ],
      "stateMutability": "view",
      "type": "function"
    },
    {
      "inputs": [
        {
          "internalType": "uint256",
          "name": "",
          "type": "uint256"
        }
      ],
      "name": "NFTs",
      "outputs": [
        {
          "internalType": "string",
          "name": "name",
          "type": "string"
        },
        {
          "internalType": "string",
          "name": "description",
          "type": "string"
        },
        {
          "internalType": "uint256",
          "name": "collectionID",
          "type": "uint256"
        },
        {
          "internalType": "bool",
          "name": "isListed",
          "type": "bool"
        },
        {
          "internalType": "address payable",
          "name": "owner",
          "type": "address"
        },
        {
          "internalType": "address payable",
          "name": "highestBidder",
          "type": "address"
        },
        {
          "internalType": "uint256",
          "name": "highestBid",
          "type": "uint256"
        },
        {
          "internalType": "uint256",
          "name": "startingPrice",
          "type": "uint256"
        },
        {
          "internalType": "uint256",
          "name": "deadline",
          "type": "uint256"
        }
      ],
      "stateMutability": "view",
      "type": "function"
    },
    {
      "inputs": [
        {
          "internalType": "address",
          "name": "to",
          "type": "address"
        },
        {
          "internalType": "uint256",
          "name": "tokenId",
          "type": "uint256"
        }
      ],
      "name": "approve",
      "outputs": [],
      "stateMutability": "nonpayable",
      "type": "function"
    },
    {
      "inputs": [
        {
          "internalType": "address",
          "name": "owner",
          "type": "address"
        }
      ],
      "name": "balanceOf",
      "outputs": [
        {
          "internalType": "uint256",
          "name": "",
          "type": "uint256"
        }
      ],
      "stateMutability": "view",
      "type": "function"
    },
    {
      "inputs": [
        {
          "internalType": "uint256",
          "name": "_tokenID",
          "type": "uint256"
        }
      ],
      "name": "bid",
      "outputs": [],
      "stateMutability": "payable",
      "type": "function"
    },
    {
      "inputs": [
        {
          "internalType": "uint256",
          "name": "_collectionID",
          "type": "uint256"
        }
      ],
      "name": "buyCollection",
      "outputs": [],
      "stateMutability": "payable",
      "type": "function"
    },
    {
      "inputs": [
        {
          "internalType": "uint256",
          "name": "_tokenID",
          "type": "uint256"
        }
      ],
      "name": "cancelAuction",
      "outputs": [],
      "stateMutability": "nonpayable",
      "type": "function"
    },
    {
      "inputs": [],
      "name": "collectionCounter",
      "outputs": [
        {
          "internalType": "uint256",
          "name": "",
          "type": "uint256"
        }
      ],
      "stateMutability": "view",
      "type": "function"
    },
    {
      "inputs": [
        {
          "internalType": "string",
          "name": "_name",
          "type": "string"
        },
        {
          "internalType": "string",
          "name": "_description",
          "type": "string"
        }
      ],
      "name": "createCollection",
      "outputs": [],
      "stateMutability": "nonpayable",
      "type": "function"
    },
    {
      "inputs": [
        {
          "internalType": "string",
          "name": "_tokenURI",
          "type": "string"
        },
        {
          "internalType": "string",
          "name": "_name",
          "type": "string"
        },
        {
          "internalType": "string",
          "name": "_description",
          "type": "string"
        },
        {
          "internalType": "uint256",
          "name": "_collectionID",
          "type": "uint256"
        }
      ],
      "name": "createNFT",
      "outputs": [],
      "stateMutability": "nonpayable",
      "type": "function"
    },
    {
      "inputs": [
        {
          "internalType": "uint256",
          "name": "_tokenID",
          "type": "uint256"
        }
      ],
      "name": "finishAuction",
      "outputs": [],
      "stateMutability": "nonpayable",
      "type": "function"
    },
    {
      "inputs": [
        {
          "internalType": "uint256",
          "name": "tokenId",
          "type": "uint256"
        }
      ],
      "name": "getApproved",
      "outputs": [
        {
          "internalType": "address",
          "name": "",
          "type": "address"
        }
      ],
      "stateMutability": "view",
      "type": "function"
    },
    {
      "inputs": [
        {
          "internalType": "address",
          "name": "owner",
          "type": "address"
        },
        {
          "internalType": "address",
          "name": "operator",
          "type": "address"
        }
      ],
      "name": "isApprovedForAll",
      "outputs": [
        {
          "internalType": "bool",
          "name": "",
          "type": "bool"
        }
      ],
      "stateMutability": "view",
      "type": "function"
    },
    {
      "inputs": [],
      "name": "name",
      "outputs": [
        {
          "internalType": "string",
          "name": "",
          "type": "string"
        }
      ],
      "stateMutability": "view",
      "type": "function"
    },
    {
      "inputs": [],
      "name": "owner",
      "outputs": [
        {
          "internalType": "address",
          "name": "",
          "type": "address"
        }
      ],
      "stateMutability": "view",
      "type": "function"
    },
    {
      "inputs": [
        {
          "internalType": "uint256",
          "name": "tokenId",
          "type": "uint256"
        }
      ],
      "name": "ownerOf",
      "outputs": [
        {
          "internalType": "address",
          "name": "",
          "type": "address"
        }
      ],
      "stateMutability": "view",
      "type": "function"
    },
    {
      "inputs": [],
      "name": "renounceOwnership",
      "outputs": [],
      "stateMutability": "nonpayable",
      "type": "function"
    },
    {
      "inputs": [
        {
          "internalType": "address",
          "name": "from",
          "type": "address"
        },
        {
          "internalType": "address",
          "name": "to",
          "type": "address"
        },
        {
          "internalType": "uint256",
          "name": "tokenId",
          "type": "uint256"
        }
      ],
      "name": "safeTransferFrom",
      "outputs": [],
      "stateMutability": "nonpayable",
      "type": "function"
    },
    {
      "inputs": [
        {
          "internalType": "address",
          "name": "from",
          "type": "address"
        },
        {
          "internalType": "address",
          "name": "to",
          "type": "address"
        },
        {
          "internalType": "uint256",
          "name": "tokenId",
          "type": "uint256"
        },
        {
          "internalType": "bytes",
          "name": "data",
          "type": "bytes"
        }
      ],
      "name": "safeTransferFrom",
      "outputs": [],
      "stateMutability": "nonpayable",
      "type": "function"
    },
    {
      "inputs": [
        {
          "internalType": "uint256",
          "name": "_tokenID",
          "type": "uint256"
        },
        {
          "internalType": "uint256",
          "name": "_startingPrice",
          "type": "uint256"
        },
        {
          "internalType": "uint256",
          "name": "_deadline",
          "type": "uint256"
        }
      ],
      "name": "sellNFT",
      "outputs": [],
      "stateMutability": "nonpayable",
      "type": "function"
    },
    {
      "inputs": [
        {
          "internalType": "address",
          "name": "operator",
          "type": "address"
        },
        {
          "internalType": "bool",
          "name": "approved",
          "type": "bool"
        }
      ],
      "name": "setApprovalForAll",
      "outputs": [],
      "stateMutability": "nonpayable",
      "type": "function"
    },
    {
      "inputs": [
        {
          "internalType": "uint256",
          "name": "_collectionID",
          "type": "uint256"
        },
        {
          "internalType": "uint256",
          "name": "_tokenID",
          "type": "uint256"
        }
      ],
      "name": "setCollection",
      "outputs": [],
      "stateMutability": "nonpayable",
      "type": "function"
    },
    {
      "inputs": [
        {
          "internalType": "uint256",
          "name": "_collectionID",
          "type": "uint256"
        },
        {
          "internalType": "uint256",
          "name": "_price",
          "type": "uint256"
        }
      ],
      "name": "setCollectionPrice",
      "outputs": [],
      "stateMutability": "nonpayable",
      "type": "function"
    },
    {
      "inputs": [
        {
          "internalType": "uint256",
          "name": "_feePercent",
          "type": "uint256"
        }
      ],
      "name": "setFeePercent",
      "outputs": [],
      "stateMutability": "nonpayable",
      "type": "function"
    },
    {
      "inputs": [
        {
          "internalType": "bytes4",
          "name": "interfaceId",
          "type": "bytes4"
        }
      ],
      "name": "supportsInterface",
      "outputs": [
        {
          "internalType": "bool",
          "name": "",
          "type": "bool"
        }
      ],
      "stateMutability": "view",
      "type": "function"
    },
    {
      "inputs": [],
      "name": "symbol",
      "outputs": [
        {
          "internalType": "string",
          "name": "",
          "type": "string"
        }
      ],
      "stateMutability": "view",
      "type": "function"
    },
    {
      "inputs": [
        {
          "internalType": "uint256",
          "name": "tokenId",
          "type": "uint256"
        }
      ],
      "name": "tokenURI",
      "outputs": [
        {
          "internalType": "string",
          "name": "",
          "type": "string"
        }
      ],
      "stateMutability": "view",
      "type": "function"
    },
    {
      "inputs": [
        {
          "internalType": "address",
          "name": "from",
          "type": "address"
        },
        {
          "internalType": "address",
          "name": "to",
          "type": "address"
        },
        {
          "internalType": "uint256",
          "name": "tokenId",
          "type": "uint256"
        }
      ],
      "name": "transferFrom",
      "outputs": [],
      "stateMutability": "nonpayable",
      "type": "function"
    },
    {
      "inputs": [
        {
          "internalType": "address",
          "name": "newOwner",
          "type": "address"
        }
      ],
      "name": "transferOwnership",
      "outputs": [],
      "stateMutability": "nonpayable",
      "type": "function"
    }
  ],
  "bytecode": "0x6080604052600160085560016009556005600a553480156200002057600080fd5b50336040518060400160405280600781526020017f4245455f4e4654000000000000000000000000000000000000000000000000008152506040518060400160405280600681526020017f4245454e4654000000000000000000000000000000000000000000000000000081525081600090816200009f919062000481565b508060019081620000b1919062000481565b505050600073ffffffffffffffffffffffffffffffffffffffff168173ffffffffffffffffffffffffffffffffffffffff1603620001295760006040517f1e4fbdf7000000000000000000000000000000000000000000000000000000008152600401620001209190620005ad565b60405180910390fd5b6200013a816200014160201b60201c565b50620005ca565b6000600760009054906101000a900473ffffffffffffffffffffffffffffffffffffffff16905081600760006101000a81548173ffffffffffffffffffffffffffffffffffffffff021916908373ffffffffffffffffffffffffffffffffffffffff1602179055508173ffffffffffffffffffffffffffffffffffffffff168173ffffffffffffffffffffffffffffffffffffffff167f8be0079c531659141344cd1fd0a4f28419497f9722a3daafe3b4186f6b6457e060405160405180910390a35050565b600081519050919050565b7f4e487b7100000000000000000000000000000000000000000000000000000000600052604160045260246000fd5b7f4e487b7100000000000000000000000000000000000000000000000000000000600052602260045260246000fd5b600060028204905060018216806200028957607f821691505b6020821081036200029f576200029e62000241565b5b50919050565b60008190508160005260206000209050919050565b60006020601f8301049050919050565b600082821b905092915050565b600060088302620003097fffffffffffffffffffffffffffffffffffffffffffffffffffffffffffffffff82620002ca565b620003158683620002ca565b95508019841693508086168417925050509392505050565b6000819050919050565b6000819050919050565b6000620003626200035c62000356846200032d565b62000337565b6200032d565b9050919050565b6000819050919050565b6200037e8362000341565b620003966200038d8262000369565b848454620002d7565b825550505050565b600090565b620003ad6200039e565b620003ba81848462000373565b505050565b5b81811015620003e257620003d6600082620003a3565b600181019050620003c0565b5050565b601f8211156200043157620003fb81620002a5565b6200040684620002ba565b8101602085101562000416578190505b6200042e6200042585620002ba565b830182620003bf565b50505b505050565b600082821c905092915050565b6000620004566000198460080262000436565b1980831691505092915050565b600062000471838362000443565b9150826002028217905092915050565b6200048c8262000207565b67ffffffffffffffff811115620004a857620004a762000212565b5b620004b4825462000270565b620004c1828285620003e6565b600060209050601f831160018114620004f95760008415620004e4578287015190505b620004f0858262000463565b86555062000560565b601f1984166200050986620002a5565b60005b8281101562000533578489015182556001820191506020850194506020810190506200050c565b868310156200055357848901516200054f601f89168262000443565b8355505b6001600288020188555050505b505050505050565b600073ffffffffffffffffffffffffffffffffffffffff82169050919050565b6000620005958262000568565b9050919050565b620005a78162000588565b82525050565b6000602082019050620005c460008301846200059c565b92915050565b61574280620005da6000396000f3fe6080604052600436106101cd5760003560e01c80637ce3489b116100f7578063b3d84ae811610095578063ca1e217f11610064578063ca1e217f14610673578063cf266ed01461069c578063e985e9c5146106c5578063f2fde38b14610702576101cd565b8063b3d84ae8146105bb578063b88d4fde146105e4578063c7d31b301461060d578063c87b56dd14610636576101cd565b806396b5a755116100d157806396b5a755146104e2578063978196091461050b578063a22cb4651461054d578063a3c0b95b14610576576101cd565b80637ce3489b146104635780638da5cb5b1461048c57806395d89b41146104b7576101cd565b806323b872dd1161016f5780635508d8e11161013e5780635508d8e1146103a75780636352211e146103d257806370a082311461040f578063715018a61461044c576101cd565b806323b872dd1461030e57806342842e0e14610337578063454a2ab3146103605780635187a82d1461037c576101cd565b8063095ea7b3116101ab578063095ea7b31461027757806311024300146102a0578063176b9b75146102bc578063214eac4f146102e5576101cd565b806301ffc9a7146101d257806306fdde031461020f578063081812fc1461023a575b600080fd5b3480156101de57600080fd5b506101f960048036038101906101f49190613d80565b61072b565b6040516102069190613dc8565b60405180910390f35b34801561021b57600080fd5b5061022461073d565b6040516102319190613e73565b60405180910390f35b34801561024657600080fd5b50610261600480360381019061025c9190613ecb565b6107cf565b60405161026e9190613f39565b60405180910390f35b34801561028357600080fd5b5061029e60048036038101906102999190613f80565b6107eb565b005b6102ba60048036038101906102b59190613ecb565b610801565b005b3480156102c857600080fd5b506102e360048036038101906102de91906140f5565b610cbf565b005b3480156102f157600080fd5b5061030c6004803603810190610307919061416d565b610e48565b005b34801561031a57600080fd5b50610335600480360381019061033091906141c0565b611076565b005b34801561034357600080fd5b5061035e600480360381019061035991906141c0565b611178565b005b61037a60048036038101906103759190613ecb565b611198565b005b34801561038857600080fd5b50610391611593565b60405161039e9190614222565b60405180910390f35b3480156103b357600080fd5b506103bc611599565b6040516103c99190614222565b60405180910390f35b3480156103de57600080fd5b506103f960048036038101906103f49190613ecb565b61159f565b6040516104069190613f39565b60405180910390f35b34801561041b57600080fd5b506104366004803603810190610431919061423d565b6115b1565b6040516104439190614222565b60405180910390f35b34801561045857600080fd5b5061046161166b565b005b34801561046f57600080fd5b5061048a60048036038101906104859190613ecb565b61167f565b005b34801561049857600080fd5b506104a1611691565b6040516104ae9190613f39565b60405180910390f35b3480156104c357600080fd5b506104cc6116bb565b6040516104d99190613e73565b60405180910390f35b3480156104ee57600080fd5b5061050960048036038101906105049190613ecb565b61174d565b005b34801561051757600080fd5b50610532600480360381019061052d9190613ecb565b611ad0565b6040516105449695949392919061428b565b60405180910390f35b34801561055957600080fd5b50610574600480360381019061056f9190614326565b611c49565b005b34801561058257600080fd5b5061059d60048036038101906105989190613ecb565b611c5f565b6040516105b299989796959493929190614366565b60405180910390f35b3480156105c757600080fd5b506105e260048036038101906105dd9190614401565b611e0a565b005b3480156105f057600080fd5b5061060b600480360381019061060691906144e2565b611fc1565b005b34801561061957600080fd5b50610634600480360381019061062f9190614401565b611fde565b005b34801561064257600080fd5b5061065d60048036038101906106589190613ecb565b612122565b60405161066a9190613e73565b60405180910390f35b34801561067f57600080fd5b5061069a60048036038101906106959190614565565b612134565b005b3480156106a857600080fd5b506106c360048036038101906106be9190613ecb565b6123ba565b005b3480156106d157600080fd5b506106ec60048036038101906106e79190614620565b6129ad565b6040516106f99190613dc8565b60405180910390f35b34801561070e57600080fd5b506107296004803603810190610724919061423d565b612a41565b005b600061073682612ac7565b9050919050565b60606000805461074c9061468f565b80601f01602080910402602001604051908101604052809291908181526020018280546107789061468f565b80156107c55780601f1061079a576101008083540402835291602001916107c5565b820191906000526020600020905b8154815290600101906020018083116107a857829003601f168201915b5050505050905090565b60006107da82612b28565b506107e482612bb0565b9050919050565b6107fd82826107f8612bed565b612bf5565b5050565b600c6000828152602001908152602001600020600101543414610859576040517f08c379a00000000000000000000000000000000000000000000000000000000081526004016108509061470c565b60405180910390fd5b6000600c600083815260200190815260200160002060050180549050116108b5576040517f08c379a00000000000000000000000000000000000000000000000000000000081526004016108ac90614778565b60405180910390fd5b600c600082815260200190815260200160002060040160009054906101000a900473ffffffffffffffffffffffffffffffffffffffff1673ffffffffffffffffffffffffffffffffffffffff163373ffffffffffffffffffffffffffffffffffffffff1603610959576040517f08c379a00000000000000000000000000000000000000000000000000000000081526004016109509061480a565b60405180910390fd5b600c600082815260200190815260200160002060060160009054906101000a900460ff166109bc576040517f08c379a00000000000000000000000000000000000000000000000000000000081526004016109b390614876565b60405180910390fd5b600c600082815260200190815260200160002060040160009054906101000a900473ffffffffffffffffffffffffffffffffffffffff1673ffffffffffffffffffffffffffffffffffffffff166108fc6064600a5434610a1c91906148c5565b610a269190614936565b34610a319190614967565b9081150290604051600060405180830381858888f19350505050158015610a5c573d6000803e3d6000fd5b5033600c600083815260200190815260200160002060040160006101000a81548173ffffffffffffffffffffffffffffffffffffffff021916908373ffffffffffffffffffffffffffffffffffffffff1602179055506000600c60008381526020019081526020016000206001018190555060005b600c600083815260200190815260200160002060050180549050811015610c695760003090508073ffffffffffffffffffffffffffffffffffffffff166323b872dd600c600086815260200190815260200160002060040160009054906101000a900473ffffffffffffffffffffffffffffffffffffffff1633600c60008881526020019081526020016000206005018681548110610b7357610b7261499b565b5b90600052602060002001546040518463ffffffff1660e01b8152600401610b9c93929190614a29565b600060405180830381600087803b158015610bb657600080fd5b505af1158015610bca573d6000803e3d6000fd5b5050505033600b6000600c60008781526020019081526020016000206005018581548110610bfb57610bfa61499b565b5b9060005260206000200154815260200190815260200160002060030160016101000a81548173ffffffffffffffffffffffffffffffffffffffff021916908373ffffffffffffffffffffffffffffffffffffffff160217905550508080610c6190614a60565b915050610ad1565b507f1fd204582798bf40ce10d346fddb40f4a1342e109f2f5f6be0e93233b6d23175600c6000838152602001908152602001600020600201823433604051610cb49493929190614b41565b60405180910390a150565b6000600954905060096000815480929190610cd990614a60565b919050555060606040518060e00160405280838152602001600081526020018581526020018481526020013373ffffffffffffffffffffffffffffffffffffffff16815260200182815260200160001515815250600c600084815260200190815260200160002060008201518160000155602082015181600101556040820151816002019081610d699190614d1a565b506060820151816003019081610d7f9190614d1a565b5060808201518160040160006101000a81548173ffffffffffffffffffffffffffffffffffffffff021916908373ffffffffffffffffffffffffffffffffffffffff16021790555060a0820151816005019080519060200190610de3929190613caa565b5060c08201518160060160006101000a81548160ff0219169083151502179055509050507f8d9333398133fd32e9b6c3ae7b7e39995f3b1998ab23f7e08108ad8cd3fb64f7848433604051610e3a93929190614dec565b60405180910390a150505050565b60003090503373ffffffffffffffffffffffffffffffffffffffff168173ffffffffffffffffffffffffffffffffffffffff16636352211e866040518263ffffffff1660e01b8152600401610e9d9190614222565b602060405180830381865afa158015610eba573d6000803e3d6000fd5b505050506040513d601f19601f82011682018060405250810190610ede9190614e46565b73ffffffffffffffffffffffffffffffffffffffff1614610f34576040517f08c379a0000000000000000000000000000000000000000000000000000000008152600401610f2b90614ee5565b60405180910390fd5b8073ffffffffffffffffffffffffffffffffffffffff166323b872dd3330876040518463ffffffff1660e01b8152600401610f7193929190614f05565b600060405180830381600087803b158015610f8b57600080fd5b505af1158015610f9f573d6000803e3d6000fd5b505050506001600b600086815260200190815260200160002060030160006101000a81548160ff02191690831515021790555082600b60008681526020019081526020016000206006018190555081600b6000868152602001908152602001600020600701819055507f88873a73df71e02b4146afd074e1524b2ff9dfdd4ed01b0cf9d5cc7f457f0bb0600b6000868152602001908152602001600020600001600b60008781526020019081526020016000206002015485336040516110689493929190614b41565b60405180910390a150505050565b600073ffffffffffffffffffffffffffffffffffffffff168273ffffffffffffffffffffffffffffffffffffffff16036110e85760006040517f64a0ae920000000000000000000000000000000000000000000000000000000081526004016110df9190613f39565b60405180910390fd5b60006110fc83836110f7612bed565b612c07565b90508373ffffffffffffffffffffffffffffffffffffffff168173ffffffffffffffffffffffffffffffffffffffff1614611172578382826040517f64283d7b00000000000000000000000000000000000000000000000000000000815260040161116993929190614f3c565b60405180910390fd5b50505050565b61119383838360405180602001604052806000815250611fc1565b505050565b60011515600b600083815260200190815260200160002060030160009054906101000a900460ff16151514611202576040517f08c379a00000000000000000000000000000000000000000000000000000000081526004016111f990614fbf565b60405180910390fd5b600b600082815260200190815260200160002060030160019054906101000a900473ffffffffffffffffffffffffffffffffffffffff1673ffffffffffffffffffffffffffffffffffffffff163373ffffffffffffffffffffffffffffffffffffffff16036112a6576040517f08c379a000000000000000000000000000000000000000000000000000000000815260040161129d9061502b565b60405180910390fd5b600b60008281526020019081526020016000206005015434116112fe576040517f08c379a00000000000000000000000000000000000000000000000000000000081526004016112f5906150bd565b60405180910390fd5b600b6000828152602001908152602001600020600701544210611356576040517f08c379a000000000000000000000000000000000000000000000000000000000815260040161134d90615129565b60405180910390fd5b600b60008281526020019081526020016000206006015434116113ae576040517f08c379a00000000000000000000000000000000000000000000000000000000081526004016113a5906151bb565b60405180910390fd5b600b600082815260200190815260200160002060040160009054906101000a900473ffffffffffffffffffffffffffffffffffffffff1673ffffffffffffffffffffffffffffffffffffffff163373ffffffffffffffffffffffffffffffffffffffff1603611452576040517f08c379a00000000000000000000000000000000000000000000000000000000081526004016114499061524d565b60405180910390fd5b600b600082815260200190815260200160002060040160009054906101000a900473ffffffffffffffffffffffffffffffffffffffff1673ffffffffffffffffffffffffffffffffffffffff166108fc600b6000848152602001908152602001600020600501549081150290604051600060405180830381858888f193505050501580156114e4573d6000803e3d6000fd5b5033600b600083815260200190815260200160002060040160006101000a81548173ffffffffffffffffffffffffffffffffffffffff021916908373ffffffffffffffffffffffffffffffffffffffff16021790555034600b6000838152602001908152602001600020600501819055507ffd7cfbd219ff1e7365436fb2930a026fa6704a1e0bb39ad104f0485c8c01124d8134336040516115889392919061526d565b60405180910390a150565b60095481565b60085481565b60006115aa82612b28565b9050919050565b60008073ffffffffffffffffffffffffffffffffffffffff168273ffffffffffffffffffffffffffffffffffffffff16036116245760006040517f89c62b6400000000000000000000000000000000000000000000000000000000815260040161161b9190613f39565b60405180910390fd5b600360008373ffffffffffffffffffffffffffffffffffffffff1673ffffffffffffffffffffffffffffffffffffffff168152602001908152602001600020549050919050565b611673612e21565b61167d6000612ea8565b565b611687612e21565b80600a8190555050565b6000600760009054906101000a900473ffffffffffffffffffffffffffffffffffffffff16905090565b6060600180546116ca9061468f565b80601f01602080910402602001604051908101604052809291908181526020018280546116f69061468f565b80156117435780601f1061171857610100808354040283529160200191611743565b820191906000526020600020905b81548152906001019060200180831161172657829003601f168201915b5050505050905090565b60003090503373ffffffffffffffffffffffffffffffffffffffff16600b600084815260200190815260200160002060030160019054906101000a900473ffffffffffffffffffffffffffffffffffffffff1673ffffffffffffffffffffffffffffffffffffffff16146117f6576040517f08c379a00000000000000000000000000000000000000000000000000000000081526004016117ed90614ee5565b60405180910390fd5b60011515600b600084815260200190815260200160002060030160009054906101000a900460ff16151514611860576040517f08c379a000000000000000000000000000000000000000000000000000000000815260040161185790614fbf565b60405180910390fd5b600b60008381526020019081526020016000206007015442106118b8576040517f08c379a00000000000000000000000000000000000000000000000000000000081526004016118af906152f0565b60405180910390fd5b6000600b600084815260200190815260200160002060030160006101000a81548160ff021916908315150217905550600b600083815260200190815260200160002060040160009054906101000a900473ffffffffffffffffffffffffffffffffffffffff1673ffffffffffffffffffffffffffffffffffffffff166108fc600b6000858152602001908152602001600020600501549081150290604051600060405180830381858888f19350505050158015611979573d6000803e3d6000fd5b506000600b600084815260200190815260200160002060040160006101000a81548173ffffffffffffffffffffffffffffffffffffffff021916908373ffffffffffffffffffffffffffffffffffffffff1602179055506000600b6000848152602001908152602001600020600501819055506000600b6000848152602001908152602001600020600601819055506000600b6000848152602001908152602001600020600701819055508073ffffffffffffffffffffffffffffffffffffffff166323b872dd3033856040518463ffffffff1660e01b8152600401611a6193929190614f05565b600060405180830381600087803b158015611a7b57600080fd5b505af1158015611a8f573d6000803e3d6000fd5b505050507f2a6445a420b30cbabfffd85287bfa6c0c8f9b5f65d48637922da74abf357e52b8233604051611ac4929190615310565b60405180910390a15050565b600c602052806000526040600020600091509050806000015490806001015490806002018054611aff9061468f565b80601f0160208091040260200160405190810160405280929190818152602001828054611b2b9061468f565b8015611b785780601f10611b4d57610100808354040283529160200191611b78565b820191906000526020600020905b815481529060010190602001808311611b5b57829003601f168201915b505050505090806003018054611b8d9061468f565b80601f0160208091040260200160405190810160405280929190818152602001828054611bb99061468f565b8015611c065780601f10611bdb57610100808354040283529160200191611c06565b820191906000526020600020905b815481529060010190602001808311611be957829003601f168201915b5050505050908060040160009054906101000a900473ffffffffffffffffffffffffffffffffffffffff16908060060160009054906101000a900460ff16905086565b611c5b611c54612bed565b8383612f6e565b5050565b600b602052806000526040600020600091509050806000018054611c829061468f565b80601f0160208091040260200160405190810160405280929190818152602001828054611cae9061468f565b8015611cfb5780601f10611cd057610100808354040283529160200191611cfb565b820191906000526020600020905b815481529060010190602001808311611cde57829003601f168201915b505050505090806001018054611d109061468f565b80601f0160208091040260200160405190810160405280929190818152602001828054611d3c9061468f565b8015611d895780601f10611d5e57610100808354040283529160200191611d89565b820191906000526020600020905b815481529060010190602001808311611d6c57829003601f168201915b5050505050908060020154908060030160009054906101000a900460ff16908060030160019054906101000a900473ffffffffffffffffffffffffffffffffffffffff16908060040160009054906101000a900473ffffffffffffffffffffffffffffffffffffffff16908060050154908060060154908060070154905089565b600c600083815260200190815260200160002060040160009054906101000a900473ffffffffffffffffffffffffffffffffffffffff1673ffffffffffffffffffffffffffffffffffffffff163373ffffffffffffffffffffffffffffffffffffffff1614611eae576040517f08c379a0000000000000000000000000000000000000000000000000000000008152600401611ea5906153ab565b60405180910390fd5b600b600082815260200190815260200160002060030160019054906101000a900473ffffffffffffffffffffffffffffffffffffffff1673ffffffffffffffffffffffffffffffffffffffff163373ffffffffffffffffffffffffffffffffffffffff1614611f52576040517f08c379a0000000000000000000000000000000000000000000000000000000008152600401611f4990614ee5565b60405180910390fd5b81600b6000838152602001908152602001600020600201819055507f1ed088d87d8d67ac9591209cde49a77c73b21313744cd7d5e87daa4abb6e016d600b60008381526020019081526020016000206000018284604051611fb5939291906153cb565b60405180910390a15050565b611fcc848484611076565b611fd8848484846130dd565b50505050565b600c600083815260200190815260200160002060040160009054906101000a900473ffffffffffffffffffffffffffffffffffffffff1673ffffffffffffffffffffffffffffffffffffffff163373ffffffffffffffffffffffffffffffffffffffff1614612082576040517f08c379a0000000000000000000000000000000000000000000000000000000008152600401612079906153ab565b60405180910390fd5b6001600c600084815260200190815260200160002060060160006101000a81548160ff02191690831515021790555080600c6000848152602001908152602001600020600101819055507f5ff22f3fb09f6b746c34c230dee663f3985b9ada169b4ee122f0b11b62192317600c60008481526020019081526020016000206002018383336040516121169493929190614b41565b60405180910390a15050565b606061212d82613294565b9050919050565b6009548110612178576040517f08c379a000000000000000000000000000000000000000000000000000000000815260040161216f9061547b565b60405180910390fd5b600060085490506008600081548092919061219290614a60565b91905055506121a133826133a7565b6121ab81866133c5565b6040518061012001604052808581526020018481526020018381526020016000151581526020013373ffffffffffffffffffffffffffffffffffffffff168152602001600073ffffffffffffffffffffffffffffffffffffffff16815260200160008152602001600081526020016000815250600b600083815260200190815260200160002060008201518160000190816122469190614d1a565b50602082015181600101908161225c9190614d1a565b506040820151816002015560608201518160030160006101000a81548160ff02191690831515021790555060808201518160030160016101000a81548173ffffffffffffffffffffffffffffffffffffffff021916908373ffffffffffffffffffffffffffffffffffffffff16021790555060a08201518160040160006101000a81548173ffffffffffffffffffffffffffffffffffffffff021916908373ffffffffffffffffffffffffffffffffffffffff16021790555060c0820151816005015560e082015181600601556101008201518160070155905050600c60008381526020019081526020016000206005018190806001815401808255809150506001900390600052602060002001600090919091909150557fb5832cfe8c236fc0c9d45da4403a07e69d045e29cc6a044440c8b74193c3023984848433896040516123ab95949392919061549b565b60405180910390a15050505050565b600030905060011515600b600084815260200190815260200160002060030160009054906101000a900460ff16151514612429576040517f08c379a000000000000000000000000000000000000000000000000000000000815260040161242090614fbf565b60405180910390fd5b600b6000838152602001908152602001600020600701544210612481576040517f08c379a0000000000000000000000000000000000000000000000000000000008152600401612478906152f0565b60405180910390fd5b8073ffffffffffffffffffffffffffffffffffffffff166323b872dd30600b600086815260200190815260200160002060040160009054906101000a900473ffffffffffffffffffffffffffffffffffffffff16856040518463ffffffff1660e01b81526004016124f493929190615503565b600060405180830381600087803b15801561250e57600080fd5b505af1158015612522573d6000803e3d6000fd5b50505050600b600083815260200190815260200160002060030160019054906101000a900473ffffffffffffffffffffffffffffffffffffffff1673ffffffffffffffffffffffffffffffffffffffff166108fc6064600a546125859190614936565b60016125919190614967565b600b6000868152602001908152602001600020600501546125b291906148c5565b9081150290604051600060405180830381858888f193505050501580156125dd573d6000803e3d6000fd5b506000600b600084815260200190815260200160002060030160006101000a81548160ff021916908315150217905550600b600083815260200190815260200160002060040160009054906101000a900473ffffffffffffffffffffffffffffffffffffffff16600b600084815260200190815260200160002060030160016101000a81548173ffffffffffffffffffffffffffffffffffffffff021916908373ffffffffffffffffffffffffffffffffffffffff1602179055506000600b600084815260200190815260200160002060040160006101000a81548173ffffffffffffffffffffffffffffffffffffffff021916908373ffffffffffffffffffffffffffffffffffffffff1602179055506000600b6000848152602001908152602001600020600501819055506000600b6000848152602001908152602001600020600601819055506000600b6000848152602001908152602001600020600701819055506000600b6000848152602001908152602001600020600201819055506000600190505b600c6000600b6000868152602001908152602001600020600201548152602001908152602001600020600501805490508110156129215782600c6000600b600087815260200190815260200160002060020154815260200190815260200160002060050182815481106127db576127da61499b565b5b90600052602060002001540361290e57600c6000600b60008681526020019081526020016000206002015481526020019081526020016000206005016001600c6000600b6000888152602001908152602001600020600201548152602001908152602001600020600501805490506128539190614967565b815481106128645761286361499b565b5b9060005260206000200154600c6000600b600087815260200190815260200160002060020154815260200190815260200160002060050182815481106128ad576128ac61499b565b5b9060005260206000200181905550600c6000600b60008681526020019081526020016000206002015481526020019081526020016000206005018054806128f7576128f661553a565b5b600190038181906000526020600020016000905590555b808061291990614a60565b915050612765565b507f4ea2fdadd03e0e3510b288d57b8a0447b14722836988ae3762a2cd6d60ec96c282600b600085815260200190815260200160002060050154600b600086815260200190815260200160002060040160009054906101000a900473ffffffffffffffffffffffffffffffffffffffff166040516129a193929190615569565b60405180910390a15050565b6000600560008473ffffffffffffffffffffffffffffffffffffffff1673ffffffffffffffffffffffffffffffffffffffff16815260200190815260200160002060008373ffffffffffffffffffffffffffffffffffffffff1673ffffffffffffffffffffffffffffffffffffffff16815260200190815260200160002060009054906101000a900460ff16905092915050565b612a49612e21565b600073ffffffffffffffffffffffffffffffffffffffff168173ffffffffffffffffffffffffffffffffffffffff1603612abb5760006040517f1e4fbdf7000000000000000000000000000000000000000000000000000000008152600401612ab29190613f39565b60405180910390fd5b612ac481612ea8565b50565b6000634906490660e01b7bffffffffffffffffffffffffffffffffffffffffffffffffffffffff1916827bffffffffffffffffffffffffffffffffffffffffffffffffffffffff19161480612b215750612b2082613421565b5b9050919050565b600080612b3483613503565b9050600073ffffffffffffffffffffffffffffffffffffffff168173ffffffffffffffffffffffffffffffffffffffff1603612ba757826040517f7e273289000000000000000000000000000000000000000000000000000000008152600401612b9e9190614222565b60405180910390fd5b80915050919050565b60006004600083815260200190815260200160002060009054906101000a900473ffffffffffffffffffffffffffffffffffffffff169050919050565b600033905090565b612c028383836001613540565b505050565b600080612c1384613503565b9050600073ffffffffffffffffffffffffffffffffffffffff168373ffffffffffffffffffffffffffffffffffffffff1614612c5557612c54818486613705565b5b600073ffffffffffffffffffffffffffffffffffffffff168173ffffffffffffffffffffffffffffffffffffffff1614612ce657612c97600085600080613540565b6001600360008373ffffffffffffffffffffffffffffffffffffffff1673ffffffffffffffffffffffffffffffffffffffff168152602001908152602001600020600082825403925050819055505b600073ffffffffffffffffffffffffffffffffffffffff168573ffffffffffffffffffffffffffffffffffffffff1614612d69576001600360008773ffffffffffffffffffffffffffffffffffffffff1673ffffffffffffffffffffffffffffffffffffffff168152602001908152602001600020600082825401925050819055505b846002600086815260200190815260200160002060006101000a81548173ffffffffffffffffffffffffffffffffffffffff021916908373ffffffffffffffffffffffffffffffffffffffff160217905550838573ffffffffffffffffffffffffffffffffffffffff168273ffffffffffffffffffffffffffffffffffffffff167fddf252ad1be2c89b69c2b068fc378daa952ba7f163c4a11628f55a4df523b3ef60405160405180910390a4809150509392505050565b612e29612bed565b73ffffffffffffffffffffffffffffffffffffffff16612e47611691565b73ffffffffffffffffffffffffffffffffffffffff1614612ea657612e6a612bed565b6040517f118cdaa7000000000000000000000000000000000000000000000000000000008152600401612e9d9190613f39565b60405180910390fd5b565b6000600760009054906101000a900473ffffffffffffffffffffffffffffffffffffffff16905081600760006101000a81548173ffffffffffffffffffffffffffffffffffffffff021916908373ffffffffffffffffffffffffffffffffffffffff1602179055508173ffffffffffffffffffffffffffffffffffffffff168173ffffffffffffffffffffffffffffffffffffffff167f8be0079c531659141344cd1fd0a4f28419497f9722a3daafe3b4186f6b6457e060405160405180910390a35050565b600073ffffffffffffffffffffffffffffffffffffffff168273ffffffffffffffffffffffffffffffffffffffff1603612fdf57816040517f5b08ba18000000000000000000000000000000000000000000000000000000008152600401612fd69190613f39565b60405180910390fd5b80600560008573ffffffffffffffffffffffffffffffffffffffff1673ffffffffffffffffffffffffffffffffffffffff16815260200190815260200160002060008473ffffffffffffffffffffffffffffffffffffffff1673ffffffffffffffffffffffffffffffffffffffff16815260200190815260200160002060006101000a81548160ff0219169083151502179055508173ffffffffffffffffffffffffffffffffffffffff168373ffffffffffffffffffffffffffffffffffffffff167f17307eab39ab6107e8899845ad3d59bd9653f200f220920489ca2b5937696c31836040516130d09190613dc8565b60405180910390a3505050565b60008373ffffffffffffffffffffffffffffffffffffffff163b111561328e578273ffffffffffffffffffffffffffffffffffffffff1663150b7a02613121612bed565b8685856040518563ffffffff1660e01b815260040161314394939291906155f5565b6020604051808303816000875af192505050801561317f57506040513d601f19601f8201168201806040525081019061317c9190615656565b60015b613203573d80600081146131af576040519150601f19603f3d011682016040523d82523d6000602084013e6131b4565b606091505b5060008151036131fb57836040517f64a0ae920000000000000000000000000000000000000000000000000000000081526004016131f29190613f39565b60405180910390fd5b805181602001fd5b63150b7a0260e01b7bffffffffffffffffffffffffffffffffffffffffffffffffffffffff1916817bffffffffffffffffffffffffffffffffffffffffffffffffffffffff19161461328c57836040517f64a0ae920000000000000000000000000000000000000000000000000000000081526004016132839190613f39565b60405180910390fd5b505b50505050565b606061329f82612b28565b5060006006600084815260200190815260200160002080546132c09061468f565b80601f01602080910402602001604051908101604052809291908181526020018280546132ec9061468f565b80156133395780601f1061330e57610100808354040283529160200191613339565b820191906000526020600020905b81548152906001019060200180831161331c57829003601f168201915b50505050509050600061334a6137c9565b9050600081510361335f5781925050506133a2565b60008251111561339457808260405160200161337c9291906156bf565b604051602081830303815290604052925050506133a2565b61339d846137e0565b925050505b919050565b6133c1828260405180602001604052806000815250613849565b5050565b806006600084815260200190815260200160002090816133e59190614d1a565b507ff8e1a15aba9398e019f0b49df1a4fde98ee17ae345cb5f6b5e2c27f5033e8ce7826040516134159190614222565b60405180910390a15050565b60007f80ac58cd000000000000000000000000000000000000000000000000000000007bffffffffffffffffffffffffffffffffffffffffffffffffffffffff1916827bffffffffffffffffffffffffffffffffffffffffffffffffffffffff191614806134ec57507f5b5e139f000000000000000000000000000000000000000000000000000000007bffffffffffffffffffffffffffffffffffffffffffffffffffffffff1916827bffffffffffffffffffffffffffffffffffffffffffffffffffffffff1916145b806134fc57506134fb82613865565b5b9050919050565b60006002600083815260200190815260200160002060009054906101000a900473ffffffffffffffffffffffffffffffffffffffff169050919050565b80806135795750600073ffffffffffffffffffffffffffffffffffffffff168273ffffffffffffffffffffffffffffffffffffffff1614155b156136ad57600061358984612b28565b9050600073ffffffffffffffffffffffffffffffffffffffff168373ffffffffffffffffffffffffffffffffffffffff16141580156135f457508273ffffffffffffffffffffffffffffffffffffffff168173ffffffffffffffffffffffffffffffffffffffff1614155b8015613607575061360581846129ad565b155b1561364957826040517fa9fbf51f0000000000000000000000000000000000000000000000000000000081526004016136409190613f39565b60405180910390fd5b81156136ab57838573ffffffffffffffffffffffffffffffffffffffff168273ffffffffffffffffffffffffffffffffffffffff167f8c5be1e5ebec7d5bd14f71427d1e84f3dd0314c0f7b2291e5b200ac8c7c3b92560405160405180910390a45b505b836004600085815260200190815260200160002060006101000a81548173ffffffffffffffffffffffffffffffffffffffff021916908373ffffffffffffffffffffffffffffffffffffffff16021790555050505050565b6137108383836138cf565b6137c457600073ffffffffffffffffffffffffffffffffffffffff168373ffffffffffffffffffffffffffffffffffffffff160361378557806040517f7e27328900000000000000000000000000000000000000000000000000000000815260040161377c9190614222565b60405180910390fd5b81816040517f177e802f0000000000000000000000000000000000000000000000000000000081526004016137bb9291906156e3565b60405180910390fd5b505050565b606060405180602001604052806000815250905090565b60606137eb82612b28565b5060006137f66137c9565b905060008151116138165760405180602001604052806000815250613841565b8061382084613990565b6040516020016138319291906156bf565b6040516020818303038152906040525b915050919050565b6138538383613a5e565b61386060008484846130dd565b505050565b60007f01ffc9a7000000000000000000000000000000000000000000000000000000007bffffffffffffffffffffffffffffffffffffffffffffffffffffffff1916827bffffffffffffffffffffffffffffffffffffffffffffffffffffffff1916149050919050565b60008073ffffffffffffffffffffffffffffffffffffffff168373ffffffffffffffffffffffffffffffffffffffff161415801561398757508273ffffffffffffffffffffffffffffffffffffffff168473ffffffffffffffffffffffffffffffffffffffff161480613948575061394784846129ad565b5b8061398657508273ffffffffffffffffffffffffffffffffffffffff1661396e83612bb0565b73ffffffffffffffffffffffffffffffffffffffff16145b5b90509392505050565b60606000600161399f84613b57565b01905060008167ffffffffffffffff8111156139be576139bd613fca565b5b6040519080825280601f01601f1916602001820160405280156139f05781602001600182028036833780820191505090505b509050600082602001820190505b600115613a53578080600190039150507f3031323334353637383961626364656600000000000000000000000000000000600a86061a8153600a8581613a4757613a46614907565b5b049450600085036139fe575b819350505050919050565b600073ffffffffffffffffffffffffffffffffffffffff168273ffffffffffffffffffffffffffffffffffffffff1603613ad05760006040517f64a0ae92000000000000000000000000000000000000000000000000000000008152600401613ac79190613f39565b60405180910390fd5b6000613ade83836000612c07565b9050600073ffffffffffffffffffffffffffffffffffffffff168173ffffffffffffffffffffffffffffffffffffffff1614613b525760006040517f73c6ac6e000000000000000000000000000000000000000000000000000000008152600401613b499190613f39565b60405180910390fd5b505050565b600080600090507a184f03e93ff9f4daa797ed6e38ed64bf6a1f0100000000000000008310613bb5577a184f03e93ff9f4daa797ed6e38ed64bf6a1f0100000000000000008381613bab57613baa614907565b5b0492506040810190505b6d04ee2d6d415b85acef81000000008310613bf2576d04ee2d6d415b85acef81000000008381613be857613be7614907565b5b0492506020810190505b662386f26fc100008310613c2157662386f26fc100008381613c1757613c16614907565b5b0492506010810190505b6305f5e1008310613c4a576305f5e1008381613c4057613c3f614907565b5b0492506008810190505b6127108310613c6f576127108381613c6557613c64614907565b5b0492506004810190505b60648310613c925760648381613c8857613c87614907565b5b0492506002810190505b600a8310613ca1576001810190505b80915050919050565b828054828255906000526020600020908101928215613ce6579160200282015b82811115613ce5578251825591602001919060010190613cca565b5b509050613cf39190613cf7565b5090565b5b80821115613d10576000816000905550600101613cf8565b5090565b6000604051905090565b600080fd5b600080fd5b60007fffffffff0000000000000000000000000000000000000000000000000000000082169050919050565b613d5d81613d28565b8114613d6857600080fd5b50565b600081359050613d7a81613d54565b92915050565b600060208284031215613d9657613d95613d1e565b5b6000613da484828501613d6b565b91505092915050565b60008115159050919050565b613dc281613dad565b82525050565b6000602082019050613ddd6000830184613db9565b92915050565b600081519050919050565b600082825260208201905092915050565b60005b83811015613e1d578082015181840152602081019050613e02565b60008484015250505050565b6000601f19601f8301169050919050565b6000613e4582613de3565b613e4f8185613dee565b9350613e5f818560208601613dff565b613e6881613e29565b840191505092915050565b60006020820190508181036000830152613e8d8184613e3a565b905092915050565b6000819050919050565b613ea881613e95565b8114613eb357600080fd5b50565b600081359050613ec581613e9f565b92915050565b600060208284031215613ee157613ee0613d1e565b5b6000613eef84828501613eb6565b91505092915050565b600073ffffffffffffffffffffffffffffffffffffffff82169050919050565b6000613f2382613ef8565b9050919050565b613f3381613f18565b82525050565b6000602082019050613f4e6000830184613f2a565b92915050565b613f5d81613f18565b8114613f6857600080fd5b50565b600081359050613f7a81613f54565b92915050565b60008060408385031215613f9757613f96613d1e565b5b6000613fa585828601613f6b565b9250506020613fb685828601613eb6565b9150509250929050565b600080fd5b600080fd5b7f4e487b7100000000000000000000000000000000000000000000000000000000600052604160045260246000fd5b61400282613e29565b810181811067ffffffffffffffff8211171561402157614020613fca565b5b80604052505050565b6000614034613d14565b90506140408282613ff9565b919050565b600067ffffffffffffffff8211156140605761405f613fca565b5b61406982613e29565b9050602081019050919050565b82818337600083830152505050565b600061409861409384614045565b61402a565b9050828152602081018484840111156140b4576140b3613fc5565b5b6140bf848285614076565b509392505050565b600082601f8301126140dc576140db613fc0565b5b81356140ec848260208601614085565b91505092915050565b6000806040838503121561410c5761410b613d1e565b5b600083013567ffffffffffffffff81111561412a57614129613d23565b5b614136858286016140c7565b925050602083013567ffffffffffffffff81111561415757614156613d23565b5b614163858286016140c7565b9150509250929050565b60008060006060848603121561418657614185613d1e565b5b600061419486828701613eb6565b93505060206141a586828701613eb6565b92505060406141b686828701613eb6565b9150509250925092565b6000806000606084860312156141d9576141d8613d1e565b5b60006141e786828701613f6b565b93505060206141f886828701613f6b565b925050604061420986828701613eb6565b9150509250925092565b61421c81613e95565b82525050565b60006020820190506142376000830184614213565b92915050565b60006020828403121561425357614252613d1e565b5b600061426184828501613f6b565b91505092915050565b600061427582613ef8565b9050919050565b6142858161426a565b82525050565b600060c0820190506142a06000830189614213565b6142ad6020830188614213565b81810360408301526142bf8187613e3a565b905081810360608301526142d38186613e3a565b90506142e2608083018561427c565b6142ef60a0830184613db9565b979650505050505050565b61430381613dad565b811461430e57600080fd5b50565b600081359050614320816142fa565b92915050565b6000806040838503121561433d5761433c613d1e565b5b600061434b85828601613f6b565b925050602061435c85828601614311565b9150509250929050565b6000610120820190508181036000830152614381818c613e3a565b90508181036020830152614395818b613e3a565b90506143a4604083018a614213565b6143b16060830189613db9565b6143be608083018861427c565b6143cb60a083018761427c565b6143d860c0830186614213565b6143e560e0830185614213565b6143f3610100830184614213565b9a9950505050505050505050565b6000806040838503121561441857614417613d1e565b5b600061442685828601613eb6565b925050602061443785828601613eb6565b9150509250929050565b600067ffffffffffffffff82111561445c5761445b613fca565b5b61446582613e29565b9050602081019050919050565b600061448561448084614441565b61402a565b9050828152602081018484840111156144a1576144a0613fc5565b5b6144ac848285614076565b509392505050565b600082601f8301126144c9576144c8613fc0565b5b81356144d9848260208601614472565b91505092915050565b600080600080608085870312156144fc576144fb613d1e565b5b600061450a87828801613f6b565b945050602061451b87828801613f6b565b935050604061452c87828801613eb6565b925050606085013567ffffffffffffffff81111561454d5761454c613d23565b5b614559878288016144b4565b91505092959194509250565b6000806000806080858703121561457f5761457e613d1e565b5b600085013567ffffffffffffffff81111561459d5761459c613d23565b5b6145a9878288016140c7565b945050602085013567ffffffffffffffff8111156145ca576145c9613d23565b5b6145d6878288016140c7565b935050604085013567ffffffffffffffff8111156145f7576145f6613d23565b5b614603878288016140c7565b925050606061461487828801613eb6565b91505092959194509250565b6000806040838503121561463757614636613d1e565b5b600061464585828601613f6b565b925050602061465685828601613f6b565b9150509250929050565b7f4e487b7100000000000000000000000000000000000000000000000000000000600052602260045260246000fd5b600060028204905060018216806146a757607f821691505b6020821081036146ba576146b9614660565b5b50919050565b7f546865207072696365206973206e6f7420636f72726563740000000000000000600082015250565b60006146f6601883613dee565b9150614701826146c0565b602082019050919050565b60006020820190508181036000830152614725816146e9565b9050919050565b7f54686520636f6c6c656374696f6e20697320656d707479000000000000000000600082015250565b6000614762601783613dee565b915061476d8261472c565b602082019050919050565b6000602082019050818103600083015261479181614755565b9050919050565b7f596f752061726520746865206f776e6572206f66207468697320636f6c6c656360008201527f74696f6e00000000000000000000000000000000000000000000000000000000602082015250565b60006147f4602483613dee565b91506147ff82614798565b604082019050919050565b60006020820190508181036000830152614823816147e7565b9050919050565b7f54686520636f6c6c656374696f6e206973206e6f74206c697374656400000000600082015250565b6000614860601c83613dee565b915061486b8261482a565b602082019050919050565b6000602082019050818103600083015261488f81614853565b9050919050565b7f4e487b7100000000000000000000000000000000000000000000000000000000600052601160045260246000fd5b60006148d082613e95565b91506148db83613e95565b92508282026148e981613e95565b91508282048414831517614900576148ff614896565b5b5092915050565b7f4e487b7100000000000000000000000000000000000000000000000000000000600052601260045260246000fd5b600061494182613e95565b915061494c83613e95565b92508261495c5761495b614907565b5b828204905092915050565b600061497282613e95565b915061497d83613e95565b925082820390508181111561499557614994614896565b5b92915050565b7f4e487b7100000000000000000000000000000000000000000000000000000000600052603260045260246000fd5b6000819050919050565b60006149ef6149ea6149e584613ef8565b6149ca565b613ef8565b9050919050565b6000614a01826149d4565b9050919050565b6000614a13826149f6565b9050919050565b614a2381614a08565b82525050565b6000606082019050614a3e6000830186614a1a565b614a4b6020830185613f2a565b614a586040830184614213565b949350505050565b6000614a6b82613e95565b91507fffffffffffffffffffffffffffffffffffffffffffffffffffffffffffffffff8203614a9d57614a9c614896565b5b600182019050919050565b60008190508160005260206000209050919050565b60008154614aca8161468f565b614ad48186613dee565b94506001821660008114614aef5760018114614b0557614b38565b60ff198316865281151560200286019350614b38565b614b0e85614aa8565b60005b83811015614b3057815481890152600182019150602081019050614b11565b808801955050505b50505092915050565b60006080820190508181036000830152614b5b8187614abd565b9050614b6a6020830186614213565b614b776040830185614213565b614b846060830184613f2a565b95945050505050565b60006020601f8301049050919050565b600082821b905092915050565b600060088302614bda7fffffffffffffffffffffffffffffffffffffffffffffffffffffffffffffffff82614b9d565b614be48683614b9d565b95508019841693508086168417925050509392505050565b6000614c17614c12614c0d84613e95565b6149ca565b613e95565b9050919050565b6000819050919050565b614c3183614bfc565b614c45614c3d82614c1e565b848454614baa565b825550505050565b600090565b614c5a614c4d565b614c65818484614c28565b505050565b5b81811015614c8957614c7e600082614c52565b600181019050614c6b565b5050565b601f821115614cce57614c9f81614aa8565b614ca884614b8d565b81016020851015614cb7578190505b614ccb614cc385614b8d565b830182614c6a565b50505b505050565b600082821c905092915050565b6000614cf160001984600802614cd3565b1980831691505092915050565b6000614d0a8383614ce0565b9150826002028217905092915050565b614d2382613de3565b67ffffffffffffffff811115614d3c57614d3b613fca565b5b614d46825461468f565b614d51828285614c8d565b600060209050601f831160018114614d845760008415614d72578287015190505b614d7c8582614cfe565b865550614de4565b601f198416614d9286614aa8565b60005b82811015614dba57848901518255600182019150602085019450602081019050614d95565b86831015614dd75784890151614dd3601f891682614ce0565b8355505b6001600288020188555050505b505050505050565b60006060820190508181036000830152614e068186613e3a565b90508181036020830152614e1a8185613e3a565b9050614e296040830184613f2a565b949350505050565b600081519050614e4081613f54565b92915050565b600060208284031215614e5c57614e5b613d1e565b5b6000614e6a84828501614e31565b91505092915050565b7f596f7520617265206e6f7420746865206f776e6572206f662074686973204e4660008201527f5400000000000000000000000000000000000000000000000000000000000000602082015250565b6000614ecf602183613dee565b9150614eda82614e73565b604082019050919050565b60006020820190508181036000830152614efe81614ec2565b9050919050565b6000606082019050614f1a6000830186613f2a565b614f276020830185613f2a565b614f346040830184614213565b949350505050565b6000606082019050614f516000830186613f2a565b614f5e6020830185614213565b614f6b6040830184613f2a565b949350505050565b7f54686973204e4654206973206e6f74206c697374656400000000000000000000600082015250565b6000614fa9601683613dee565b9150614fb482614f73565b602082019050919050565b60006020820190508181036000830152614fd881614f9c565b9050919050565b7f596f752063616e6e6f7420626964206f6e20796f7572206f776e204e46540000600082015250565b6000615015601e83613dee565b915061502082614fdf565b602082019050919050565b6000602082019050818103600083015261504481615008565b9050919050565b7f596f757220626964206973206c6f776572207468616e2074686520686967686560008201527f7374206269640000000000000000000000000000000000000000000000000000602082015250565b60006150a7602683613dee565b91506150b28261504b565b604082019050919050565b600060208201905081810360008301526150d68161509a565b9050919050565b7f5468652061756374696f6e2068617320656e6465640000000000000000000000600082015250565b6000615113601583613dee565b915061511e826150dd565b602082019050919050565b6000602082019050818103600083015261514281615106565b9050919050565b7f596f757220626964206973206c6f776572207468616e2074686520737461727460008201527f696e672070726963650000000000000000000000000000000000000000000000602082015250565b60006151a5602983613dee565b91506151b082615149565b604082019050919050565b600060208201905081810360008301526151d481615198565b9050919050565b7f596f752061726520616c7265616479207468652068696768657374206269646460008201527f6572000000000000000000000000000000000000000000000000000000000000602082015250565b6000615237602283613dee565b9150615242826151db565b604082019050919050565b600060208201905081810360008301526152668161522a565b9050919050565b60006060820190506152826000830186614213565b61528f6020830185614213565b61529c6040830184613f2a565b949350505050565b7f5468652061756374696f6e20616c72656164792066696e697368656400000000600082015250565b60006152da601c83613dee565b91506152e5826152a4565b602082019050919050565b60006020820190508181036000830152615309816152cd565b9050919050565b60006040820190506153256000830185614213565b6153326020830184613f2a565b9392505050565b7f596f7520617265206e6f7420746865206f776e6572206f66207468697320636f60008201527f6c6c656374696f6e000000000000000000000000000000000000000000000000602082015250565b6000615395602883613dee565b91506153a082615339565b604082019050919050565b600060208201905081810360008301526153c481615388565b9050919050565b600060608201905081810360008301526153e58186614abd565b90506153f46020830185614213565b6154016040830184614213565b949350505050565b7f5468657265206973206e6f20636f6c6c656374696f6e20796f752073656c656360008201527f7400000000000000000000000000000000000000000000000000000000000000602082015250565b6000615465602183613dee565b915061547082615409565b604082019050919050565b6000602082019050818103600083015261549481615458565b9050919050565b600060a08201905081810360008301526154b58188613e3a565b905081810360208301526154c98187613e3a565b90506154d86040830186614213565b6154e56060830185613f2a565b81810360808301526154f78184613e3a565b90509695505050505050565b60006060820190506155186000830186613f2a565b6155256020830185614a1a565b6155326040830184614213565b949350505050565b7f4e487b7100000000000000000000000000000000000000000000000000000000600052603160045260246000fd5b600060608201905061557e6000830186614213565b61558b6020830185614213565b6155986040830184614a1a565b949350505050565b600081519050919050565b600082825260208201905092915050565b60006155c7826155a0565b6155d181856155ab565b93506155e1818560208601613dff565b6155ea81613e29565b840191505092915050565b600060808201905061560a6000830187613f2a565b6156176020830186613f2a565b6156246040830185614213565b818103606083015261563681846155bc565b905095945050505050565b60008151905061565081613d54565b92915050565b60006020828403121561566c5761566b613d1e565b5b600061567a84828501615641565b91505092915050565b600081905092915050565b600061569982613de3565b6156a38185615683565b93506156b3818560208601613dff565b80840191505092915050565b60006156cb828561568e565b91506156d7828461568e565b91508190509392505050565b60006040820190506156f86000830185613f2a565b6157056020830184614213565b939250505056fea26469706673582212207a0bf6df6984c9229b1e829db3407eba8ededaf76e6134a8f138695407e1027264736f6c63430008140033",
  "linkReferences": {},
  "deployedLinkReferences": {}
}