{
  "_format": "hh-sol-artifact-1",
  "contractName": "NFT_Marketplace",
  "sourceName": "src/contracts/abc/NFT_Marketplace.sol",
  "abi": [
    {
      "inputs": [],
      "stateMutability": "nonpayable",
      "type": "constructor"
    },
    {
      "inputs": [
        {
          "internalType": "address",
          "name": "sender",
          "type": "address"
        },
        {
          "internalType": "uint256",
          "name": "tokenId",
          "type": "uint256"
        },
        {
          "internalType": "address",
          "name": "owner",
          "type": "address"
        }
      ],
      "name": "ERC721IncorrectOwner",
      "type": "error"
    },
    {
      "inputs": [
        {
          "internalType": "address",
          "name": "operator",
          "type": "address"
        },
        {
          "internalType": "uint256",
          "name": "tokenId",
          "type": "uint256"
        }
      ],
      "name": "ERC721InsufficientApproval",
      "type": "error"
    },
    {
      "inputs": [
        {
          "internalType": "address",
          "name": "approver",
          "type": "address"
        }
      ],
      "name": "ERC721InvalidApprover",
      "type": "error"
    },
    {
      "inputs": [
        {
          "internalType": "address",
          "name": "operator",
          "type": "address"
        }
      ],
      "name": "ERC721InvalidOperator",
      "type": "error"
    },
    {
      "inputs": [
        {
          "internalType": "address",
          "name": "owner",
          "type": "address"
        }
      ],
      "name": "ERC721InvalidOwner",
      "type": "error"
    },
    {
      "inputs": [
        {
          "internalType": "address",
          "name": "receiver",
          "type": "address"
        }
      ],
      "name": "ERC721InvalidReceiver",
      "type": "error"
    },
    {
      "inputs": [
        {
          "internalType": "address",
          "name": "sender",
          "type": "address"
        }
      ],
      "name": "ERC721InvalidSender",
      "type": "error"
    },
    {
      "inputs": [
        {
          "internalType": "uint256",
          "name": "tokenId",
          "type": "uint256"
        }
      ],
      "name": "ERC721NonexistentToken",
      "type": "error"
    },
    {
      "inputs": [
        {
          "internalType": "address",
          "name": "owner",
          "type": "address"
        }
      ],
      "name": "OwnableInvalidOwner",
      "type": "error"
    },
    {
      "inputs": [
        {
          "internalType": "address",
          "name": "account",
          "type": "address"
        }
      ],
      "name": "OwnableUnauthorizedAccount",
      "type": "error"
    },
    {
      "anonymous": false,
      "inputs": [
        {
          "indexed": true,
          "internalType": "address",
          "name": "owner",
          "type": "address"
        },
        {
          "indexed": true,
          "internalType": "address",
          "name": "approved",
          "type": "address"
        },
        {
          "indexed": true,
          "internalType": "uint256",
          "name": "tokenId",
          "type": "uint256"
        }
      ],
      "name": "Approval",
      "type": "event"
    },
    {
      "anonymous": false,
      "inputs": [
        {
          "indexed": true,
          "internalType": "address",
          "name": "owner",
          "type": "address"
        },
        {
          "indexed": true,
          "internalType": "address",
          "name": "operator",
          "type": "address"
        },
        {
          "indexed": false,
          "internalType": "bool",
          "name": "approved",
          "type": "bool"
        }
      ],
      "name": "ApprovalForAll",
      "type": "event"
    },
    {
      "anonymous": false,
      "inputs": [
        {
          "indexed": false,
          "internalType": "uint256",
          "name": "_fromTokenId",
          "type": "uint256"
        },
        {
          "indexed": false,
          "internalType": "uint256",
          "name": "_toTokenId",
          "type": "uint256"
        }
      ],
      "name": "BatchMetadataUpdate",
      "type": "event"
    },
    {
      "anonymous": false,
      "inputs": [
        {
          "indexed": false,
          "internalType": "uint256",
          "name": "_tokenId",
          "type": "uint256"
        }
      ],
      "name": "MetadataUpdate",
      "type": "event"
    },
    {
      "anonymous": false,
      "inputs": [
        {
          "indexed": true,
          "internalType": "address",
          "name": "previousOwner",
          "type": "address"
        },
        {
          "indexed": true,
          "internalType": "address",
          "name": "newOwner",
          "type": "address"
        }
      ],
      "name": "OwnershipTransferred",
      "type": "event"
    },
    {
      "anonymous": false,
      "inputs": [
        {
          "indexed": true,
          "internalType": "address",
          "name": "from",
          "type": "address"
        },
        {
          "indexed": true,
          "internalType": "address",
          "name": "to",
          "type": "address"
        },
        {
          "indexed": true,
          "internalType": "uint256",
          "name": "tokenId",
          "type": "uint256"
        }
      ],
      "name": "Transfer",
      "type": "event"
    },
    {
      "inputs": [
        {
          "internalType": "uint256",
          "name": "",
          "type": "uint256"
        }
      ],
      "name": "Collections",
      "outputs": [
        {
          "internalType": "uint256",
          "name": "collectionId",
          "type": "uint256"
        },
        {
          "internalType": "uint256",
          "name": "bundle_price",
          "type": "uint256"
        },
        {
          "internalType": "string",
          "name": "name",
          "type": "string"
        },
        {
          "internalType": "string",
          "name": "description",
          "type": "string"
        },
        {
          "internalType": "address payable",
          "name": "owner",
          "type": "address"
        },
        {
          "internalType": "bool",
          "name": "isListed",
          "type": "bool"
        }
      ],
      "stateMutability": "view",
      "type": "function"
    },
    {
      "inputs": [
        {
          "internalType": "uint256",
          "name": "",
          "type": "uint256"
        }
      ],
      "name": "Items",
      "outputs": [
        {
          "internalType": "string",
          "name": "name",
          "type": "string"
        },
        {
          "internalType": "string",
          "name": "description",
          "type": "string"
        },
        {
          "internalType": "uint256",
          "name": "collectionID",
          "type": "uint256"
        },
        {
          "internalType": "bool",
          "name": "isListed",
          "type": "bool"
        },
        {
          "internalType": "address payable",
          "name": "owner",
          "type": "address"
        },
        {
          "internalType": "address payable",
          "name": "highestBidder",
          "type": "address"
        },
        {
          "internalType": "uint256",
          "name": "highestBid",
          "type": "uint256"
        },
        {
          "internalType": "uint256",
          "name": "startingPrice",
          "type": "uint256"
        },
        {
          "internalType": "uint256",
          "name": "deadline",
          "type": "uint256"
        }
      ],
      "stateMutability": "view",
      "type": "function"
    },
    {
      "inputs": [
        {
          "internalType": "address",
          "name": "to",
          "type": "address"
        },
        {
          "internalType": "uint256",
          "name": "tokenId",
          "type": "uint256"
        }
      ],
      "name": "approve",
      "outputs": [],
      "stateMutability": "nonpayable",
      "type": "function"
    },
    {
      "inputs": [
        {
          "internalType": "address",
          "name": "owner",
          "type": "address"
        }
      ],
      "name": "balanceOf",
      "outputs": [
        {
          "internalType": "uint256",
          "name": "",
          "type": "uint256"
        }
      ],
      "stateMutability": "view",
      "type": "function"
    },
    {
      "inputs": [
        {
          "internalType": "uint256",
          "name": "_tokenID",
          "type": "uint256"
        }
      ],
      "name": "bid",
      "outputs": [],
      "stateMutability": "payable",
      "type": "function"
    },
    {
      "inputs": [
        {
          "internalType": "uint256",
          "name": "_collectionID",
          "type": "uint256"
        }
      ],
      "name": "buyCollection",
      "outputs": [],
      "stateMutability": "payable",
      "type": "function"
    },
    {
      "inputs": [
        {
          "internalType": "uint256",
          "name": "_tokenID",
          "type": "uint256"
        }
      ],
      "name": "cancelAuction",
      "outputs": [],
      "stateMutability": "nonpayable",
      "type": "function"
    },
    {
      "inputs": [
        {
          "internalType": "string",
          "name": "_name",
          "type": "string"
        },
        {
          "internalType": "string",
          "name": "_description",
          "type": "string"
        }
      ],
      "name": "createCollection",
      "outputs": [],
      "stateMutability": "nonpayable",
      "type": "function"
    },
    {
      "inputs": [
        {
          "internalType": "uint256",
          "name": "_tokenID",
          "type": "uint256"
        }
      ],
      "name": "finishAuction",
      "outputs": [],
      "stateMutability": "nonpayable",
      "type": "function"
    },
    {
      "inputs": [
        {
          "internalType": "uint256",
          "name": "tokenId",
          "type": "uint256"
        }
      ],
      "name": "getApproved",
      "outputs": [
        {
          "internalType": "address",
          "name": "",
          "type": "address"
        }
      ],
      "stateMutability": "view",
      "type": "function"
    },
    {
      "inputs": [
        {
          "internalType": "address",
          "name": "owner",
          "type": "address"
        },
        {
          "internalType": "address",
          "name": "operator",
          "type": "address"
        }
      ],
      "name": "isApprovedForAll",
      "outputs": [
        {
          "internalType": "bool",
          "name": "",
          "type": "bool"
        }
      ],
      "stateMutability": "view",
      "type": "function"
    },
    {
      "inputs": [],
      "name": "name",
      "outputs": [
        {
          "internalType": "string",
          "name": "",
          "type": "string"
        }
      ],
      "stateMutability": "view",
      "type": "function"
    },
    {
      "inputs": [],
      "name": "owner",
      "outputs": [
        {
          "internalType": "address",
          "name": "",
          "type": "address"
        }
      ],
      "stateMutability": "view",
      "type": "function"
    },
    {
      "inputs": [
        {
          "internalType": "uint256",
          "name": "tokenId",
          "type": "uint256"
        }
      ],
      "name": "ownerOf",
      "outputs": [
        {
          "internalType": "address",
          "name": "",
          "type": "address"
        }
      ],
      "stateMutability": "view",
      "type": "function"
    },
    {
      "inputs": [],
      "name": "renounceOwnership",
      "outputs": [],
      "stateMutability": "nonpayable",
      "type": "function"
    },
    {
      "inputs": [
        {
          "internalType": "string",
          "name": "_tokenURI",
          "type": "string"
        },
        {
          "internalType": "string",
          "name": "_name",
          "type": "string"
        },
        {
          "internalType": "string",
          "name": "_description",
          "type": "string"
        },
        {
          "internalType": "uint256",
          "name": "_collectionID",
          "type": "uint256"
        }
      ],
      "name": "safeMint",
      "outputs": [],
      "stateMutability": "nonpayable",
      "type": "function"
    },
    {
      "inputs": [
        {
          "internalType": "address",
          "name": "from",
          "type": "address"
        },
        {
          "internalType": "address",
          "name": "to",
          "type": "address"
        },
        {
          "internalType": "uint256",
          "name": "tokenId",
          "type": "uint256"
        }
      ],
      "name": "safeTransferFrom",
      "outputs": [],
      "stateMutability": "nonpayable",
      "type": "function"
    },
    {
      "inputs": [
        {
          "internalType": "address",
          "name": "from",
          "type": "address"
        },
        {
          "internalType": "address",
          "name": "to",
          "type": "address"
        },
        {
          "internalType": "uint256",
          "name": "tokenId",
          "type": "uint256"
        },
        {
          "internalType": "bytes",
          "name": "data",
          "type": "bytes"
        }
      ],
      "name": "safeTransferFrom",
      "outputs": [],
      "stateMutability": "nonpayable",
      "type": "function"
    },
    {
      "inputs": [
        {
          "internalType": "uint256",
          "name": "_tokenID",
          "type": "uint256"
        },
        {
          "internalType": "uint256",
          "name": "_startingPrice",
          "type": "uint256"
        },
        {
          "internalType": "uint256",
          "name": "_deadline",
          "type": "uint256"
        }
      ],
      "name": "sellNFT",
      "outputs": [],
      "stateMutability": "nonpayable",
      "type": "function"
    },
    {
      "inputs": [
        {
          "internalType": "address",
          "name": "operator",
          "type": "address"
        },
        {
          "internalType": "bool",
          "name": "approved",
          "type": "bool"
        }
      ],
      "name": "setApprovalForAll",
      "outputs": [],
      "stateMutability": "nonpayable",
      "type": "function"
    },
    {
      "inputs": [
        {
          "internalType": "uint256",
          "name": "_collectionID",
          "type": "uint256"
        },
        {
          "internalType": "uint256",
          "name": "_tokenID",
          "type": "uint256"
        }
      ],
      "name": "setCollection",
      "outputs": [],
      "stateMutability": "nonpayable",
      "type": "function"
    },
    {
      "inputs": [
        {
          "internalType": "uint256",
          "name": "_collectionID",
          "type": "uint256"
        },
        {
          "internalType": "uint256",
          "name": "_price",
          "type": "uint256"
        }
      ],
      "name": "setCollectionPrice",
      "outputs": [],
      "stateMutability": "nonpayable",
      "type": "function"
    },
    {
      "inputs": [
        {
          "internalType": "uint256",
          "name": "_feePercent",
          "type": "uint256"
        }
      ],
      "name": "setFeePercent",
      "outputs": [],
      "stateMutability": "nonpayable",
      "type": "function"
    },
    {
      "inputs": [
        {
          "internalType": "bytes4",
          "name": "interfaceId",
          "type": "bytes4"
        }
      ],
      "name": "supportsInterface",
      "outputs": [
        {
          "internalType": "bool",
          "name": "",
          "type": "bool"
        }
      ],
      "stateMutability": "view",
      "type": "function"
    },
    {
      "inputs": [],
      "name": "symbol",
      "outputs": [
        {
          "internalType": "string",
          "name": "",
          "type": "string"
        }
      ],
      "stateMutability": "view",
      "type": "function"
    },
    {
      "inputs": [
        {
          "internalType": "uint256",
          "name": "tokenId",
          "type": "uint256"
        }
      ],
      "name": "tokenURI",
      "outputs": [
        {
          "internalType": "string",
          "name": "",
          "type": "string"
        }
      ],
      "stateMutability": "view",
      "type": "function"
    },
    {
      "inputs": [
        {
          "internalType": "address",
          "name": "from",
          "type": "address"
        },
        {
          "internalType": "address",
          "name": "to",
          "type": "address"
        },
        {
          "internalType": "uint256",
          "name": "tokenId",
          "type": "uint256"
        }
      ],
      "name": "transferFrom",
      "outputs": [],
      "stateMutability": "nonpayable",
      "type": "function"
    },
    {
      "inputs": [
        {
          "internalType": "address",
          "name": "newOwner",
          "type": "address"
        }
      ],
      "name": "transferOwnership",
      "outputs": [],
      "stateMutability": "nonpayable",
      "type": "function"
    }
  ],
  "bytecode": "0x6080604052600160085560016009556005600a553480156200002057600080fd5b50336040518060400160405280600781526020017f4245455f4e4654000000000000000000000000000000000000000000000000008152506040518060400160405280600681526020017f4245454e4654000000000000000000000000000000000000000000000000000081525081600090816200009f919062000481565b508060019081620000b1919062000481565b505050600073ffffffffffffffffffffffffffffffffffffffff168173ffffffffffffffffffffffffffffffffffffffff1603620001295760006040517f1e4fbdf7000000000000000000000000000000000000000000000000000000008152600401620001209190620005ad565b60405180910390fd5b6200013a816200014160201b60201c565b50620005ca565b6000600760009054906101000a900473ffffffffffffffffffffffffffffffffffffffff16905081600760006101000a81548173ffffffffffffffffffffffffffffffffffffffff021916908373ffffffffffffffffffffffffffffffffffffffff1602179055508173ffffffffffffffffffffffffffffffffffffffff168173ffffffffffffffffffffffffffffffffffffffff167f8be0079c531659141344cd1fd0a4f28419497f9722a3daafe3b4186f6b6457e060405160405180910390a35050565b600081519050919050565b7f4e487b7100000000000000000000000000000000000000000000000000000000600052604160045260246000fd5b7f4e487b7100000000000000000000000000000000000000000000000000000000600052602260045260246000fd5b600060028204905060018216806200028957607f821691505b6020821081036200029f576200029e62000241565b5b50919050565b60008190508160005260206000209050919050565b60006020601f8301049050919050565b600082821b905092915050565b600060088302620003097fffffffffffffffffffffffffffffffffffffffffffffffffffffffffffffffff82620002ca565b620003158683620002ca565b95508019841693508086168417925050509392505050565b6000819050919050565b6000819050919050565b6000620003626200035c62000356846200032d565b62000337565b6200032d565b9050919050565b6000819050919050565b6200037e8362000341565b620003966200038d8262000369565b848454620002d7565b825550505050565b600090565b620003ad6200039e565b620003ba81848462000373565b505050565b5b81811015620003e257620003d6600082620003a3565b600181019050620003c0565b5050565b601f8211156200043157620003fb81620002a5565b6200040684620002ba565b8101602085101562000416578190505b6200042e6200042585620002ba565b830182620003bf565b50505b505050565b600082821c905092915050565b6000620004566000198460080262000436565b1980831691505092915050565b600062000471838362000443565b9150826002028217905092915050565b6200048c8262000207565b67ffffffffffffffff811115620004a857620004a762000212565b5b620004b4825462000270565b620004c1828285620003e6565b600060209050601f831160018114620004f95760008415620004e4578287015190505b620004f0858262000463565b86555062000560565b601f1984166200050986620002a5565b60005b8281101562000533578489015182556001820191506020850194506020810190506200050c565b868310156200055357848901516200054f601f89168262000443565b8355505b6001600288020188555050505b505050505050565b600073ffffffffffffffffffffffffffffffffffffffff82169050919050565b6000620005958262000568565b9050919050565b620005a78162000588565b82525050565b6000602082019050620005c460008301846200059c565b92915050565b6151a780620005da6000396000f3fe6080604052600436106101b75760003560e01c8063715018a6116100ec578063b3d84ae81161008a578063c87b56dd11610064578063c87b56dd146105f3578063cf266ed014610630578063e985e9c514610659578063f2fde38b14610696576101b7565b8063b3d84ae814610578578063b88d4fde146105a1578063c7d31b30146105ca576101b7565b806395d89b41116100c657806395d89b41146104b957806396b5a755146104e4578063978196091461050d578063a22cb4651461054f576101b7565b8063715018a61461044e5780637ce3489b146104655780638da5cb5b1461048e576101b7565b8063214eac4f11610159578063454a2ab311610133578063454a2ab31461038f5780635693a2d2146103ab5780636352211e146103d457806370a0823114610411576101b7565b8063214eac4f1461031457806323b872dd1461033d57806342842e0e14610366576101b7565b8063095ea7b311610195578063095ea7b314610261578063110243001461028a578063176b9b75146102a657806317b47cc4146102cf576101b7565b806301ffc9a7146101bc57806306fdde03146101f9578063081812fc14610224575b600080fd5b3480156101c857600080fd5b506101e360048036038101906101de9190613a37565b6106bf565b6040516101f09190613a7f565b60405180910390f35b34801561020557600080fd5b5061020e6106d1565b60405161021b9190613b2a565b60405180910390f35b34801561023057600080fd5b5061024b60048036038101906102469190613b82565b610763565b6040516102589190613bf0565b60405180910390f35b34801561026d57600080fd5b5061028860048036038101906102839190613c37565b61077f565b005b6102a4600480360381019061029f9190613b82565b610795565b005b3480156102b257600080fd5b506102cd60048036038101906102c89190613dac565b610c01565b005b3480156102db57600080fd5b506102f660048036038101906102f19190613b82565b610d4f565b60405161030b99989796959493929190613e54565b60405180910390f35b34801561032057600080fd5b5061033b60048036038101906103369190613eef565b610efa565b005b34801561034957600080fd5b50610364600480360381019061035f9190613f42565b6110c0565b005b34801561037257600080fd5b5061038d60048036038101906103889190613f42565b6111c2565b005b6103a960048036038101906103a49190613b82565b6111e2565b005b3480156103b757600080fd5b506103d260048036038101906103cd9190613f95565b6115a2565b005b3480156103e057600080fd5b506103fb60048036038101906103f69190613b82565b6117e9565b6040516104089190613bf0565b60405180910390f35b34801561041d57600080fd5b5061043860048036038101906104339190614050565b6117fb565b604051610445919061407d565b60405180910390f35b34801561045a57600080fd5b506104636118b5565b005b34801561047157600080fd5b5061048c60048036038101906104879190613b82565b6118c9565b005b34801561049a57600080fd5b506104a36118db565b6040516104b09190613bf0565b60405180910390f35b3480156104c557600080fd5b506104ce611905565b6040516104db9190613b2a565b60405180910390f35b3480156104f057600080fd5b5061050b60048036038101906105069190613b82565b611997565b005b34801561051957600080fd5b50610534600480360381019061052f9190613b82565b611ce1565b60405161054696959493929190614098565b60405180910390f35b34801561055b57600080fd5b5061057660048036038101906105719190614133565b611e5a565b005b34801561058457600080fd5b5061059f600480360381019061059a9190614173565b611e70565b005b3480156105ad57600080fd5b506105c860048036038101906105c39190614254565b611fd7565b005b3480156105d657600080fd5b506105f160048036038101906105ec9190614173565b611ff4565b005b3480156105ff57600080fd5b5061061a60048036038101906106159190613b82565b6120e6565b6040516106279190613b2a565b60405180910390f35b34801561063c57600080fd5b5061065760048036038101906106529190613b82565b6120f8565b005b34801561066557600080fd5b50610680600480360381019061067b91906142d7565b612664565b60405161068d9190613a7f565b60405180910390f35b3480156106a257600080fd5b506106bd60048036038101906106b89190614050565b6126f8565b005b60006106ca8261277e565b9050919050565b6060600080546106e090614346565b80601f016020809104026020016040519081016040528092919081815260200182805461070c90614346565b80156107595780601f1061072e57610100808354040283529160200191610759565b820191906000526020600020905b81548152906001019060200180831161073c57829003601f168201915b5050505050905090565b600061076e826127df565b5061077882612867565b9050919050565b610791828261078c6128a4565b6128ac565b5050565b600c60008281526020019081526020016000206001015434146107ed576040517f08c379a00000000000000000000000000000000000000000000000000000000081526004016107e4906143c3565b60405180910390fd5b6000600c60008381526020019081526020016000206005018054905011610849576040517f08c379a00000000000000000000000000000000000000000000000000000000081526004016108409061442f565b60405180910390fd5b600c600082815260200190815260200160002060040160009054906101000a900473ffffffffffffffffffffffffffffffffffffffff1673ffffffffffffffffffffffffffffffffffffffff163373ffffffffffffffffffffffffffffffffffffffff16036108ed576040517f08c379a00000000000000000000000000000000000000000000000000000000081526004016108e4906144c1565b60405180910390fd5b600c600082815260200190815260200160002060060160009054906101000a900460ff16610950576040517f08c379a00000000000000000000000000000000000000000000000000000000081526004016109479061452d565b60405180910390fd5b600c600082815260200190815260200160002060040160009054906101000a900473ffffffffffffffffffffffffffffffffffffffff1673ffffffffffffffffffffffffffffffffffffffff166108fc6064600a54346109b0919061457c565b6109ba91906145ed565b346109c5919061461e565b9081150290604051600060405180830381858888f193505050501580156109f0573d6000803e3d6000fd5b5033600c600083815260200190815260200160002060040160006101000a81548173ffffffffffffffffffffffffffffffffffffffff021916908373ffffffffffffffffffffffffffffffffffffffff1602179055506000600c60008381526020019081526020016000206001018190555060005b600c600083815260200190815260200160002060050180549050811015610bfd5760003090508073ffffffffffffffffffffffffffffffffffffffff166323b872dd600c600086815260200190815260200160002060040160009054906101000a900473ffffffffffffffffffffffffffffffffffffffff1633600c60008881526020019081526020016000206005018681548110610b0757610b06614652565b5b90600052602060002001546040518463ffffffff1660e01b8152600401610b30939291906146e0565b600060405180830381600087803b158015610b4a57600080fd5b505af1158015610b5e573d6000803e3d6000fd5b5050505033600b6000600c60008781526020019081526020016000206005018581548110610b8f57610b8e614652565b5b9060005260206000200154815260200190815260200160002060030160016101000a81548173ffffffffffffffffffffffffffffffffffffffff021916908373ffffffffffffffffffffffffffffffffffffffff160217905550508080610bf590614717565b915050610a65565b5050565b6000600954905060096000815480929190610c1b90614717565b919050555060606040518060e00160405280838152602001600081526020018581526020018481526020013373ffffffffffffffffffffffffffffffffffffffff16815260200182815260200160001515815250600c600084815260200190815260200160002060008201518160000155602082015181600101556040820151816002019081610cab9190614901565b506060820151816003019081610cc19190614901565b5060808201518160040160006101000a81548173ffffffffffffffffffffffffffffffffffffffff021916908373ffffffffffffffffffffffffffffffffffffffff16021790555060a0820151816005019080519060200190610d25929190613961565b5060c08201518160060160006101000a81548160ff02191690831515021790555090505050505050565b600b602052806000526040600020600091509050806000018054610d7290614346565b80601f0160208091040260200160405190810160405280929190818152602001828054610d9e90614346565b8015610deb5780601f10610dc057610100808354040283529160200191610deb565b820191906000526020600020905b815481529060010190602001808311610dce57829003601f168201915b505050505090806001018054610e0090614346565b80601f0160208091040260200160405190810160405280929190818152602001828054610e2c90614346565b8015610e795780601f10610e4e57610100808354040283529160200191610e79565b820191906000526020600020905b815481529060010190602001808311610e5c57829003601f168201915b5050505050908060020154908060030160009054906101000a900460ff16908060030160019054906101000a900473ffffffffffffffffffffffffffffffffffffffff16908060040160009054906101000a900473ffffffffffffffffffffffffffffffffffffffff16908060050154908060060154908060070154905089565b60003090503373ffffffffffffffffffffffffffffffffffffffff168173ffffffffffffffffffffffffffffffffffffffff16636352211e866040518263ffffffff1660e01b8152600401610f4f919061407d565b602060405180830381865afa158015610f6c573d6000803e3d6000fd5b505050506040513d601f19601f82011682018060405250810190610f9091906149e8565b73ffffffffffffffffffffffffffffffffffffffff1614610fe6576040517f08c379a0000000000000000000000000000000000000000000000000000000008152600401610fdd90614a87565b60405180910390fd5b8073ffffffffffffffffffffffffffffffffffffffff166323b872dd3330876040518463ffffffff1660e01b815260040161102393929190614aa7565b600060405180830381600087803b15801561103d57600080fd5b505af1158015611051573d6000803e3d6000fd5b505050506001600b600086815260200190815260200160002060030160006101000a81548160ff02191690831515021790555082600b60008681526020019081526020016000206006018190555081600b60008681526020019081526020016000206007018190555050505050565b600073ffffffffffffffffffffffffffffffffffffffff168273ffffffffffffffffffffffffffffffffffffffff16036111325760006040517f64a0ae920000000000000000000000000000000000000000000000000000000081526004016111299190613bf0565b60405180910390fd5b600061114683836111416128a4565b6128be565b90508373ffffffffffffffffffffffffffffffffffffffff168173ffffffffffffffffffffffffffffffffffffffff16146111bc578382826040517f64283d7b0000000000000000000000000000000000000000000000000000000081526004016111b393929190614ade565b60405180910390fd5b50505050565b6111dd83838360405180602001604052806000815250611fd7565b505050565b60011515600b600083815260200190815260200160002060030160009054906101000a900460ff1615151461124c576040517f08c379a000000000000000000000000000000000000000000000000000000000815260040161124390614b61565b60405180910390fd5b600b600082815260200190815260200160002060030160019054906101000a900473ffffffffffffffffffffffffffffffffffffffff1673ffffffffffffffffffffffffffffffffffffffff163373ffffffffffffffffffffffffffffffffffffffff16036112f0576040517f08c379a00000000000000000000000000000000000000000000000000000000081526004016112e790614bcd565b60405180910390fd5b600b6000828152602001908152602001600020600501543411611348576040517f08c379a000000000000000000000000000000000000000000000000000000000815260040161133f90614c5f565b60405180910390fd5b600b60008281526020019081526020016000206007015442106113a0576040517f08c379a000000000000000000000000000000000000000000000000000000000815260040161139790614ccb565b60405180910390fd5b600b60008281526020019081526020016000206006015434116113f8576040517f08c379a00000000000000000000000000000000000000000000000000000000081526004016113ef90614d5d565b60405180910390fd5b600b600082815260200190815260200160002060040160009054906101000a900473ffffffffffffffffffffffffffffffffffffffff1673ffffffffffffffffffffffffffffffffffffffff163373ffffffffffffffffffffffffffffffffffffffff160361149c576040517f08c379a000000000000000000000000000000000000000000000000000000000815260040161149390614def565b60405180910390fd5b600b600082815260200190815260200160002060040160009054906101000a900473ffffffffffffffffffffffffffffffffffffffff1673ffffffffffffffffffffffffffffffffffffffff166108fc600b6000848152602001908152602001600020600501549081150290604051600060405180830381858888f1935050505015801561152e573d6000803e3d6000fd5b5033600b600083815260200190815260200160002060040160006101000a81548173ffffffffffffffffffffffffffffffffffffffff021916908373ffffffffffffffffffffffffffffffffffffffff16021790555034600b60008381526020019081526020016000206005018190555050565b60095481106115e6576040517f08c379a00000000000000000000000000000000000000000000000000000000081526004016115dd90614e81565b60405180910390fd5b600060085490506008600081548092919061160090614717565b919050555061160f3382612ad8565b6116198186612af6565b6040518061012001604052808581526020018481526020018381526020016000151581526020013373ffffffffffffffffffffffffffffffffffffffff168152602001600073ffffffffffffffffffffffffffffffffffffffff16815260200160008152602001600081526020016000815250600b600083815260200190815260200160002060008201518160000190816116b49190614901565b5060208201518160010190816116ca9190614901565b506040820151816002015560608201518160030160006101000a81548160ff02191690831515021790555060808201518160030160016101000a81548173ffffffffffffffffffffffffffffffffffffffff021916908373ffffffffffffffffffffffffffffffffffffffff16021790555060a08201518160040160006101000a81548173ffffffffffffffffffffffffffffffffffffffff021916908373ffffffffffffffffffffffffffffffffffffffff16021790555060c0820151816005015560e082015181600601556101008201518160070155905050600c60008381526020019081526020016000206005018190806001815401808255809150506001900390600052602060002001600090919091909150555050505050565b60006117f4826127df565b9050919050565b60008073ffffffffffffffffffffffffffffffffffffffff168273ffffffffffffffffffffffffffffffffffffffff160361186e5760006040517f89c62b640000000000000000000000000000000000000000000000000000000081526004016118659190613bf0565b60405180910390fd5b600360008373ffffffffffffffffffffffffffffffffffffffff1673ffffffffffffffffffffffffffffffffffffffff168152602001908152602001600020549050919050565b6118bd612b52565b6118c76000612bd9565b565b6118d1612b52565b80600a8190555050565b6000600760009054906101000a900473ffffffffffffffffffffffffffffffffffffffff16905090565b60606001805461191490614346565b80601f016020809104026020016040519081016040528092919081815260200182805461194090614346565b801561198d5780601f106119625761010080835404028352916020019161198d565b820191906000526020600020905b81548152906001019060200180831161197057829003601f168201915b5050505050905090565b60003090503373ffffffffffffffffffffffffffffffffffffffff16600b600084815260200190815260200160002060030160019054906101000a900473ffffffffffffffffffffffffffffffffffffffff1673ffffffffffffffffffffffffffffffffffffffff1614611a40576040517f08c379a0000000000000000000000000000000000000000000000000000000008152600401611a3790614a87565b60405180910390fd5b60011515600b600084815260200190815260200160002060030160009054906101000a900460ff16151514611aaa576040517f08c379a0000000000000000000000000000000000000000000000000000000008152600401611aa190614b61565b60405180910390fd5b600b6000838152602001908152602001600020600701544210611b02576040517f08c379a0000000000000000000000000000000000000000000000000000000008152600401611af990614eed565b60405180910390fd5b6000600b600084815260200190815260200160002060030160006101000a81548160ff021916908315150217905550600b600083815260200190815260200160002060040160009054906101000a900473ffffffffffffffffffffffffffffffffffffffff1673ffffffffffffffffffffffffffffffffffffffff166108fc600b6000858152602001908152602001600020600501549081150290604051600060405180830381858888f19350505050158015611bc3573d6000803e3d6000fd5b506000600b600084815260200190815260200160002060040160006101000a81548173ffffffffffffffffffffffffffffffffffffffff021916908373ffffffffffffffffffffffffffffffffffffffff1602179055506000600b6000848152602001908152602001600020600501819055506000600b6000848152602001908152602001600020600601819055506000600b6000848152602001908152602001600020600701819055508073ffffffffffffffffffffffffffffffffffffffff166323b872dd3033856040518463ffffffff1660e01b8152600401611cab93929190614aa7565b600060405180830381600087803b158015611cc557600080fd5b505af1158015611cd9573d6000803e3d6000fd5b505050505050565b600c602052806000526040600020600091509050806000015490806001015490806002018054611d1090614346565b80601f0160208091040260200160405190810160405280929190818152602001828054611d3c90614346565b8015611d895780601f10611d5e57610100808354040283529160200191611d89565b820191906000526020600020905b815481529060010190602001808311611d6c57829003601f168201915b505050505090806003018054611d9e90614346565b80601f0160208091040260200160405190810160405280929190818152602001828054611dca90614346565b8015611e175780601f10611dec57610100808354040283529160200191611e17565b820191906000526020600020905b815481529060010190602001808311611dfa57829003601f168201915b5050505050908060040160009054906101000a900473ffffffffffffffffffffffffffffffffffffffff16908060060160009054906101000a900460ff16905086565b611e6c611e656128a4565b8383612c9f565b5050565b600c600083815260200190815260200160002060040160009054906101000a900473ffffffffffffffffffffffffffffffffffffffff1673ffffffffffffffffffffffffffffffffffffffff163373ffffffffffffffffffffffffffffffffffffffff1614611f14576040517f08c379a0000000000000000000000000000000000000000000000000000000008152600401611f0b90614f7f565b60405180910390fd5b600b600082815260200190815260200160002060030160019054906101000a900473ffffffffffffffffffffffffffffffffffffffff1673ffffffffffffffffffffffffffffffffffffffff163373ffffffffffffffffffffffffffffffffffffffff1614611fb8576040517f08c379a0000000000000000000000000000000000000000000000000000000008152600401611faf90614a87565b60405180910390fd5b81600b6000838152602001908152602001600020600201819055505050565b611fe28484846110c0565b611fee84848484612e0e565b50505050565b600c600083815260200190815260200160002060040160009054906101000a900473ffffffffffffffffffffffffffffffffffffffff1673ffffffffffffffffffffffffffffffffffffffff163373ffffffffffffffffffffffffffffffffffffffff1614612098576040517f08c379a000000000000000000000000000000000000000000000000000000000815260040161208f90614f7f565b60405180910390fd5b6001600c600084815260200190815260200160002060060160006101000a81548160ff02191690831515021790555080600c6000848152602001908152602001600020600101819055505050565b60606120f182612fc5565b9050919050565b600030905060011515600b600084815260200190815260200160002060030160009054906101000a900460ff16151514612167576040517f08c379a000000000000000000000000000000000000000000000000000000000815260040161215e90614b61565b60405180910390fd5b600b60008381526020019081526020016000206007015442106121bf576040517f08c379a00000000000000000000000000000000000000000000000000000000081526004016121b690614eed565b60405180910390fd5b8073ffffffffffffffffffffffffffffffffffffffff166323b872dd30600b600086815260200190815260200160002060040160009054906101000a900473ffffffffffffffffffffffffffffffffffffffff16856040518463ffffffff1660e01b815260040161223293929190614f9f565b600060405180830381600087803b15801561224c57600080fd5b505af1158015612260573d6000803e3d6000fd5b50505050600b600083815260200190815260200160002060030160019054906101000a900473ffffffffffffffffffffffffffffffffffffffff1673ffffffffffffffffffffffffffffffffffffffff166108fc6064600a546122c391906145ed565b60016122cf919061461e565b600b6000868152602001908152602001600020600501546122f0919061457c565b9081150290604051600060405180830381858888f1935050505015801561231b573d6000803e3d6000fd5b506000600b600084815260200190815260200160002060030160006101000a81548160ff021916908315150217905550600b600083815260200190815260200160002060040160009054906101000a900473ffffffffffffffffffffffffffffffffffffffff16600b600084815260200190815260200160002060030160016101000a81548173ffffffffffffffffffffffffffffffffffffffff021916908373ffffffffffffffffffffffffffffffffffffffff1602179055506000600b600084815260200190815260200160002060040160006101000a81548173ffffffffffffffffffffffffffffffffffffffff021916908373ffffffffffffffffffffffffffffffffffffffff1602179055506000600b6000848152602001908152602001600020600501819055506000600b6000848152602001908152602001600020600601819055506000600b6000848152602001908152602001600020600701819055506000600b6000848152602001908152602001600020600201819055506000600190505b600c6000600b60008681526020019081526020016000206002015481526020019081526020016000206005018054905081101561265f5782600c6000600b6000878152602001908152602001600020600201548152602001908152602001600020600501828154811061251957612518614652565b5b90600052602060002001540361264c57600c6000600b60008681526020019081526020016000206002015481526020019081526020016000206005016001600c6000600b600088815260200190815260200160002060020154815260200190815260200160002060050180549050612591919061461e565b815481106125a2576125a1614652565b5b9060005260206000200154600c6000600b600087815260200190815260200160002060020154815260200190815260200160002060050182815481106125eb576125ea614652565b5b9060005260206000200181905550600c6000600b600086815260200190815260200160002060020154815260200190815260200160002060050180548061263557612634614fd6565b5b600190038181906000526020600020016000905590555b808061265790614717565b9150506124a3565b505050565b6000600560008473ffffffffffffffffffffffffffffffffffffffff1673ffffffffffffffffffffffffffffffffffffffff16815260200190815260200160002060008373ffffffffffffffffffffffffffffffffffffffff1673ffffffffffffffffffffffffffffffffffffffff16815260200190815260200160002060009054906101000a900460ff16905092915050565b612700612b52565b600073ffffffffffffffffffffffffffffffffffffffff168173ffffffffffffffffffffffffffffffffffffffff16036127725760006040517f1e4fbdf70000000000000000000000000000000000000000000000000000000081526004016127699190613bf0565b60405180910390fd5b61277b81612bd9565b50565b6000634906490660e01b7bffffffffffffffffffffffffffffffffffffffffffffffffffffffff1916827bffffffffffffffffffffffffffffffffffffffffffffffffffffffff191614806127d857506127d7826130d8565b5b9050919050565b6000806127eb836131ba565b9050600073ffffffffffffffffffffffffffffffffffffffff168173ffffffffffffffffffffffffffffffffffffffff160361285e57826040517f7e273289000000000000000000000000000000000000000000000000000000008152600401612855919061407d565b60405180910390fd5b80915050919050565b60006004600083815260200190815260200160002060009054906101000a900473ffffffffffffffffffffffffffffffffffffffff169050919050565b600033905090565b6128b983838360016131f7565b505050565b6000806128ca846131ba565b9050600073ffffffffffffffffffffffffffffffffffffffff168373ffffffffffffffffffffffffffffffffffffffff161461290c5761290b8184866133bc565b5b600073ffffffffffffffffffffffffffffffffffffffff168173ffffffffffffffffffffffffffffffffffffffff161461299d5761294e6000856000806131f7565b6001600360008373ffffffffffffffffffffffffffffffffffffffff1673ffffffffffffffffffffffffffffffffffffffff168152602001908152602001600020600082825403925050819055505b600073ffffffffffffffffffffffffffffffffffffffff168573ffffffffffffffffffffffffffffffffffffffff1614612a20576001600360008773ffffffffffffffffffffffffffffffffffffffff1673ffffffffffffffffffffffffffffffffffffffff168152602001908152602001600020600082825401925050819055505b846002600086815260200190815260200160002060006101000a81548173ffffffffffffffffffffffffffffffffffffffff021916908373ffffffffffffffffffffffffffffffffffffffff160217905550838573ffffffffffffffffffffffffffffffffffffffff168273ffffffffffffffffffffffffffffffffffffffff167fddf252ad1be2c89b69c2b068fc378daa952ba7f163c4a11628f55a4df523b3ef60405160405180910390a4809150509392505050565b612af2828260405180602001604052806000815250613480565b5050565b80600660008481526020019081526020016000209081612b169190614901565b507ff8e1a15aba9398e019f0b49df1a4fde98ee17ae345cb5f6b5e2c27f5033e8ce782604051612b46919061407d565b60405180910390a15050565b612b5a6128a4565b73ffffffffffffffffffffffffffffffffffffffff16612b786118db565b73ffffffffffffffffffffffffffffffffffffffff1614612bd757612b9b6128a4565b6040517f118cdaa7000000000000000000000000000000000000000000000000000000008152600401612bce9190613bf0565b60405180910390fd5b565b6000600760009054906101000a900473ffffffffffffffffffffffffffffffffffffffff16905081600760006101000a81548173ffffffffffffffffffffffffffffffffffffffff021916908373ffffffffffffffffffffffffffffffffffffffff1602179055508173ffffffffffffffffffffffffffffffffffffffff168173ffffffffffffffffffffffffffffffffffffffff167f8be0079c531659141344cd1fd0a4f28419497f9722a3daafe3b4186f6b6457e060405160405180910390a35050565b600073ffffffffffffffffffffffffffffffffffffffff168273ffffffffffffffffffffffffffffffffffffffff1603612d1057816040517f5b08ba18000000000000000000000000000000000000000000000000000000008152600401612d079190613bf0565b60405180910390fd5b80600560008573ffffffffffffffffffffffffffffffffffffffff1673ffffffffffffffffffffffffffffffffffffffff16815260200190815260200160002060008473ffffffffffffffffffffffffffffffffffffffff1673ffffffffffffffffffffffffffffffffffffffff16815260200190815260200160002060006101000a81548160ff0219169083151502179055508173ffffffffffffffffffffffffffffffffffffffff168373ffffffffffffffffffffffffffffffffffffffff167f17307eab39ab6107e8899845ad3d59bd9653f200f220920489ca2b5937696c3183604051612e019190613a7f565b60405180910390a3505050565b60008373ffffffffffffffffffffffffffffffffffffffff163b1115612fbf578273ffffffffffffffffffffffffffffffffffffffff1663150b7a02612e526128a4565b8685856040518563ffffffff1660e01b8152600401612e74949392919061505a565b6020604051808303816000875af1925050508015612eb057506040513d601f19601f82011682018060405250810190612ead91906150bb565b60015b612f34573d8060008114612ee0576040519150601f19603f3d011682016040523d82523d6000602084013e612ee5565b606091505b506000815103612f2c57836040517f64a0ae92000000000000000000000000000000000000000000000000000000008152600401612f239190613bf0565b60405180910390fd5b805181602001fd5b63150b7a0260e01b7bffffffffffffffffffffffffffffffffffffffffffffffffffffffff1916817bffffffffffffffffffffffffffffffffffffffffffffffffffffffff191614612fbd57836040517f64a0ae92000000000000000000000000000000000000000000000000000000008152600401612fb49190613bf0565b60405180910390fd5b505b50505050565b6060612fd0826127df565b506000600660008481526020019081526020016000208054612ff190614346565b80601f016020809104026020016040519081016040528092919081815260200182805461301d90614346565b801561306a5780601f1061303f5761010080835404028352916020019161306a565b820191906000526020600020905b81548152906001019060200180831161304d57829003601f168201915b50505050509050600061307b61349c565b905060008151036130905781925050506130d3565b6000825111156130c55780826040516020016130ad929190615124565b604051602081830303815290604052925050506130d3565b6130ce846134b3565b925050505b919050565b60007f80ac58cd000000000000000000000000000000000000000000000000000000007bffffffffffffffffffffffffffffffffffffffffffffffffffffffff1916827bffffffffffffffffffffffffffffffffffffffffffffffffffffffff191614806131a357507f5b5e139f000000000000000000000000000000000000000000000000000000007bffffffffffffffffffffffffffffffffffffffffffffffffffffffff1916827bffffffffffffffffffffffffffffffffffffffffffffffffffffffff1916145b806131b357506131b28261351c565b5b9050919050565b60006002600083815260200190815260200160002060009054906101000a900473ffffffffffffffffffffffffffffffffffffffff169050919050565b80806132305750600073ffffffffffffffffffffffffffffffffffffffff168273ffffffffffffffffffffffffffffffffffffffff1614155b15613364576000613240846127df565b9050600073ffffffffffffffffffffffffffffffffffffffff168373ffffffffffffffffffffffffffffffffffffffff16141580156132ab57508273ffffffffffffffffffffffffffffffffffffffff168173ffffffffffffffffffffffffffffffffffffffff1614155b80156132be57506132bc8184612664565b155b1561330057826040517fa9fbf51f0000000000000000000000000000000000000000000000000000000081526004016132f79190613bf0565b60405180910390fd5b811561336257838573ffffffffffffffffffffffffffffffffffffffff168273ffffffffffffffffffffffffffffffffffffffff167f8c5be1e5ebec7d5bd14f71427d1e84f3dd0314c0f7b2291e5b200ac8c7c3b92560405160405180910390a45b505b836004600085815260200190815260200160002060006101000a81548173ffffffffffffffffffffffffffffffffffffffff021916908373ffffffffffffffffffffffffffffffffffffffff16021790555050505050565b6133c7838383613586565b61347b57600073ffffffffffffffffffffffffffffffffffffffff168373ffffffffffffffffffffffffffffffffffffffff160361343c57806040517f7e273289000000000000000000000000000000000000000000000000000000008152600401613433919061407d565b60405180910390fd5b81816040517f177e802f000000000000000000000000000000000000000000000000000000008152600401613472929190615148565b60405180910390fd5b505050565b61348a8383613647565b6134976000848484612e0e565b505050565b606060405180602001604052806000815250905090565b60606134be826127df565b5060006134c961349c565b905060008151116134e95760405180602001604052806000815250613514565b806134f384613740565b604051602001613504929190615124565b6040516020818303038152906040525b915050919050565b60007f01ffc9a7000000000000000000000000000000000000000000000000000000007bffffffffffffffffffffffffffffffffffffffffffffffffffffffff1916827bffffffffffffffffffffffffffffffffffffffffffffffffffffffff1916149050919050565b60008073ffffffffffffffffffffffffffffffffffffffff168373ffffffffffffffffffffffffffffffffffffffff161415801561363e57508273ffffffffffffffffffffffffffffffffffffffff168473ffffffffffffffffffffffffffffffffffffffff1614806135ff57506135fe8484612664565b5b8061363d57508273ffffffffffffffffffffffffffffffffffffffff1661362583612867565b73ffffffffffffffffffffffffffffffffffffffff16145b5b90509392505050565b600073ffffffffffffffffffffffffffffffffffffffff168273ffffffffffffffffffffffffffffffffffffffff16036136b95760006040517f64a0ae920000000000000000000000000000000000000000000000000000000081526004016136b09190613bf0565b60405180910390fd5b60006136c7838360006128be565b9050600073ffffffffffffffffffffffffffffffffffffffff168173ffffffffffffffffffffffffffffffffffffffff161461373b5760006040517f73c6ac6e0000000000000000000000000000000000000000000000000000000081526004016137329190613bf0565b60405180910390fd5b505050565b60606000600161374f8461380e565b01905060008167ffffffffffffffff81111561376e5761376d613c81565b5b6040519080825280601f01601f1916602001820160405280156137a05781602001600182028036833780820191505090505b509050600082602001820190505b600115613803578080600190039150507f3031323334353637383961626364656600000000000000000000000000000000600a86061a8153600a85816137f7576137f66145be565b5b049450600085036137ae575b819350505050919050565b600080600090507a184f03e93ff9f4daa797ed6e38ed64bf6a1f010000000000000000831061386c577a184f03e93ff9f4daa797ed6e38ed64bf6a1f0100000000000000008381613862576138616145be565b5b0492506040810190505b6d04ee2d6d415b85acef810000000083106138a9576d04ee2d6d415b85acef8100000000838161389f5761389e6145be565b5b0492506020810190505b662386f26fc1000083106138d857662386f26fc1000083816138ce576138cd6145be565b5b0492506010810190505b6305f5e1008310613901576305f5e10083816138f7576138f66145be565b5b0492506008810190505b612710831061392657612710838161391c5761391b6145be565b5b0492506004810190505b60648310613949576064838161393f5761393e6145be565b5b0492506002810190505b600a8310613958576001810190505b80915050919050565b82805482825590600052602060002090810192821561399d579160200282015b8281111561399c578251825591602001919060010190613981565b5b5090506139aa91906139ae565b5090565b5b808211156139c75760008160009055506001016139af565b5090565b6000604051905090565b600080fd5b600080fd5b60007fffffffff0000000000000000000000000000000000000000000000000000000082169050919050565b613a14816139df565b8114613a1f57600080fd5b50565b600081359050613a3181613a0b565b92915050565b600060208284031215613a4d57613a4c6139d5565b5b6000613a5b84828501613a22565b91505092915050565b60008115159050919050565b613a7981613a64565b82525050565b6000602082019050613a946000830184613a70565b92915050565b600081519050919050565b600082825260208201905092915050565b60005b83811015613ad4578082015181840152602081019050613ab9565b60008484015250505050565b6000601f19601f8301169050919050565b6000613afc82613a9a565b613b068185613aa5565b9350613b16818560208601613ab6565b613b1f81613ae0565b840191505092915050565b60006020820190508181036000830152613b448184613af1565b905092915050565b6000819050919050565b613b5f81613b4c565b8114613b6a57600080fd5b50565b600081359050613b7c81613b56565b92915050565b600060208284031215613b9857613b976139d5565b5b6000613ba684828501613b6d565b91505092915050565b600073ffffffffffffffffffffffffffffffffffffffff82169050919050565b6000613bda82613baf565b9050919050565b613bea81613bcf565b82525050565b6000602082019050613c056000830184613be1565b92915050565b613c1481613bcf565b8114613c1f57600080fd5b50565b600081359050613c3181613c0b565b92915050565b60008060408385031215613c4e57613c4d6139d5565b5b6000613c5c85828601613c22565b9250506020613c6d85828601613b6d565b9150509250929050565b600080fd5b600080fd5b7f4e487b7100000000000000000000000000000000000000000000000000000000600052604160045260246000fd5b613cb982613ae0565b810181811067ffffffffffffffff82111715613cd857613cd7613c81565b5b80604052505050565b6000613ceb6139cb565b9050613cf78282613cb0565b919050565b600067ffffffffffffffff821115613d1757613d16613c81565b5b613d2082613ae0565b9050602081019050919050565b82818337600083830152505050565b6000613d4f613d4a84613cfc565b613ce1565b905082815260208101848484011115613d6b57613d6a613c7c565b5b613d76848285613d2d565b509392505050565b600082601f830112613d9357613d92613c77565b5b8135613da3848260208601613d3c565b91505092915050565b60008060408385031215613dc357613dc26139d5565b5b600083013567ffffffffffffffff811115613de157613de06139da565b5b613ded85828601613d7e565b925050602083013567ffffffffffffffff811115613e0e57613e0d6139da565b5b613e1a85828601613d7e565b9150509250929050565b613e2d81613b4c565b82525050565b6000613e3e82613baf565b9050919050565b613e4e81613e33565b82525050565b6000610120820190508181036000830152613e6f818c613af1565b90508181036020830152613e83818b613af1565b9050613e92604083018a613e24565b613e9f6060830189613a70565b613eac6080830188613e45565b613eb960a0830187613e45565b613ec660c0830186613e24565b613ed360e0830185613e24565b613ee1610100830184613e24565b9a9950505050505050505050565b600080600060608486031215613f0857613f076139d5565b5b6000613f1686828701613b6d565b9350506020613f2786828701613b6d565b9250506040613f3886828701613b6d565b9150509250925092565b600080600060608486031215613f5b57613f5a6139d5565b5b6000613f6986828701613c22565b9350506020613f7a86828701613c22565b9250506040613f8b86828701613b6d565b9150509250925092565b60008060008060808587031215613faf57613fae6139d5565b5b600085013567ffffffffffffffff811115613fcd57613fcc6139da565b5b613fd987828801613d7e565b945050602085013567ffffffffffffffff811115613ffa57613ff96139da565b5b61400687828801613d7e565b935050604085013567ffffffffffffffff811115614027576140266139da565b5b61403387828801613d7e565b925050606061404487828801613b6d565b91505092959194509250565b600060208284031215614066576140656139d5565b5b600061407484828501613c22565b91505092915050565b60006020820190506140926000830184613e24565b92915050565b600060c0820190506140ad6000830189613e24565b6140ba6020830188613e24565b81810360408301526140cc8187613af1565b905081810360608301526140e08186613af1565b90506140ef6080830185613e45565b6140fc60a0830184613a70565b979650505050505050565b61411081613a64565b811461411b57600080fd5b50565b60008135905061412d81614107565b92915050565b6000806040838503121561414a576141496139d5565b5b600061415885828601613c22565b92505060206141698582860161411e565b9150509250929050565b6000806040838503121561418a576141896139d5565b5b600061419885828601613b6d565b92505060206141a985828601613b6d565b9150509250929050565b600067ffffffffffffffff8211156141ce576141cd613c81565b5b6141d782613ae0565b9050602081019050919050565b60006141f76141f2846141b3565b613ce1565b90508281526020810184848401111561421357614212613c7c565b5b61421e848285613d2d565b509392505050565b600082601f83011261423b5761423a613c77565b5b813561424b8482602086016141e4565b91505092915050565b6000806000806080858703121561426e5761426d6139d5565b5b600061427c87828801613c22565b945050602061428d87828801613c22565b935050604061429e87828801613b6d565b925050606085013567ffffffffffffffff8111156142bf576142be6139da565b5b6142cb87828801614226565b91505092959194509250565b600080604083850312156142ee576142ed6139d5565b5b60006142fc85828601613c22565b925050602061430d85828601613c22565b9150509250929050565b7f4e487b7100000000000000000000000000000000000000000000000000000000600052602260045260246000fd5b6000600282049050600182168061435e57607f821691505b60208210810361437157614370614317565b5b50919050565b7f546865207072696365206973206e6f7420636f72726563740000000000000000600082015250565b60006143ad601883613aa5565b91506143b882614377565b602082019050919050565b600060208201905081810360008301526143dc816143a0565b9050919050565b7f54686520636f6c6c656374696f6e20697320656d707479000000000000000000600082015250565b6000614419601783613aa5565b9150614424826143e3565b602082019050919050565b600060208201905081810360008301526144488161440c565b9050919050565b7f596f752061726520746865206f776e6572206f66207468697320636f6c6c656360008201527f74696f6e00000000000000000000000000000000000000000000000000000000602082015250565b60006144ab602483613aa5565b91506144b68261444f565b604082019050919050565b600060208201905081810360008301526144da8161449e565b9050919050565b7f54686520636f6c6c656374696f6e206973206e6f74206c697374656400000000600082015250565b6000614517601c83613aa5565b9150614522826144e1565b602082019050919050565b600060208201905081810360008301526145468161450a565b9050919050565b7f4e487b7100000000000000000000000000000000000000000000000000000000600052601160045260246000fd5b600061458782613b4c565b915061459283613b4c565b92508282026145a081613b4c565b915082820484148315176145b7576145b661454d565b5b5092915050565b7f4e487b7100000000000000000000000000000000000000000000000000000000600052601260045260246000fd5b60006145f882613b4c565b915061460383613b4c565b925082614613576146126145be565b5b828204905092915050565b600061462982613b4c565b915061463483613b4c565b925082820390508181111561464c5761464b61454d565b5b92915050565b7f4e487b7100000000000000000000000000000000000000000000000000000000600052603260045260246000fd5b6000819050919050565b60006146a66146a161469c84613baf565b614681565b613baf565b9050919050565b60006146b88261468b565b9050919050565b60006146ca826146ad565b9050919050565b6146da816146bf565b82525050565b60006060820190506146f560008301866146d1565b6147026020830185613be1565b61470f6040830184613e24565b949350505050565b600061472282613b4c565b91507fffffffffffffffffffffffffffffffffffffffffffffffffffffffffffffffff82036147545761475361454d565b5b600182019050919050565b60008190508160005260206000209050919050565b60006020601f8301049050919050565b600082821b905092915050565b6000600883026147c17fffffffffffffffffffffffffffffffffffffffffffffffffffffffffffffffff82614784565b6147cb8683614784565b95508019841693508086168417925050509392505050565b60006147fe6147f96147f484613b4c565b614681565b613b4c565b9050919050565b6000819050919050565b614818836147e3565b61482c61482482614805565b848454614791565b825550505050565b600090565b614841614834565b61484c81848461480f565b505050565b5b8181101561487057614865600082614839565b600181019050614852565b5050565b601f8211156148b5576148868161475f565b61488f84614774565b8101602085101561489e578190505b6148b26148aa85614774565b830182614851565b50505b505050565b600082821c905092915050565b60006148d8600019846008026148ba565b1980831691505092915050565b60006148f183836148c7565b9150826002028217905092915050565b61490a82613a9a565b67ffffffffffffffff81111561492357614922613c81565b5b61492d8254614346565b614938828285614874565b600060209050601f83116001811461496b5760008415614959578287015190505b61496385826148e5565b8655506149cb565b601f1984166149798661475f565b60005b828110156149a15784890151825560018201915060208501945060208101905061497c565b868310156149be57848901516149ba601f8916826148c7565b8355505b6001600288020188555050505b505050505050565b6000815190506149e281613c0b565b92915050565b6000602082840312156149fe576149fd6139d5565b5b6000614a0c848285016149d3565b91505092915050565b7f596f7520617265206e6f7420746865206f776e6572206f662074686973204e4660008201527f5400000000000000000000000000000000000000000000000000000000000000602082015250565b6000614a71602183613aa5565b9150614a7c82614a15565b604082019050919050565b60006020820190508181036000830152614aa081614a64565b9050919050565b6000606082019050614abc6000830186613be1565b614ac96020830185613be1565b614ad66040830184613e24565b949350505050565b6000606082019050614af36000830186613be1565b614b006020830185613e24565b614b0d6040830184613be1565b949350505050565b7f54686973204e4654206973206e6f74206c697374656400000000000000000000600082015250565b6000614b4b601683613aa5565b9150614b5682614b15565b602082019050919050565b60006020820190508181036000830152614b7a81614b3e565b9050919050565b7f596f752063616e6e6f7420626964206f6e20796f7572206f776e204e46540000600082015250565b6000614bb7601e83613aa5565b9150614bc282614b81565b602082019050919050565b60006020820190508181036000830152614be681614baa565b9050919050565b7f596f757220626964206973206c6f776572207468616e2074686520686967686560008201527f7374206269640000000000000000000000000000000000000000000000000000602082015250565b6000614c49602683613aa5565b9150614c5482614bed565b604082019050919050565b60006020820190508181036000830152614c7881614c3c565b9050919050565b7f5468652061756374696f6e2068617320656e6465640000000000000000000000600082015250565b6000614cb5601583613aa5565b9150614cc082614c7f565b602082019050919050565b60006020820190508181036000830152614ce481614ca8565b9050919050565b7f596f757220626964206973206c6f776572207468616e2074686520737461727460008201527f696e672070726963650000000000000000000000000000000000000000000000602082015250565b6000614d47602983613aa5565b9150614d5282614ceb565b604082019050919050565b60006020820190508181036000830152614d7681614d3a565b9050919050565b7f596f752061726520616c7265616479207468652068696768657374206269646460008201527f6572000000000000000000000000000000000000000000000000000000000000602082015250565b6000614dd9602283613aa5565b9150614de482614d7d565b604082019050919050565b60006020820190508181036000830152614e0881614dcc565b9050919050565b7f5468657265206973206e6f20636f6c6c656374696f6e20796f752073656c656360008201527f7400000000000000000000000000000000000000000000000000000000000000602082015250565b6000614e6b602183613aa5565b9150614e7682614e0f565b604082019050919050565b60006020820190508181036000830152614e9a81614e5e565b9050919050565b7f5468652061756374696f6e20616c72656164792066696e697368656400000000600082015250565b6000614ed7601c83613aa5565b9150614ee282614ea1565b602082019050919050565b60006020820190508181036000830152614f0681614eca565b9050919050565b7f596f7520617265206e6f7420746865206f776e6572206f66207468697320636f60008201527f6c6c656374696f6e000000000000000000000000000000000000000000000000602082015250565b6000614f69602883613aa5565b9150614f7482614f0d565b604082019050919050565b60006020820190508181036000830152614f9881614f5c565b9050919050565b6000606082019050614fb46000830186613be1565b614fc160208301856146d1565b614fce6040830184613e24565b949350505050565b7f4e487b7100000000000000000000000000000000000000000000000000000000600052603160045260246000fd5b600081519050919050565b600082825260208201905092915050565b600061502c82615005565b6150368185615010565b9350615046818560208601613ab6565b61504f81613ae0565b840191505092915050565b600060808201905061506f6000830187613be1565b61507c6020830186613be1565b6150896040830185613e24565b818103606083015261509b8184615021565b905095945050505050565b6000815190506150b581613a0b565b92915050565b6000602082840312156150d1576150d06139d5565b5b60006150df848285016150a6565b91505092915050565b600081905092915050565b60006150fe82613a9a565b61510881856150e8565b9350615118818560208601613ab6565b80840191505092915050565b600061513082856150f3565b915061513c82846150f3565b91508190509392505050565b600060408201905061515d6000830185613be1565b61516a6020830184613e24565b939250505056fea26469706673582212202965726000a218e12d9ee9bebb0c2870b1ff50fc4aabdd11861c1ee3ef5b94d664736f6c63430008140033",
  "linkReferences": {},
  "deployedLinkReferences": {}
}